:02000002D0002C
:1040000000400D00086E0D00000006000C000501C8
:08401000040199080000000002
:04401800EC690D0042
:1040200009480A49884208B505D0094A824202D0A7
:10403000121A02F083FB0748074A0021121A02F005
:10404000A5FB014808BD00BFE8E40320746D0D0026
:1040500054E5032054E50320EDE7032070B5074E37
:10406000074C01F041F9A41BA4080025A54200D18A
:1040700070BD56F8043B98470135F7E7486D0D00D1
:104080006C6D0D0000F004B908B500F0DBF9BDE877
:10409000084001F0E1B800F021BE00F01FBE00F0C2
:1040A00025BE00F023BE0078B0FA80F040097047CA
:1040B000012303707047000038B500F11005044675
:1040C0000849284600F0D7FE00230A220121C4E94E
:1040D0000221237004496360284600F01FFF204638
:1040E00038BD00BF1F6C0D00006A0D0010B586B012
:1040F000C368019303780093D0E90123044607497C
:1041000002A800F049FF02A904F1100000F0FEFE31
:1041100002A800F065FE06B010BD00BF036A0D00E6
:1041200038B50278044632B1012A12D02046BDE8E3
:104130003840FFF7DBBF4368816801338B4243603F
:10414000F4DB42600121072001F089FE0123237086
:10415000ECE743688268013393424360E6DB002565
:1041600045602946072001F07AFE2570DEE738B564
:10417000046805467CB16368013B63605BB92368F2
:1041800020469B689847A368013BA3601BB923683E
:104190002046DB689847284638BD13B50B460446D1
:1041A0001A685B6809690092019313B15A68013279
:1041B0005A606A46204601F0C5FB01A8FFF7D7FF09
:1041C000204602B010BD000070B50B468CB01A68D6
:1041D0005B68896802920446039313B15A680132FE
:1041E0005A6002AA06A801F055FD03A8FFF7BFFF19
:1041F0001F4E06A801F066FD002833D0069B0093F1
:10420000079B0999019313B15A6801325A606A46B3
:1042100002A801F01BFD01A8FFF7A9FF0498314691
:1042200002F0E0FA054603A8FFF7A1FF002DE0D158
:1042300006A902A8FFF7B1FF02A801F0F7FBE060B2
:1042400003A8FFF794FF06A902A8FFF7A6FF02A89C
:1042500001F0ECFB0A235843A06003A8FFF787FF97
:104260006560C6E707A8FFF782FF0CB070BD00BF0E
:10427000216A0D000EB403B503AB002153F8042BE3
:10428000019300F00EFF02B05DF804EB03B070473D
:1042900008B50121072001F0D1FD012000F081FFC8
:1042A000FF221146104600F08CFF01F01FF94FF479
:1042B000165101F00FF9024B00221A6008BD00BF31
:1042C00054E503200B68036013B15A6801325A6049
:1042D00070470000F0B597B001F008F903681B695A
:1042E0009847002840F3A180514908A800F0C3FD79
:1042F00001F0FCF803681B69984780B101F0F6F8FB
:1043000003685B699847C1B210A800F019FE10A9B4
:1043100008A800F03DFE10A800F062FDE8E708994B
:104320000191084602F070FA0199424E424F434D06
:10433000024605A801F0EEFC079C059B0C9306A91C
:104340000DA8FFF7BFFF0CAA214610A801F0A2FCA0
:104350000DA8FFF70CFF10A801F0B4FC00285BD0FB
:10436000139C109B039311A904A8FFF7ABFF2146F0
:1043700003AA0CA801F06AFC04A8FFF7F8FE0E9847
:10438000314602F02FFA04460DA8FFF7F0FEB4B94B
:10439000149C109B039311A904A8FFF793FF2146D7
:1043A00003AA0CA801F0CEFA04A8FFF7E0FE244807
:1043B0000CA900F0D1F90DA8FFF7D9FECBE7139CAB
:1043C000109B039311A904A8FFF77CFF214603AAC1
:1043D0000CA801F03BFC04A8FFF7C9FE0E98394673
:1043E00002F000FA04460DA8FFF7C1FE002CB2D17E
:1043F000149C109B039311A904A8FFF763FF2146A7
:1044000003AA0CA801F09EFA04A8FFF7B0FE0CA9BD
:104410002846FFF7D9FECEE711A8FFF7A8FE06A8A9
:10442000FFF7A5FE08A800F0DBFC17B0F0BD00BF49
:104430001F6C0D002B6A0D00366A0D0088E5032005
:1044400058E50320F0B58DB000F05CFA224D04462B
:10445000FFF740FF214800F033F92148FFF760FEE5
:1044600000F050FA29680A2291FBF2F302FB1313C1
:10447000064623BB2B6001F039F8074600F074FEB6
:104480001849039004A800F036FD049B16490293D6
:1044900008A800F030FD361B08990091DDE90232D2
:1044A000124901963846FFF7E5FE08A800F098FC8F
:1044B00004A800F095FC01F019F800F0C8FD2B6885
:1044C00001332B6000F01EFA6434201A01D000F092
:1044D00065FE0DB0F0BD00BF54E5032058E5032094
:1044E00088E5032078E5032098E503203A6A0D006B
:1044F00008B50021012000F04DFB044800F00AF847
:10450000BDE808400248FFF7D7BD00BF58E50320CB
:1045100088E5032038B500F1200504460C492846FB
:1045200000F0A9FC40F2011323808023636040F671
:10453000C4114FF4FA73C4E903132846054900F087
:10454000EDFC054BE361C4E90533204638BD00BFEF
:104550001F6C0D00006A0D006179FEFF08B500F0C8
:1045600051FE28B1BDE808400121002000F03CBE0A
:1045700008BD00000000000038B5134B9942044606
:1045800008460AD1656800F03DFE854216D02079C4
:104590000121BDE8384000F027BE01F025FE08A348
:1045A000D3E9002301F08AFE084B002201F0B0FF9E
:1045B00002F096F801216060C0B2EAE738BD00BFA2
:1045C0000000000000E06F406179FEFF00005940EC
:1045D00010B50446132001F05BFCA06010BD000084
:1045E0002DE9F0410446FFF7F3FF2569A068D4F8F0
:1045F0000C80A842B8BF28468045D4BFC5EB080050
:10460000C5EB000001F0F0FD0646A8EB05000F46E3
:1046100001F0EAFD02460B463046394601F078FFCC
:1046200002460B4600200A4901F090FC06A3D3E99C
:10463000002301F043FE02F053F801216060BDE861
:10464000F041C0B200F0D0BD0000000000E06F40BB
:104650000000F03F0000000070B588B0C3684678E5
:1046600005780393036902938368019304464068C5
:1046700001F0BAFD10A3D3E9002301F049FF0C4B70
:10468000002201F01BFE02F02BF833462A46009070
:10469000084904A800F080FC04A904F1200000F0FF
:1046A00035FC04A800F09CFB08B070BDAFF300809F
:1046B00000005940606A0D000000000000E06F40FB
:1046C00038B50578044655B1012D13D0174BE36179
:1046D000C4E905332046BDE83840FFF7BDBFFFF70A
:1046E0003DFF6369114A9342F0D0002BEED00123C5
:1046F0002380EBE7437833B1012B0FD06369002BA4
:10470000E4D12370E2E7C169FFF736FFA369074AE6
:104710009342F3D0002BF1D06570EFE7FFF760FF15
:10472000A369002BEAD16370E8E700BF6179FEFF5F
:1047300037B5CD6851F8043B0093044601A8FFF754
:10474000C1FD6A462946204601F080FA01A8FFF71C
:104750000EFD204603B030BD2DE9F0418AB08D68D2
:1047600051F8043B0093044601A8FFF7ABFD6A46ED
:10477000294604A801F08EFA01A8FFF7F8FC3C4E88
:104780003C4FDFF8FC8004A801F09CFA002869D0B7
:1047900004A96846FFF7CCFF3146029802F022F8E0
:1047A000054601A8FFF7E3FC04A968464DB9FFF7E9
:1047B000F4FC684601F0FCF8606101A8FFF7D7FC43
:1047C000E1E7FFF7B5FF3946029802F00BF805461E
:1047D00001A8FFF7CCFC04A9684635B9FFF7DDFC5A
:1047E000684601F0E5F8A061E7E7FFF7A1FF414661
:1047F000029801F0F7FF054601A8FFF7B8FC04A9ED
:10480000684635B9FFF7C9FC684601F00FF9E06169
:10481000D3E7FFF78DFF1849029801F0E3FF054643
:1048200001A8FFF7A4FC04A9684635B9FFF7B5FC59
:10483000684601F0FBF82061BFE7FFF779FF0F49F9
:10484000029801F0CFFF054601A8FFF790FC002D6C
:1048500099D104A96846FFF7A0FC684601F0E6F884
:10486000E060AAE705A8FFF782FC0AB0BDE8F08186
:104870008E6A0D00916A0D00A16A0D00A56A0D00F7
:10488000966A0D0008B5024B1B689B68019308BD32
:104890006802030008B5024B1B68DB68019308BD82
:1048A0006802030008B5024B1B685B68019308BDF2
:1048B0002C02030008B5024B1B689B68019308BDDE
:1048C0002C02030008B5024B1B68DB68019308BD8E
:1048D0002C02030008B5024B1B681B69019308BD3D
:1048E0002C02030008B5024B1B681B6B019308BD2B
:1048F0002C02030008B5024B1B685B68019308BDDE
:104900001802030008B5024B1B685B69019308BDE0
:104910001802030008B5024B1B689B6D019308BD8C
:104920001802030008B5024B1B685B6E019308BDBB
:104930001802030008B5024B1B685B6C019308BDAD
:104940004802030008B5024B1B685B69019308BD70
:104950006402030008B5024B1B681B68019308BD85
:104960003C02030008B5024B1B68DB68019308BDDD
:104970003C02030008B5024B1B681B69019308BD8C
:104980003C02030008B5024B1B685B69019308BD3C
:104990003C02030008B5024B1B689B69019308BDEC
:1049A0003C02030008B5024B1B68DB69019308BD9C
:1049B0003C02030008B5024B1B681B6A019308BD4B
:1049C0003C02030008B5024B1B689B6A019308BDBB
:1049D0003C02030008B5024B1B681B6A019308BD2B
:1049E0002802030008B5024B1B685B6A019308BDEF
:1049F0002802030008B5024B1B689B6A019308BD9F
:104A00002802030008B5024B1B68DB6A019308BD4E
:104A10002802030008B5024B1B681B6B019308BDFD
:104A20002802030008B5024B1B685B6B019308BDAD
:104A30002802030008B5024B1B681B6C019308BDDC
:104A40002802030008B5024B1B68DB69019308BD0F
:104A50003002030008B5024B1B681B6A019308BDB6
:104A60003002030008B5024B1B681B68019308BDA8
:104A70004C02030008B5024B1B685B68019308BD3C
:104A80004C02030008B5024B1B681B69019308BD6B
:104A90004C02030008B5024B1B685B69019308BD1B
:104AA0004C02030008B5024B1B689B69019308BDCB
:104AB0004C02030008B5024B1B68DB69019308BD7B
:104AC0004C02030008B5024B1B681B6A019308BD2A
:104AD0004C02030008B5024B1B685B68019308BDDC
:104AE0006002030008B5024B1B689B68019308BD78
:104AF0006002030008B5024B1B68DB68019308BD28
:104B00006002030008B5024B1B681B69019308BDD6
:104B10006002030008B5024B1B689B69019308BD46
:104B20006002030008B5024B1B68DB69019308BDF6
:104B30006002030008B5024B1B68DB6A019308BDE5
:104B40006002030008B5024B1B689B6B019308BD14
:104B50006002030008B5024B1B68DB6B019308BDC4
:104B60006002030008B5024B1B681B68019308BD77
:104B70002002030008B5024B1B685B68019308BD67
:104B80002002030008B5024B1B685B69019308BD56
:104B90002002030008B5024B1B68DB6A019308BDC5
:104BA0002002030008B5024B1B689B6D019308BDF2
:104BB0002002030008B5034B1B68D3F8883001932B
:104BC00008BD00002002030008B5034B1B68D3F8A2
:104BD0009430019308BD00002002030008B5024B89
:104BE0001B685B68019308BD4002030008B5024BD7
:104BF0001B689B68019308BD4002030008B5024B87
:104C00001B68DB68019308BD4002030008B5024B36
:104C10001B681B69019308BD4002030008B5024BE5
:104C20001B685B69019308BD4002030008B5024B95
:104C30001B689B69019308BD4002030008B5024B45
:104C40001B68DB69019308BD4002030008B5024BF5
:104C50001B681B6A019308BD4002030008B5024BA4
:104C60001B681B6B019308BD4002030008B5024B93
:104C70001B685B6B019308BD4002030008B5024B43
:104C80001B681B6C019308BD4002030008B5024B72
:104C90001B685B6C019308BD4002030008B5024B22
:104CA0001B689B68019308BD4402030008B5024BD2
:104CB0001B685B69019308BD4402030008B5024B01
:104CC0001B681B6B019308BD4402030008B5024B2F
:104CD0001B68DB6B019308BD4402030008B5024B5F
:104CE0001B681B68019308BD1C02030008B5024B3A
:104CF0001B685B68019308BD1C02030008B5024BEA
:104D00001B689B68019308BD1C02030008B5024B99
:104D10001B685B6A019308BD1C02030008B5024BC7
:104D20001B685B6C019308BD1C02030000224068F5
:104D30001146FFF78BBF002240681146FFF796BF70
:104D400040680022FFF78ABF4068002281F001011D
:104D5000FFF774BF002340681A461946FFF766BF85
:104D6000002340681A461946FFF758BF00224068E2
:104D70001146FFF74BBF002240681146FFF736BFD0
:104D8000406800220221FFF739BF002340681A461D
:104D9000FFF724BF024B03225A60024A1A60704791
:104DA000A8E50320B46A0D0010B50446084621703A
:104DB000FFF748FE00236360204610BD054B02222A
:104DC0001A60054B054A9A60002018609880987117
:104DD000FFF7D0BEBCE50320B0E503200000FFFFD5
:104DE00010B504460068FFF781FF204610BD10B5DE
:104DF0000446006808B1FFF779FF0023C4E90133D6
:104E0000236010BD38B504460D4600680131FFF738
:104E100075FF10B1C4E90005012038BD10B5036865
:104E2000044623B143688B4201D3012010BD2046C4
:104E3000FFF7E8FF0028F9D0A368002BF5D122681E
:104E40001370F2E737B50D46114601920446FFF79D
:104E5000E5FF019A28B92046FFF7C9FF204603B0B5
:104E600030BDA2602946206801F068FC2268A36872
:104E70000021D154F2E7002313B5C0E90033044602
:104E80008360037341B10846019101F0BDFC0199B3
:104E900002462046FFF7D6FF204602B010BD38B5C7
:104EA000054600680C4668B16A688B689A4207D369
:104EB000096801F0A1FCA368AB600023A36038BDC2
:104EC000FFF714FF23682B6063686B60A368AB6017
:104ED0000023C4E90033F1E7884210B5044605D049
:104EE0000B682BB18A681946FFF7ACFF204610BD4E
:104EF000FFF77DFFFAE710B500230446C0E9003351
:104F000083600373FFF7E8FF204610BD884210B5A9
:104F1000044601D0FFF7C3FF204610BD13B5044679
:104F200059B10846019101F06FFC019902462046F3
:104F3000FFF788FF204602B010BDFFF758FFF9E7E2
:104F400013B500238DF80410C0E9003383600373A8
:104F500001A904468DF80530FFF7E0FF204602B0B6
:104F600010BD70B505460E4609B9002070BD6AB186
:104F7000846814442146FFF751FF0028F5D02868C3
:104F8000AB683146184401F037FCAC600120EDE716
:104F90008A680968FFF7E5BF0EB470B587B00BAD3E
:104FA000044655F8042B01922B46052104A80395CD
:104FB000FFF7ACFE0B4906462046FFF75CFF314683
:104FC0002046FFF72BFF206830B1019A03952B464E
:104FD000711CFFF79BFEA060204607B0BDE8704043
:104FE00003B070471F6C0D00024800230360FFF7F9
:104FF000A1BC00BFC0E50320F8B506460D468F18DA
:105000000024BD420CD0336815F8011B9B68304664
:105010009847031E01DB1C44F3E7002C08BF1C4625
:105020002046F8BD13B50446084659B1019101F078
:10503000EBFB23680199DB680246204602B0BDE81D
:105040001040184702B010BD03689B68184738B578
:105050000D210546FFF7F8FF0A2104462846FFF711
:10506000F3FF204438BD30B58BB000238DF82430D9
:10507000012A98BF0A2209AC0D46B1FBF2F101FBEF
:10508000125303F0FF03092B94BF30333733DBB2E5
:10509000AA4204F8013DEFD92146FFF7C3FF0BB048
:1050A00030BD2DE9F04186B000AF05460E46381DF3
:1050B000142114463B60FFF729FE13280ED8391D32
:1050C0002846FFF7AFFF04461EB12846FFF7BFFF93
:1050D000044420461837BD46BDE8F08100F10803BE
:1050E00023F00703E846ADEB030D2246411C3B6865
:1050F0006846FFF70BFE69462846FFF793FF044614
:10510000C546E1E7014B024A1A607047C4E5032037
:10511000E86A0D0008B50020FFF7D0FD28B1FFF7C1
:10512000C5FD80F00100C0B208BD0120FCE710B54C
:105130000020FFF7EFFB0446A0B9FFF713FD01289D
:1051400010D12046FFF72EFD60B9FFF7E3FF10B93D
:10515000FFF7A4FDF9E7FFF7DDFFBDE810400020F1
:10516000FFF7D8BB204610BD1FB5FFF7E0FF1022A8
:105170000021684601F00AFB00216846FFF7D2FBD8
:10518000009805B05DF804FB024B1A68024B1A60E8
:10519000704700BFE8E40320C8E503200021FFF7C3
:1051A000F1BC10B50446FFF7B5FC844208D01CB131
:1051B000BDE81040FFF796BCBDE81040FFF79ABC71
:1051C00010BD70B505460E461446FFF7A3FC50B15E
:1051D00044EA062040EA0540FFF77CFCBDE8704049
:1051E000E720FFF79FBC70BD10B50C46FFF78AFCA7
:1051F000FFF790FC28B124B1BDE81040E720FFF78D
:1052000091BC10BDFFF796BC014B00229A6070471D
:10521000CCE50320014B1860704700BFECE403208D
:1052200008B50B4B43B100F061F903681B6998475F
:10523000002801DDAFF30080064B43B100F0D0F948
:1052400003681B699847002801DDAFF3008008BDA3
:10525000000000000000000008B5FFF7E1FFFFF7C5
:1052600051FB014B186008BD38E703200548064A8A
:10527000064908B5121A01F061FA054B054A1A6091
:1052800008BD00BF00F4032004F40320706D0D007E
:1052900000F403201E1C279A07B5002300931A462A
:1052A0006FF07701FFF790FC03B05DF804FB00009E
:1052B00007B543880A2B08D0502B0BD1094B1B682C
:1052C0004BB103B05DF804EB1847FFF7E5FF03B0FF
:1052D0005DF804FB002300931A466FF07701FFF797
:1052E00073FCF4E7E0E5032010B512480021FFF756
:1052F00015FD114B1A68114B9A42114B0CBF01223C
:1053000000221A7001D0FFF7B1FFFFF7F3FA04464D
:1053100001F044FA0B4B13B12046AFF3008000219B
:105320000848FFF7D3FCBDE8104007480021FFF70D
:1053300041BC00BF15520D0000F403201E1C279A2B
:10534000DCE5032000000000B1520D00704710B5ED
:105350001821044600F0F0FD204610BDF0B5037D95
:10536000062B8DB00E4600F104074FF0000412D05A
:1053700000F1080515F8011D0A223046FFF773FEFB
:10538000AF42044419D0002CF4D02E213046FFF750
:105390005BFE0444EEE72F236A4639460A208DF867
:1053A0000040FFF7CFFA684601F02EFA3368024654
:1053B000DB68694630469847044620460DB0F0BD8C
:1053C00010B5054B0446112240F8043B002101F0C2
:1053D000DDF9204610BD00BF106B0D000346074AE3
:1053E00010B543F8042B01F1100251F8044B43F8B7
:1053F000044B9142F9D10A781A7010BD106B0D0060
:1054000010B59DF8084044EA032343EA024242EA09
:10541000016104234160037510BD13B5CB7800937F
:105420008B784A780978FFF7EBFF02B010BD417422
:1054300070477047704708B50021007CFFF732FBCA
:1054400040EAE07008BD08B50121007CFFF72AFBA7
:1054500040EAE07008BD08B5007CFFF71BFB20EABE
:10546000E07008BD08B5007CFFF70CFB20EAE07097
:1054700008BD13B50446007C0191FFF70BFB002823
:10548000019901DC607C20B1207CFFF713FB20EA4E
:10549000E07002B010BD007CFFF714BB10B5142102
:1054A000044600F049FD204610BD000010B54FF441
:1054B0007A73044608460021C4E90113044B2360B3
:1054C0000123207463741146FFF7CCFA204610BD07
:1054D000246B0D00007C0022FFF7CCBA10B514221B
:1054E0000446002101F052F9204610BD10B50F4CC2
:1054F00088B003A8FFF7F2FF2178BFF35B8F11F0AC
:1055000001010FD120460191FEF7CDFD019948B16F
:1055100003AA0748FFF7CAFF2046FEF7C9FD054862
:1055200001F006F9024808B010BD00BFE4E5032011
:10553000E8E5032033540D0070474174704770470D
:1055400008B5007CFFF73EFA20EAE07008BD08B518
:10555000007CFFF70FFA20EAE07008BD08B5007C78
:10556000FFF718FA40EAE07008BD08B5007CFFF7C5
:1055700009FA40EAE07008BD007CFFF713BA37B5BE
:10558000457C04462DB1207C03B0BDE83040FFF7D8
:10559000E9B9007C0191FFF715FA00280199F2DCC6
:1055A000284603B030BD10B51421044600F0C4FCF9
:1055B000204610BD10B54FF0000C044608461146B9
:1055C0004FF47A72C4E901C2044A226001222074B5
:1055D00062741A46FFF7BEF9204610BD546B0D00E9
:1055E00013B50D4C2178BFF35B8F11F0010110D181
:1055F00020460191FEF757FD019950B1074B084A2B
:105600000848FFF7D7FF2046FEF752FD064801F095
:105610008FF8044802B010BDFCE5032084E60320A7
:1056200000E6032008E703203F550D007047F8B55A
:10563000064615460C468F18BC4206D0336814F84F
:10564000011B9B6830469847F6E72846F8BD007C6A
:105650000022FFF7BFB9007C0021FFF7C3B9007C2F
:105660000021FFF7C7B9007C0021FFF7CBB9007C10
:105670000021FFF7CFB910B51421044600F05CFCFF
:10568000204610BD10B54FF47A7304460846002139
:10569000C4E90113034B236020741146FFF7CAF9D4
:1056A000204610BD846B0D00002240681146FFF7B4
:1056B000ADBA002240681146FFF7C8BA0022406820
:1056C0001146FFF7D3BA40680022FFF7C7BA406817
:1056D000002281F00101FFF7B1BA002340681A46A9
:1056E0001946FFF7A3BA002340681A461946FFF788
:1056F00095BA002240681146FFF778BA4068002248
:105700000221FFF77BBA002340681A46FFF766BA0A
:10571000024B04225A60024A1A6070471CE70320B9
:10572000AC6B0D00002340681A46FFF757BA40687B
:1057300000220221FFF762BA002240681146FFF7FB
:1057400055BA002240681146FFF760BA002340684E
:105750001A461946FFF762BA002340681A461946EE
:10576000FFF764BA40680021FFF788BA406800215B
:10577000FFF78CBA4068002281F00101FFF75EBAA2
:1057800040680022FFF76ABA002240681146FFF71E
:105790006DBA002240681146FFF758BA2DE9F04370
:1057A000002495B016460D460746FFF709FE214630
:1057B00018220EA8009400F0E9FF4023CDE90C3434
:1057C00021466B460CAA3046FFF764F804460028D1
:1057D00046D1024601216868FFF718FA0221804687
:1057E00022466868FFF712FA009E81462146002E85
:1057F00036D0002934D17368022B03D00A2B0BD08A
:10580000F669F4E7B8F1000F04D071693846043145
:10581000FFF703FE4146F3E7B9F1000F01D1494616
:10582000EEE77469102201A800F0B0FF06238DF89E
:10583000143001AD04F108031834186859682A4679
:1058400003C20833A3421546F7D101A906A807AD44
:10585000FFF7C4FD0FCD3C1D0FC42B682370DEE79E
:105860000098FFF70FF8384615B0BDE8F083000048
:10587000024B034A1A6000225A60704724E7032053
:10588000E86B0D0000F11003012213F8101C012930
:10589000184608D153F8041C02EB4102013A03F107
:1058A0001003F2D17047022904BF53F8041C5218A8
:1058B000F4E770470020704710B51021044600F04F
:1058C0003BFB204610BD08B5FFF7F6FF08BD10B53D
:1058D000C4687CB1206808B1FEF7E3FB237A1BB1F2
:1058E000606808B1FEF7DDFB20460C21BDE81040E2
:1058F00000F022BB10BD10B5036804469B689847B2
:10590000A368013BA3602BB923682046DB68BDE890
:105910001040184710BD38B50B6803604D684368E8
:105920009D4204460CD015B16B6801336B60606812
:1059300028B14368013B43600BB9FFF7DCFF6560AA
:10594000204638BD0B461146002210B5C0E90022A2
:10595000044683600BB9204610BDFFF7DCFFFAE771
:105960008368EBB11A78032A1AD8DFE802F004172B
:10597000021B0520704702685B685268D05C2D28C6
:1059800012D0A0F13003092B0ED974280ED066284E
:105990000CD0A0F16E035842584170470620704762
:1059A0000020704704207047032070470220704792
:1059B00010B50446FFF7D4FF03280DD004281ED0ED
:1059C00002282BD12268A36852685B68D05CA0F1E2
:1059D00074035842584110BDA36822685B6854683C
:1059E0001C440F49204600F0FDFE0028F3D00D496D
:1059F000204600F0F7FE003818BF0120EBE72268D0
:105A0000A36852685B68D05CD4180028E3D00649CC
:105A1000204600F0E7FE0028E3D1DCE70020DAE7CB
:105A20001E6C0D001C6C0D00206C0D0010B50446A2
:105A3000FFF796FF02280ED0C31EDBB2012B14D84D
:105A40002268A36850685B68BDE810400A22002104
:105A5000184400F05BBF2268A36852685B68D05CA2
:105A6000A0F174035842584110BD0020FCE700002B
:105A70002DE9F047994688B01023074688460DEB7C
:105A800003000021924604930024FFF75BF803AB68
:105A900001934FF0FF36009423464246394604A84E
:105AA0000396FFF757F8051E27DD03981449854232
:105AB000B8BF0546B5F1006FACBF3046280100F015
:105AC0003FFA064698B1002104A80024FFF73AF8EF
:105AD000CDE9005433464246394604A8FFF73AF868
:105AE000A04207DDCAF800600120C9F8005008B0E4
:105AF000BDE8F0873046FEF7D4FA2046F7E700BF4E
:105B0000446C0D002DE9F84F436886680B448846C5
:105B10000E4407461C4619464FF00D094FF0090A7E
:105B2000B44263D0254615F8012B5C2A2BD1A14243
:105B300007D0A4EB010B18465A4600F00DFE0346B1
:105B40005B44B54239D06278752A2AD1A21CB21AB8
:105B5000032A32DDA01D04F1050E4FF0000CAE4506
:105B600053D015F8011FA1F130025FFA82FBBBF19F
:105B7000090F05D9A1F16102052A07D8A1F1570241
:105B800042EA0C1CEBE728460446C9E7A1F14102B2
:105B9000052A12D8A1F13702F2E703F801CB01463A
:105BA000F2E76E2A1CD00ED8622A13D007D82F2A0B
:105BB00011D05C2A0FD0222A0DD0002023E0662AC3
:105BC000FBD10C2207E0722A0DD0742AF5D183F89C
:105BD00000A001E008221A70A11C01330846D3E797
:105BE0004FF00A02F7E783F80090F5E7A14206D0EC
:105BF000641A1846224600F0AFFD03462344A3EB87
:105C00000803BB600120BDE8F88FBCF17F0FC4D949
:105C10002146B9E7F8B50446154600EB0116002702
:105C2000B44210D02378032B08D129462046FFF731
:105C300069FF48B1A368EF541034F1E7002BFBD1A2
:105C4000A268AB54F8E70120F8BD000038B5002386
:105C5000C0E9003304460E48C4E90203A9B10B7839
:105C6000032B06D08BB9136858684B68C35C6E2B46
:105C700007D013684D6858688B6828445B1BA06088
:105C8000E36011462046FFF746FE204638BD00BFC0
:105C90001F6C0D0038B500250B46C0E90055C0E962
:105CA0000255C0E90455044611464BB11A78012A41
:105CB00006D103F11002DB6882604361FFF72BFE1F
:105CC000204638BD10B54369044663B18068E06082
:105CD000013B1030A0602061636113B1FFF7D2FD7A
:105CE000A060012000E0184610BD000038B5002378
:105CF0000446036010200D46FEF7CDF928B10123BC
:105D0000C0E90133024B0360C5602060204638BD06
:105D1000306C0D00F0B5044687B00E460C202749C4
:105D2000154600F00BF9014618B10023C0E9003315
:105D3000037203A80291FFF7D9FF029A42B9C4E99E
:105D40000022A26003A8FEF712FA204607B0F0BDB9
:105D500000230193294601AB3046FFF789FE18B9AD
:105D6000C4E90000A060EDE71449029F681C00F040
:105D7000E7F8029B786058680028F1D02A4631463F
:105D800000F0DCFC029B0199186801221A725A6823
:105D9000FFF740FF0028E3D0029B19680493039BA0
:105DA000059313B15A6801325A6004AA2046FFF7DE
:105DB000C9FD05A8FEF7DBF9C4E700BF446C0D0080
:105DC000232813B502D9002002B010BDA0F10B03A7
:105DD000022B1AD8174C2178BFF35B8F11F0010109
:105DE0000BD120460191FEF75EF9019928B11248C6
:105DF000FEF7DAFF2046FEF75BF90F4B1878FEF747
:105E000029FE0028DFD10120DEE7012809D800F0B3
:105E10006FF80021007CFEF705FE80F00100C0B2A3
:105E2000D2E709380128EED8FFF7DAFB007CFEF74D
:105E3000C1FDF2E72CE7032030E70320232838B523
:105E400004460D460AD8FF2908D0FFF7B9FF28B14C
:105E500029462046BDE83840FEF72CBD38BD38B590
:105E600004460D46FEF72EFDFF2810D0062804D864
:105E70004D2323FA00F0C30709D42046FFF7A0FF03
:105E800028B129462046BDE83840FEF723BD38BD7D
:105E90000D2810B504469CBF0E34A4B22046FFF76F
:105EA0008FFF50B103212046FEF7FCFC032804D1EC
:105EB0002046BDE81040FEF715BD002010BD70471C
:105EC00038B50023202543801423044603808560D1
:105ED00005610649284600F033F804496060284609
:105EE00000F02EF8E060204638BD00BF446C0D0085
:105EF00030B50E4D2978BFF35B8F11F0010487B0E8
:105F000011D12846FEF7CFF868B101A8FFF7D8FFF6
:105F100001AA21460648FFF7B5FB2846FEF7C8F858
:105F2000044800F005FC024807B030BD3CE7032000
:105F300040E70320BF5E0D00FEF7B1B8FEF7ABB837
:105F4000FEF7ABB881F0004102E000BF83F00043F0
:105F500030B54FEA41044FEA430594EA050F08BF04
:105F600090EA020F1FBF54EA000C55EA020C7FEAC8
:105F7000645C7FEA655C00F0E2804FEA5454D4EB45
:105F80005555B8BF6D420CDD2C4480EA020281EA0F
:105F9000030382EA000083EA010180EA020281EA47
:105FA0000303362D88BF30BD11F0004F4FEA013199
:105FB0004FF4801C4CEA113102D0404261EB4101A8
:105FC00013F0004F4FEA03334CEA133302D052422E
:105FD00063EB430394EA050F00F0A780A4F10104EA
:105FE000D5F1200E0DDB02FA0EFC22FA05F2801824
:105FF00041F1000103FA0EF2801843FA05F359410A
:106000000EE0A5F120050EF1200E012A03FA0EFC88
:1060100028BF4CF0020C43FA05F3C01851EBE371B2
:1060200001F0004507D54FF0000EDCF1000C7EEBCF
:1060300000006EEB0101B1F5801F1BD3B1F5001F0D
:106040000CD349085FEA30004FEA3C0C04F101042C
:106050004FEA445212F5800F80F09A80BCF1004F55
:1060600008BF5FEA500C50F1000041EB045141EAD7
:10607000050130BD5FEA4C0C404141EB0101013CA0
:1060800028BFB1F5801FE9D291F0000F04BF01468F
:106090000020B1FA81F308BF2033A3F10B03B3F161
:1060A00020020CDA0C3208DD02F1140CC2F10C02F1
:1060B00001FA0CF021FA02F10CE002F11402D8BF4F
:1060C000C2F1200C01FA02F120FA0CFCDCBF41EA1B
:1060D0000C019040E41AA2BF01EB0451294330BDEA
:1060E0006FEA04041F3C1CDA0C340EDC04F11404C7
:1060F000C4F1200220FA04F001FA02F340EA03009E
:1061000021FA04F345EA030130BDC4F10C04C4F1E3
:10611000200220FA02F001FA04F340EA03002946C3
:1061200030BD21FA04F0294630BD94F0000F83F40D
:10613000801306BF81F480110134013D4EE77FEAF0
:10614000645C18BF7FEA655C29D094EA050F08BF3C
:1061500090EA020F05D054EA000C04BF194610461D
:1061600030BD91EA030F1EBF0021002030BD5FEA61
:10617000545C05D14000494128BF41F0004130BD89
:1061800014F580043CBF01F5801130BD01F00045DD
:1061900045F0FE4141F470014FF0000030BD7FEA50
:1061A000645C1ABF194610467FEA655C1CBF0B464B
:1061B000024650EA013406BF52EA033591EA030F62
:1061C00041F4002130BD00BF90F0000F04BF00215A
:1061D000704730B54FF4806404F132044FF000058D
:1061E0004FF0000150E700BF90F0000F04BF002106
:1061F000704730B54FF4806404F1320410F000456C
:1062000048BF40424FF000013EE700BF42004FEA66
:10621000E2014FEA31014FEA02701FBF12F07F43E3
:1062200093F07F4F81F06051704732F07F4208BF9A
:10623000704793F07F4F04BF41F40021704730B5A1
:106240004FF4607401F0004521F000411CE700BFED
:1062500050EA010208BF704730B54FF000050AE070
:1062600050EA010208BF704730B511F0004502D571
:10627000404261EB41014FF4806404F132045FEA73
:10628000915C3FF4D8AE4FF003025FEADC0C18BF1C
:1062900003325FEADC0C18BF033202EBDC02C2F10E
:1062A000200300FA03FC20FA02F001FA03FE40EAA0
:1062B0000E0021FA02F11444BDE600BF70B54FF0A4
:1062C000FF0C4CF4E06C1CEA11541DBF1CEA135582
:1062D00094EA0C0F95EA0C0F00F0DEF82C4481EAEA
:1062E000030621EA4C5123EA4C5350EA013518BF0A
:1062F00052EA033541F4801143F4801338D0A0FBF7
:1063000002CE4FF00005E1FB02E506F00042E0FBA3
:1063100003E54FF00006E1FB03569CF0000F18BFA9
:106320004EF0010EA4F1FF04B6F5007F64F5407451
:1063300004D25FEA4E0E6D4146EB060642EAC621E4
:1063400041EA55514FEAC52040EA5E504FEACE2E51
:10635000B4F1FD0C88BFBCF5E06F1ED8BEF1004F54
:1063600008BF5FEA500E50F1000041EB045170BDD0
:1063700006F0004646EA010140EA020081EA030114
:10638000B4EB5C04C2BFD4EB0C0541EA045170BD10
:1063900041F480114FF0000E013C00F3AB8014F18A
:1063A000360FDEBF002001F0004170BDC4F10004D3
:1063B000203C35DA0C341BDC04F11404C4F1200554
:1063C00000FA05F320FA04F001FA05F240EA0200AF
:1063D00001F0004221F0004110EBD37021FA04F6E5
:1063E00042EB06015EEA430E08BF20EAD37070BD9F
:1063F000C4F10C04C4F1200500FA04F320FA05F0FE
:1064000001FA04F240EA020001F0004110EBD370FF
:1064100041F100015EEA430E08BF20EAD37070BD6F
:10642000C4F1200500FA05F24EEA020E20FA04F348
:1064300001FA05F243EA020321FA04F001F00041F7
:1064400021FA04F220EA020000EBD3705EEA430E68
:1064500008BF20EAD37070BD94F0000F0FD101F097
:106460000046400041EB010111F4801F08BF013CD0
:10647000F7D041EA060195F0000F18BF704703F00E
:106480000046520043EB030313F4801F08BF013D95
:10649000F7D043EA0603704794EA0C0F0CEA135551
:1064A00018BF95EA0C0F0CD050EA410618BF52EA0B
:1064B0004306D1D181EA030101F000414FF0000011
:1064C00070BD50EA410606BF1046194652EA43061F
:1064D00019D094EA0C0F02D150EA013613D195EA93
:1064E0000C0F05D152EA03361CBF104619460AD1DB
:1064F00081EA030101F0004141F0FE4141F47001E5
:106500004FF0000070BD41F0FE4141F4780170BDD4
:1065100070B54FF0FF0C4CF4E06C1CEA11541DBF39
:106520001CEA135594EA0C0F95EA0C0F00F0A7F83B
:10653000A4EB050481EA030E52EA03354FEA013168
:1065400000F088804FEA03334FF0805545EA13137B
:1065500043EA12634FEA022245EA111545EA106543
:106560004FEA00260EF000419D4208BF964244F1DA
:10657000FD0404F5407402D25B084FEA3202B61AF9
:1065800065EB03055B084FEA32024FF480104FF4CD
:10659000002CB6EB020E75EB030E22BFB61A754641
:1065A00040EA0C005B084FEA3202B6EB020E75EBD4
:1065B000030E22BFB61A754640EA5C005B084FEA3C
:1065C0003202B6EB020E75EB030E22BFB61A754609
:1065D00040EA9C005B084FEA3202B6EB020E75EB14
:1065E000030E22BFB61A754640EADC0055EA060ED5
:1065F00018D04FEA051545EA16754FEA06164FEA18
:10660000C30343EA52734FEAC2025FEA1C1CC0D1C3
:1066100011F4801F0BD141EA00014FF000004FF050
:10662000004CB6E711F4801F04BF01430020B4F111
:10663000FD0C88BFBCF5E06F3FF6AFAEB5EB030CC9
:1066400004BFB6EB020C5FEA500C50F1000041EBC6
:10665000045170BD0EF0004E4EEA113114EB5C0493
:10666000C2BFD4EB0C0541EA045170BD41F4801166
:106670004FF0000E013C90E645EA060E8DE60CEA6E
:10668000135594EA0C0F08BF95EA0C0F3FF43BAF8B
:1066900094EA0C0F0AD150EA01347FF434AF95EA42
:1066A0000C0F7FF425AF104619462CE795EA0C0F26
:1066B00006D152EA03353FF4FDAE1046194622E7F3
:1066C00050EA410618BF52EA43067FF4C5AE50EACD
:1066D00041047FF40DAF52EA43057FF4EBAE12E7BD
:1066E0004FEA410212F5001215D211D56FF47873FA
:1066F000B3EB625212D94FEAC12343F0004343EA9D
:10670000505311F0004F23FA02F018BF4042704777
:106710004FF00000704750EA013005D111F0004001
:1067200008BF6FF0004070474FF00000704700BF97
:10673000002301461A46184600F0F2B80A44914276
:1067400000F1FF3300D1704710B511F8014B03F889
:10675000014F9142F9D110BD884210B501EB0204FE
:1067600002D98442234607D8431EA14208D011F81B
:10677000012B03F8012FF8E7024401468A4200D1B9
:1067800010BD13F8014D02F8014DF7E7024403462E
:10679000934200D1704703F8011BF9E738B50D4B60
:1067A0001D68AB6B04467BB91820FEF797FA0A4ABE
:1067B0000A4BA863C0E90023094B83600B23838144
:1067C00001220023C0E90423AB6B00221C615A6143
:1067D00038BD00BFECE403200E33CDAB34126DE6C0
:1067E000ECDE050010F8012B11F8013B012A28BF4F
:1067F0009A42F7D0D01A7047034611F8012B03F8DC
:10680000012B002AF9D17047034613F8012B002A07
:10681000FBD1181A013870472DE9F0473A4E8646E9
:106820008C4660461CF8014BA55D15F00805F8D1B3
:106830002D2C33D19CF800404FF0010800F1020CE0
:10684000002B5CD0102B0CD1302C0AD19CF800000E
:1068500000F0DF0058284DD19CF8014010230CF1C6
:10686000020C08F10047013F0026B7FBF3F9304660
:1068700003FB197AA4F13005092D18D82C46A34240
:1068800024DD751C07D081451DD301D1A2451ADB3B
:1068900000FB034001261CF8014BEBE72B2C08BF43
:1068A0009CF80040A84608BF00F1020CC8E7A4F11C
:1068B0004105192D01D8373CE1E7A4F16105192DF7
:1068C00004D8573CDBE74FF0FF36E4E7731C06D1F2
:1068D0002223CEF80030384642B9BDE8F087B8F13F
:1068E000000F00D04042002AF7D00EB10CF1FF316A
:1068F0001160F2E73024002BB3D10823B1E7302C2C
:10690000A4D00A23ADE700BF466C0D0013460A462B
:10691000014602480068FFF77FBF00BFECE4032098
:106920002DE9F843DFF8B8800646D8F800001F4686
:106930000D46914600F056F8254B1C6834B9254C9D
:106940001C60254B13B11B68C4F8883063681F2B8B
:1069500007DDD8F8000000F047F84FF0FF30BDE841
:10696000F8834EB3D4F8880088B91C4B23B9D8F803
:10697000000000F038F8F0E74FF48470FEF7AEF94D
:106980000028F4D00023C0E94033C4F888006368CD
:1069900040F8239001229A4000EB8301D0F80031A7
:1069A0001343022EC0F80031C1F8807002BFD0F846
:1069B00004311A43C0F804216368D8F800005A1C57
:1069C0000233626044F8235000F00EF80020C6E75E
:1069D000E0E7032054E7032000000000DD4C0D0039
:1069E00050E50320704770477047000021400D00BC
:1069F0005D400D0085400D0089400D000000000045
:106A00007B7D007B2274223A25642C2270223A2559
:106A1000642C2273223A25642C2268223A25647D54
:106A2000006672657175656E637900736D6172746D
:106A30006C69676874006C6564007B2274223A2577
:106A4000642C226C69676874223A25732C226C6569
:106A500064223A25732C226374223A256C647D00EB
:106A60007B224C30223A25642C224C31223A256478
:106A70002C2262223A25642C2273223A25642C228D
:106A80006D223A25642C224D223A25647D006F6EDA
:106A9000006175746F006272696768746E65737304
:106AA000006D696E006D617800000000000000005C
:106AB000000000008B4D0D00814D0D00774D0D0045
:106AC0006D4D0D00614D0D00554D0D0065570D00CC
:106AD0006D570D00494D0D00414D0D00374D0D0016
:106AE0002D4D0D009D570D006170700025592D250D
:106AF0006D2D25645425483A254D3A2553257A00B5
:106B000061736374696D650000000000000000009F
:106B10005D530D004D530D004F530D00000000005C
:106B20000000000035540D009D540D0073540D00FD
:106B3000F94F0D0065540D0037540D0047540D00FA
:106B400097540D0057540D002F540D000000000005
:106B50000000000039550D00A7550D007F550D00B0
:106B6000F94F0D004F550D006B550D005D550D0093
:106B700079550D003B550D0041550D0000000000FA
:106B8000000000002D560D0077560D004F560D00E9
:106B90002F560D0057560D005F560D0067560D001D
:106BA0006F560D00000000000000000007570D00A8
:106BB000FD560D00F3560D00A9560D00E7560D00C9
:106BC000DB560D0065570D006D570D00CF560D00BB
:106BD000C7560D00BD560D00B3560D009D570D0054
:106BE000000000000000000025570D002F570D0089
:106BF00039570D0043570D004D570D0059570D00E3
:106C000065570D006D570D0075570D0081570D002C
:106C100089570D0093570D009D570D00302E300001
:106C200066616C7365000000000000000000000059
:106C3000B3580D00B9580D00CF580D00C7580D00BE
:106C4000B5580D00000020202020202020202028E2
:106C50002828282820202020202020202020202014
:106C6000202020202020881010101010101010104C
:106C7000101010101010040404040404040404048C
:106C8000101010101010104141414141410101010B
:106C900001010101010101010101010101010101E4
:106CA00001101010101010424242424242020202F1
:106CB00002020202020202020202020202020202B4
:106CC0000210101010200000000000000000000062
:106CD00000000000000000000000000000000000B4
:106CE00000000000000000000000000000000000A4
:106CF0000000000000000000000000000000000094
:106D00000000000000000000000000000000000083
:106D10000000000000000000000000000000000073
:106D20000000000000000000000000000000000063
:106D30000000000000000000000000000000000053
:106D40000000000000000000F1440D00954D0D0012
:106D5000BD4D0D00E94F0D0005510D0089510D008D
:106D600009520D0011570D0071580D000000000070
:046D7000000000001F
:106D7400006B0D00F0E403200000000000000000A0
:106D840000000000000000000000000000000000FF
:106D940000000000000000000000000000000000EF
:106DA40000000000000000000000000000000000DF
:106DB40000000000000000000000000000000000CF
:106DC40000000000000000000000000000000000BF
:0C6DD4000000000000000000E5E70320C4
:106DE000FFFFFFFF00000102030405060708090A70
:106DF0000B0C0D0E0F101112131415161718191A6B
:086E00001B1C1D1E1F202800B1
:046E08007856341272
:04000003D0004020C9
:00000001FF
