:02000002D0002C
:1040000000400D007C900D00000006000C00050132
:0840100004019A080000000001
:04401800E88B0D0024
:1040200009480A49884208B505D0094A824202D0A7
:10403000121A04F081FC0748074A0021121A04F002
:10404000A3FC014808BD00BFA0E40320E48F0D00DD
:1040500010E5032010E50320EDE7032070B5074EBF
:10406000074C01F02FFEA41BA4080025A54200D197
:1040700070BD56F8043B98470135F7E7B48F0D0043
:10408000DC8F0D0000F0FCB808B500F0D3F9BDE8F6
:10409000084001F0CFBD01F0FDBA01F0FBBA01F01C
:1040A00001BB01F0FFBA0078B0FA80F04009704718
:1040B000012303707047000038B500F11005044675
:1040C0000449284601F0BBFB0349284601F00AFCDD
:1040D000204638BDF28C0D00FC8B0D0010B586B06B
:1040E000C368019303780093D0E90123044607498C
:1040F00002A801F035FC02A904F1100001F0EAFB6E
:1041000002A801F051FB06B010BD00BFFF8B0D00EF
:1041100038B50278044632B1012A12D02046BDE8F3
:104120003840FFF7DBBF4368816801338B4243604F
:10413000F4DB42600121072002F083FB012323709E
:10414000ECE743688268013393424360E6DB002575
:1041500045602946072002F074FB2570DEE738B57C
:10416000046805467CB16368013B63605BB9236802
:1041700020469B689847A368013BA3601BB923684E
:104180002046DB689847284638BD13B50B460446E1
:104190001A685B6809690092019313B15A68013289
:1041A0005A606A46204602F0BFF801A8FFF7D7FF21
:1041B000204602B010BD000070B50B468CB01A68E6
:1041C0005B68896802920446039313B15A6801320E
:1041D0005A6002AA06A802F04FFA03A8FFF7BFFF31
:1041E0001F4E06A802F060FA002833D0069B009309
:1041F000079B0999019313B15A6801325A606A46C4
:1042000002A802F015FA01A8FFF7A9FF04983146A9
:1042100004F0E6FB054603A8FFF7A1FF002DE0D15F
:1042200006A902A8FFF7B1FF02A802F0F1F8E060CA
:1042300003A8FFF794FF06A902A8FFF7A6FF02A8AC
:1042400002F0E6F80A235843A06003A8FFF787FFAF
:104250006560C6E707A8FFF782FF0CB070BD00BF1E
:104260001D8C0D000EB403B503AB002153F8042BD5
:10427000019301F004FC02B05DF804EB03B0704759
:1042800008B50121072002F0CBFA012001F077FCEC
:10429000FF221146104601F082FC01F015FE4FF49A
:1042A000165101F005FE024B00221A6008BD00BF46
:1042B00010E503200B68036013B15A6801325A609D
:1042C00070470000F0B597B001F0FEFD03681B6970
:1042D0009847002840F3A180514908A801F0AFFA9F
:1042E00001F0F2FD03681B69984780B101F0ECFD15
:1042F00003685B699847C1B210A801F005FB10A9DB
:1043000008A801F029FB10A801F04EFAE8E7089987
:104310000191084604F076FB0199424E424F434D0D
:10432000024605A802F0E8F9079C059B0C9306A934
:104330000DA8FFF7BFFF0CAA214610A802F09CF9B8
:104340000DA8FFF70CFF10A802F0AEF900285BD013
:10435000139C109B039311A904A8FFF7ABFF214600
:1043600003AA0CA802F064F904A8FFF7F8FE0E985F
:10437000314604F035FB04460DA8FFF7F0FEB4B952
:10438000149C109B039311A904A8FFF793FF2146E7
:1043900003AA0CA801F0C8FF04A8FFF7E0FE244818
:1043A0000CA900F0F1FD0DA8FFF7D9FECBE7139C97
:1043B000109B039311A904A8FFF77CFF214603AAD1
:1043C0000CA802F035F904A8FFF7C9FE0E9839468B
:1043D00004F006FB04460DA8FFF7C1FE002CB2D185
:1043E000149C109B039311A904A8FFF763FF2146B7
:1043F00003AA0CA801F098FF04A8FFF7B0FE0CA9CF
:104400002846FFF7D9FECEE711A8FFF7A8FE06A8B9
:10441000FFF7A5FE08A801F0C7F917B0F0BD00BF6F
:10442000F28C0D00278C0D00328C0D006CE5032002
:1044300014E50320F0B58DB000F038FF0446FFF717
:1044400041FF2248224D00F053FD2248FFF760FE55
:10445000214800F07FFE00F029FF29680A2291FB25
:10446000F2F302FB1313064623BB2B6001F02CFD75
:10447000074601F067FB1949039004A801F01FFAF1
:10448000049B1749029308A801F019FA361B0899F2
:104490000091DDE90232134901963846FFF7E2FE4A
:1044A00008A801F081F904A801F07EF901F00CFDE3
:1044B00001F0B1FA2B6801332B6000F0F7FE643491
:1044C000201A01D001F058FB0DB0F0BD14E5032017
:1044D00010E503206CE5032044E5032034E50320C8
:1044E0007CE50320368C0D0008B50021012001F089
:1044F0002DF8054800F028FC0448FFF7DDFDBDE875
:104500000840034800F0D6BD14E503206CE5032005
:1045100044E5032010B503682F2B044604D9074A4D
:1045200000210A2000F0E2FF23681F2B83BF03F065
:104530001F03034823604FF0A04010BD9D520D00A3
:104540000003005007B5019001A8FFF7E3FF019AAF
:1045500001239340C0F8083503B05DF804FB07B5AC
:10456000019001A8FFF7D6FF019BD0F81005D840B5
:1045700000F0010003B05DF804FB10B503720123E5
:104580008171C271037410BD2DE9F04105461E4CC6
:104590008079DFF87880002102F042F9AE79237843
:1045A000BFF35B8F13F0010F0AD12046FFF77BFDAD
:1045B00030B100F02BFEC8F800002046FFF778FD70
:1045C000D8F8003036019F5D2378BFF35B8FDB079F
:1045D0004FEA47170AD40C48FFF765FD30B100F0E9
:1045E00015FEC8F800000848FFF762FDD8F8003053
:1045F00033445B7803F01F0343EA0700FFF7A2FF91
:104600000023EB60BDE8F0818CE5032090E50320FA
:1046100010B52DED028B10EE104A03F0F5FD41ECC4
:10462000180B204603F002FEB0EE481AF0EE681AAE
:10463000BDEC028B41EC100BBDE8104002F074B9E8
:104640002DE9F84310EE100A2DED028BB0EE608AD2
:10465000F0EE408A03F0EAFD044618EE100A0D461B
:1046600003F0E4FD54A3D3E9002306460F46204699
:10467000294603F033FE52A3D3E9002303F076FC6E
:1046800051A3D3E90023804689463046394603F0DA
:1046900025FE02460B464046494603F069FC4CA302
:1046A000D3E90023804689462046294603F016FEBA
:1046B00032463B4603F012FE02460B464046494650
:1046C00003F056FCB0EE680A804602208946FFF7E8
:1046D0009FFF41A3D3E9002351EC100B03F0FEFD33
:1046E00042464B4603F044FCB0EE480A80460220A6
:1046F0008946FFF78DFF3AA3D3E9002351EC100B55
:1047000003F0ECFD42464B4603F032FCB0EE680A83
:10471000804602208946FFF77BFF33A3D3E90023BD
:1047200051EC100B03F0DAFD32463B4603F0D6FDA8
:1047300042464B4603F01CFCB0EE480A06460220F7
:104740000F46FFF765FF59EC108B29A3D3E900232F
:104750002046294603F0C2FD42464B4603F0BEFD0B
:1047600032463B4603F004FCB0EE680A04460220E1
:104770000D46FFF74DFF022059EC108BB0EE480AB2
:10478000FFF746FF57EC106B1BA3D3E9002340460D
:10479000494603F0A3FD32463B4603F09FFD224607
:1047A0002B4603F0E5FB04F071F8BDEC028B00EE44
:1047B000100ABDE8F88300BFECD8CE186264004050
:1047C0008D976E1283304540CD495AB762492440D7
:1047D000F847C607C9C4CCBFCC169C03FC017CBFFC
:1047E000248CD100FF10ACBFE5DC6087B521543FBD
:1047F000DA303301F9F14B3F01BDD3117EB1C0BEB8
:104800002DE9F84310EE100A2DED028BB0EE608A10
:1048100003F00CFD9FED280A88EE000A04460D46C1
:1048200002F038FA20A3D3E900232046294610EEEF
:10483000106A03F053FD1EA3D3E900238046894686
:104840002046294603F094FB02460B464046494663
:1048500003F06EFE044630460D4603F0E7FC0246C8
:104860000B462046294603F083FB11A3D3E900231E
:1048700006460F4603F032FD324604460D463B46DF
:1048800009A1D1E9000103F071FB02460B46204665
:10489000294603F04DFE03F0F9FFBDEC028B00EE5C
:1048A000100ABDE8F88300BF4C37894160453140AC
:1048B0006666666666B66D400000C8422DE9F04F38
:1048C000044685B000F0F2FCE368834284BF002315
:1048D000E360237C2BB9E368C01AB0F5FA6FC0F02F
:1048E00060810025257400F0E1FCB04E2560257143
:1048F000E060A7793378AE4DBFF35B8F13F0010F03
:1049000009D13046FFF7CFFB28B100F07FFC2860CB
:104910003046FFF7CDFB2B683F0113F80780337853
:10492000BFF35B8FD9074FEA481809D49F48FFF7B8
:10493000BAFB28B100F06AFC28609C48FFF7B8FB7E
:104940002B681F44787800F01F0040EA0800FFF74A
:10495000F9FDFA2001F010F9A079012101F060FFC2
:10496000A7793378BFF35B8FDA0709D48F48FFF755
:104970009AFB28B100F04AFC28608C48FFF798FBAE
:104980002B683F01DB5D4FEA43183378BFF35B8F41
:10499000DB0709D48548FFF786FB28B100F036FC19
:1049A00028608248FFF784FB2B681F4403A87B78AC
:1049B00003F01F0343EA08030393FFF7ABFD039AD9
:1049C00001239340C0F80C35142001F0D5F801F014
:1049D000A1FAA7793378BFF35B8FD80709D473485E
:1049E000FFF761FB28B100F011FC28606F48FFF76A
:1049F0005FFB2B683F0113F807803378BFF35B8FB1
:104A0000D9074FEA481809D46848FFF74CFB28B18A
:104A100000F0FCFB28606548FFF74AFB2B681F4449
:104A2000787800F01F0040EA0800FFF78BFD28208F
:104A300000F034FCA079DFF87481002101F0F0FE71
:104A400000270123BA4600934FF0000994F806B0FE
:104A50003378BFF35B8FDA0709D44046FFF723FBB7
:104A600028B100F0D3FB28604046FFF721FB2B68FC
:104A70004FEA0B1B13F80B305B0101933378BFF344
:104A80005B8FDB0709D44046FFF70DFB28B100F030
:104A9000BDFB28604046FFF70BFB2B685B4493F897
:104AA00001B0019B0BF01F0B4BEA030B5846FFF7BD
:104AB00056FD5846FFF753FD009B834209D109F18B
:104AC00001095FFA89F9012000F0E8FBB9F1FF0F55
:104AD000BCD194F806B03378BFF35B8FD80709D404
:104AE0004046FFF7E0FA28B100F090FB286040460E
:104AF000FFF7DEFA2B684FEA0B1B13F80B305B0154
:104B000000933378BFF35B8FD90709D44046FFF792
:104B1000CAFA28B100F07AFB28604046FFF7C8FACD
:104B20002B685B4493F801B0009B0BF01F0B4BEA22
:104B3000030B5846FFF713FD5846FFF710FDB9F178
:104B4000FF0FC3B2009318D0032F11D9FA070FD467
:104B50004FEADA020AF1010AA35C5B00DBB2A3545C
:104B6000217A49453CBF43F00103A3545FFA8AFA16
:104B70000137FFB2552F7FF467AF01F0CDF9BAF1DD
:104B8000270F10D9637820781844A3781844E37865
:104B900018442379C0B2C31A5842584105B0BDE841
:104BA000F08F0120FAE70020F8E700BF8CE5032032
:104BB00090E5032010B50446FFF780FE20B3E379AB
:104BC0000B2B1BD0153B012B1ED8A378DFED106AF1
:104BD00003F07F0207EE102AE27807EE902AB8EE83
:104BE000C77AF8EEE77A1B06E7EE267AB2EE047A89
:104BF00087EE870A07D5B1EE400A04E0A37800EEFD
:104C0000103AB8EE400A10BD9FED020AFBE700BF64
:104C1000000080430000C07FFFF7CCBF08B5FFF75E
:104C2000C9FFF2EE027A20EE270AF1EE047A80EE56
:104C3000277A9FED020A37EE000A08BD0000004205
:104C400008B5FFF7B7FF10EE100A03F0EFFA06A35E
:104C5000D3E9002303F08CF903F018FE00EE100AEC
:104C600008BD00BFAFF300806666666666127140DD
:104C700010B50446FFF722FEF0B1E3790B2B15D0F7
:104C8000153B012B18D82378DFED0D6A07EE103A9B
:104C9000637807EE903AB8EE477AF8EEE77AE7EEF7
:104CA000267AB2EE047A87EE870A10BD237800EEEA
:104CB000103AB8EE400AF8E79FED020AF5E700BFA8
:104CC000000080430000C07FFFF7D2BF10B52DED7C
:104CD000048B0446FFF76EFF2046F2EE028AB0EE28
:104CE000408AFFF7C5FF28EE288AB1EE049AF0EE5D
:104CF000400A88EE090A20469FED078A30EE080A2E
:104D0000FFF79EFC30EE480A20EE090A80EE280AE2
:104D1000BDEC048B10BD00BF0000004210B52DEDAE
:104D2000028B0446FFF746FF2046B0EE408AFFF7AD
:104D30009FFFF0EE400AB0EE480ABDEC028B204621
:104D4000BDE81040FFF75CBD38B500F12005044612
:104D50000C49284600F073FD40F2011323808023A4
:104D6000636040F6C4114FF4FA73C4E90313284694
:104D7000054900F0B7FD054BE361C4E90533204662
:104D800038BD00BFF28C0D00FC8B0D006179FEFF79
:104D900008B500F025FF28B1BDE80840012100203A
:104DA00000F010BF08BD000038B5134B994204460F
:104DB00008460AD1656800F013FF854216D02079B5
:104DC0000121BDE8384000F0FDBE03F01DFA08A344
:104DD000D3E9002303F082FA084B002203F0A8FB7A
:104DE00003F02CFD01216060C0B2EAE738BD00BFCE
:104DF0000000000000E06F406179FEFF00005940B4
:104E000010B50446132001F035FDA06010BD000070
:104E10002DE9F0410446FFF7F3FF2569A068D4F8B7
:104E20000C80A842B8BF28468045D4BFC5EB080017
:104E3000C5EB000003F0E8F90646A8EB05000F46B5
:104E400003F0E2F902460B463046394603F070FBA8
:104E500002460B4600200A4903F088F806A3D3E96E
:104E6000002303F03BFA03F0E9FC01216060BDE898
:104E7000F041C0B200F0A6BE0000000000E06F40AC
:104E80000000F03F0000000070B588B0C3684678AD
:104E9000057803930369029383680193044640688D
:104EA00003F0B2F910A3D3E9002303F041FB0C4B4C
:104EB000002203F013FA03F0C1FC33462A460090A7
:104EC000084904A800F04CFD04A904F1200000F0FA
:104ED00001FD04A800F068FC08B070BDAFF30080CD
:104EE000000059405C8C0D000000000000E06F40A5
:104EF00038B50578044655B1012D13D0174BE36141
:104F0000C4E905332046BDE83840FFF7BDBFFFF7D1
:104F10003FFF6369114A9342F0D0002BEED001238A
:104F20002380EBE7437833B1012B0FD06369002B6B
:104F3000E4D12370E2E7C169FFF736FFA369074AAE
:104F40009342F3D0002BF1D06570EFE7FFF760FFDD
:104F5000A369002BEAD16370E8E700BF6179FEFF27
:104F600037B5CD6851F8043B0093044601A8FFF71C
:104F7000A1F96A462946204601F05AFB01A8FFF72D
:104F8000EEF8204603B030BD2DE9F0418AB08D68BF
:104F900051F8043B0093044601A8FFF78BF96A46D9
:104FA000294604A801F068FB01A8FFF7D8F83C4E99
:104FB0003C4FDFF8FC8004A801F076FB002869D0A4
:104FC00004A96846FFF7CCFF3146029803F008FDBC
:104FD000054601A8FFF7C3F804A968464DB9FFF7D5
:104FE000D4F8684601F0D6F9606101A8FFF7B7F878
:104FF000E1E7FFF7B5FF3946029803F0F1FC0546FB
:1050000001A8FFF7ACF804A9684635B9FFF7BDF869
:10501000684601F0BFF9A061E7E7FFF7A1FF41464D
:10502000029803F0DDFC054601A8FFF798F804A9F3
:10503000684635B9FFF7A9F8684601F0E9F9E0617B
:10504000D3E7FFF78DFF1849029803F0C9FC054626
:1050500001A8FFF784F804A9684635B9FFF795F869
:10506000684601F0D5F92061BFE7FFF779FF0F49E6
:10507000029803F0B5FC054601A8FFF770F8002D73
:1050800099D104A96846FFF780F8684601F0C0F995
:10509000E060AAE705A8FFF762F80AB0BDE8F08172
:1050A0008A8C0D008D8C0D009D8C0D00A18C0D0047
:1050B000928C0D0010B50A49044600F0C0FB002395
:1050C000084923616361A361E3612362636220464F
:1050D00000F008FC0448FFF757FA204610BD00BF57
:1050E000F28C0D00FC8B0D0094E5032010B50446F6
:1050F00090B0406903F09AF802460B46606ACDE929
:105100000A2303F093F8CDE90801206A03F08EF832
:10511000CDE90601E06903F089F8CDE90401A06951
:1051200003F084F8CDE90201206903F07FF8DDE99E
:105130000A23CDE900010CA8054900F011FC0CA9D7
:10514000204600F0C7FB0CA800F02EFB10B010BDED
:10515000A58C0D0010B504461E48FFF7B5FD1D488F
:1051600084ED060AFFF758FD1A4884ED040AFFF79C
:1051700055FDD4ED067A84ED050AF4EE677AF1EE7A
:1051800010FA0BD6D4ED047AF4EE677AF1EE10FA49
:1051900004D6B4EE400AF1EE10FA06D700F094FE01
:1051A000BDE810400C4900F042BC0A48FFF78EFDF4
:1051B000084884ED070AFFF7B1FD064884ED080AA8
:1051C000FFF73EFD204684ED090ABDE81040FFF7D9
:1051D0008DBF00BF94E50320D38C0D000248062349
:1051E0000B220221FFF7C9B994E5032008B5024B51
:1051F0001B689B68019308BD6802030008B5024B59
:105200001B68DB68019308BD6802030008B5024B08
:105210001B681B68019308BD2C02030008B5024BF4
:105220001B685B68019308BD2C02030008B5024BA4
:105230001B689B68019308BD2C02030008B5024B54
:105240001B68DB68019308BD2C02030008B5024B04
:105250001B681B69019308BD2C02030008B5024BB3
:105260001B681B6A019308BD2C02030008B5024BA2
:105270001B685B6A019308BD2C02030008B5024B52
:105280001B681B6B019308BD2C02030008B5024B81
:105290001B685B68019308BD1802030008B5024B48
:1052A0001B68DB68019308BD1802030008B5024BB8
:1052B0001B685B69019308BD1802030008B5024B27
:1052C0001B689B6D019308BD1802030008B5024BD3
:1052D0001B685B6E019308BD1802030008B5024B02
:1052E0001B685B6C019308BD4802030008B5024BC4
:1052F0001B685B69019308BD6402030008B5024B9B
:105300001B681B68019308BD3C02030008B5024BF3
:105310001B68DB68019308BD3C02030008B5024B23
:105320001B681B69019308BD3C02030008B5024BD2
:105330001B685B69019308BD3C02030008B5024B82
:105340001B689B69019308BD3C02030008B5024B32
:105350001B68DB69019308BD3C02030008B5024BE2
:105360001B681B6A019308BD3C02030008B5024B91
:105370001B689B6A019308BD3C02030008B5024B01
:105380001B681B6A019308BD2802030008B5024B85
:105390001B685B6A019308BD2802030008B5024B35
:1053A0001B689B6A019308BD2802030008B5024BE5
:1053B0001B68DB6A019308BD2802030008B5024B95
:1053C0001B681B6B019308BD2802030008B5024B44
:1053D0001B685B6B019308BD2802030008B5024BF4
:1053E0001B681B6C019308BD2802030008B5024B23
:1053F0001B68DB69019308BD3002030008B5024B4E
:105400001B681B6A019308BD3002030008B5024BFC
:105410001B681B68019308BD4C02030008B5024BD2
:105420001B685B68019308BD4C02030008B5024B82
:105430001B681B69019308BD4C02030008B5024BB1
:105440001B685B69019308BD4C02030008B5024B61
:105450001B689B69019308BD4C02030008B5024B11
:105460001B68DB69019308BD4C02030008B5024BC1
:105470001B681B6A019308BD4C02030008B5024B70
:105480001B685B68019308BD6002030008B5024B0E
:105490001B689B68019308BD6002030008B5024BBE
:1054A0001B68DB68019308BD6002030008B5024B6E
:1054B0001B681B69019308BD6002030008B5024B1D
:1054C0001B689B69019308BD6002030008B5024B8D
:1054D0001B68DB69019308BD6002030008B5024B3D
:1054E0001B68DB6A019308BD6002030008B5024B2C
:1054F0001B685B6B019308BD6002030008B5024B9B
:105500001B689B6B019308BD6002030008B5024B4A
:105510001B68DB6B019308BD6002030008B5024BFA
:105520001B681B68019308BD2002030008B5024BED
:105530001B685B68019308BD2002030008B5024B9D
:105540001B685B69019308BD2002030008B5024B8C
:105550001B68DB6A019308BD2002030008B5024BFB
:105560001B689B6D019308BD2002030008B5034B27
:105570001B68D3F88830019308BD000020020300A7
:1055800008B5034B1B68D3F89430019308BD0000A5
:105590002002030008B5024B1B685B68019308BD3D
:1055A0004002030008B5024B1B689B68019308BDCD
:1055B0004002030008B5024B1B68DB68019308BD7D
:1055C0004002030008B5024B1B681B69019308BD2C
:1055D0004002030008B5024B1B685B69019308BDDC
:1055E0004002030008B5024B1B689B69019308BD8C
:1055F0004002030008B5024B1B68DB69019308BD3C
:105600004002030008B5024B1B681B6A019308BDEA
:105610004002030008B5024B1B681B6B019308BDD9
:105620004002030008B5024B1B685B6B019308BD89
:105630004002030008B5024B1B681B6C019308BDB8
:105640004002030008B5024B1B685B6C019308BD68
:105650004002030008B5024B1B689B68019308BD1C
:105660004402030008B5024B1B685B69019308BD47
:105670004402030008B5024B1B681B6B019308BD75
:105680004402030008B5024B1B68DB6B019308BDA5
:105690004402030008B5024B1B681B68019308BD58
:1056A0001C02030008B5024B1B685B68019308BD30
:1056B0001C02030008B5024B1B689B68019308BDE0
:1056C0001C02030008B5024B1B685B6A019308BD0E
:1056D0001C02030008B5024B1B68DB6B019308BD7D
:1056E0001C02030008B5024B1B685B6C019308BDEC
:1056F0001C020300002240681146FFF783BF00220E
:1057000040681146FFF78EBF40680022FFF782BF56
:105710004068002281F00101FFF76CBF0023406860
:105720001A461946FFF75EBF002340681A4619461D
:10573000FFF750BF002240681146FFF743BF002229
:1057400040681146FFF72EBF406800220221FFF794
:1057500031BF002340681A46FFF71CBF024B0322EB
:105760005A60024A1A607047A8E50320FC8C0D00BD
:1057700010B5044608462170FFF738FE0023636029
:10578000204610BD054B02221A60054B054A9A605F
:105790000020186098809871FFF7C8BEBCE5032010
:1057A000B0E503200000FFFF10B504460068FFF7D6
:1057B00079FF204610BD10B50446006808B1FFF718
:1057C00071FF0023C4E90133236010BD38B50446DE
:1057D0000D4600680131FFF76DFF10B1C4E9000507
:1057E000012038BD10B50368044623B143688B42DD
:1057F00001D3012010BD2046FFF7E8FF0028F9D0B3
:10580000A368002BF5D122681370F2E737B50D4677
:10581000114601920446FFF7E5FF019A28B9204698
:10582000FFF7C9FF204603B030BDA26029462068BB
:1058300003F082F82268A3680021D154F2E7002324
:1058400013B5C0E9003304468360037341B10846D1
:10585000019103F0D7F8019902462046FFF7D6FFE1
:10586000204602B010BD38B5054600680C4668B148
:105870006A688B689A4207D3096803F0BBF8A3688B
:10588000AB600023A36038BDFFF70CFF23682B60DB
:1058900063686B60A368AB600023C4E90033F1E781
:1058A000884210B5044605D00B682BB18A681946AA
:1058B000FFF7ACFF204610BDFFF77DFFFAE710B5FC
:1058C00000230446C0E9003383600373FFF7E8FF59
:1058D000204610BD884210B5044601D0FFF7C3FF33
:1058E000204610BD13B5044659B10846019103F096
:1058F00089F8019902462046FFF788FF204602B04A
:1059000010BDFFF758FFF9E713B500238DF8041019
:10591000C0E900338360037301A904468DF80530A4
:10592000FFF7E0FF204602B010BD70B505460E46F9
:1059300009B9002070BD6AB1846814442146FFF79C
:1059400051FF0028F5D02868AB683146184403F0B1
:1059500051F8AC600120EDE78A680968FFF7E5BF00
:105960000EB470B587B00BAD044655F8042B019208
:105970002B46052104A80395FFF7A4FE0B49064614
:105980002046FFF75CFF31462046FFF72BFF2068DB
:1059900030B1019A03952B46711CFFF793FEA0606E
:1059A000204607B0BDE8704003B07047F28C0D0090
:1059B000024800230360FFF791BC00BFC0E503204D
:1059C000F8B506460D468F180024BD420CD033684A
:1059D00015F8011B9B6830469847031E01DB1C44E9
:1059E000F3E7002C08BF1C462046F8BD13B504465B
:1059F000084659B1019103F005F823680199DB6865
:105A00000246204602B0BDE81040184702B010BD63
:105A100003689B68184738B50D210546FFF7F8FF66
:105A20000A2104462846FFF7F3FF204438BD38B565
:105A30000546FFF7DBFF04462846FFF7ECFF20444E
:105A400038BD30B58BB000238DF82430012A98BFC3
:105A50000A2209AC0D46B1FBF2F101FB125303F02F
:105A6000FF03092B94BF30333733DBB2AA4204F86B
:105A7000013DEFD92146FFF7B9FF0BB030BD2DE94D
:105A8000F04186B000AF05460E46381D142114467D
:105A90003B60FFF717FE13280ED8391D2846FFF785
:105AA000A5FF04461EB12846FFF7B5FF0444204673
:105AB0001837BD46BDE8F08100F1080323F0070365
:105AC000E846ADEB030D2246411C3B686846FFF7F4
:105AD000F9FD69462846FFF789FF0446C546E1E718
:105AE000014B024A1A607047C4E50320308D0D0057
:105AF00008B50020FFF7BEFD28B1FFF7B3FD80F029
:105B00000100C0B208BD0120FCE710B50020FFF77E
:105B1000D5FB0446A0B9FFF701FD012810D12046AE
:105B2000FFF71CFD60B9FFF7E3FF10B9FFF792FD27
:105B3000F9E7FFF7DDFFBDE810400020FFF7BEBB2F
:105B4000204610BD1FB5FFF7E0FF10220021684678
:105B500002F01AFF00216846FFF7B8FB009805B075
:105B60005DF804FB024B1A68024B1A60704700BFD5
:105B7000A0E40320C8E503200021FFF7DFBC10B537
:105B80000446FFF79BFC844208D01CB1BDE81040DE
:105B9000FFF77CBCBDE81040FFF780BC10BD70B5BE
:105BA00005460E461446FFF789FC50B144EA06202C
:105BB00040EA0540FFF762FCBDE87040E720FFF7D0
:105BC00085BC70BD10B50C46FFF770FCFFF776FC86
:105BD00028B124B1BDE81040E720FFF777BC10BD25
:105BE000FFF77CBC014B00229A607047CCE5032094
:105BF000014B1860704700BFA8E4032008B50B4BA9
:105C000043B100F061F903681B699847002801DD82
:105C1000AFF30080064B43B100F0D4F903681B6971
:105C20009847002801DDAFF3008008BD00000000A8
:105C30000000000008B5FFF7E1FFFFF737FB014B5D
:105C4000186008BD38E703200548064A064908B52C
:105C5000121A02F071FE054B054A1A6008BD00BF1A
:105C600000F4032004F40320E08F0D0000F403206F
:105C70001E1C279A07B5002300931A466FF0770180
:105C8000FFF77EFC03B05DF804FB000007B5438816
:105C90000A2B08D0502B0BD1094B1B684BB103B01A
:105CA0005DF804EB1847FFF7E5FF03B05DF804FB70
:105CB000002300931A466FF07701FFF761FCF4E7C9
:105CC000E0E5032010B512480021FFF70BFD114B52
:105CD0001A68114B9A42114B0CBF012200221A7014
:105CE00001D0FFF7B1FFFFF7D1FA044602F054FEEE
:105CF0000B4B13B12046AFF3008000210848FFF79B
:105D0000C1FCBDE8104007480021FFF72FBC00BFD1
:105D1000F15B0D0000F403201E1C279ADCE5032034
:105D2000000000008D5C0D00704710B5182104467E
:105D300000F0F4FD204610BDF0B5037D062B8DB0BC
:105D40000E4600F104074FF0000412D000F10805E0
:105D500015F8011D0A223046FFF773FEAF420444D6
:105D600019D0002CF4D02E213046FFF751FE044408
:105D7000EEE72F236A4639460A208DF80040FFF7E8
:105D8000B5FA684602F03EFE33680246DB686946B3
:105D900030469847044620460DB0F0BD10B5054B7F
:105DA0000446112240F8043B002102F0EDFD20469C
:105DB00010BD00BF588D0D000346074A10B543F8CB
:105DC000042B01F1100251F8044B43F8044B9142AB
:105DD000F9D10A781A7010BD588D0D0010B59DF8D4
:105DE000084044EA032343EA024242EA01610423F1
:105DF0004160037510BD13B5CB7800938B784A785A
:105E00000978FFF7EBFF02B010BD4174704770478F
:105E1000704708B50021007CFFF718FB40EAE070EE
:105E200008BD08B50121007CFFF710FB40EAE070D7
:105E300008BD08B5007CFFF701FB20EAE07008BD53
:105E400008B5007CFFF7F2FA20EAE07008BD13B550
:105E50000446007C0191FFF7F1FA0028019901DC6A
:105E6000607C20B1207CFFF7F9FA20EAE07002B0F4
:105E700010BD007CFFF7FABA10B51421044600F0FB
:105E80004DFD204610BD000010B54FF47A73044656
:105E900008460021C4E90113044B23600123207448
:105EA00063741146FFF7B2FA204610BD6C8D0D00E9
:105EB000007C0022FFF7B2BA10B51422044600217C
:105EC00002F062FD204610BD10B50F4C88B003A84B
:105ED000FFF7F2FF2178BFF35B8F11F001010FD1C3
:105EE00020460191FEF7DFF8019948B103AA07485F
:105EF000FFF7CAFF2046FEF7DBF8054802F016FD63
:105F0000024808B010BD00BFE4E50320E8E5032027
:105F10000F5E0D00FFF7AAB9FFF7A0B970474174F3
:105F20007047704708B5007CFFF720FA20EAE07060
:105F300008BD08B5007CFFF7F1F920EAE07008BD64
:105F400008B5007CFFF7FAF940EAE07008BD08B533
:105F5000007CFFF7EBF940EAE07008BD007CFFF73A
:105F6000F5B937B5457C04462DB1207C03B0BDE8BA
:105F70003040FFF7CBB9007C0191FFF7F7F900281B
:105F80000199F2DC284603B030BD10B51421044657
:105F900000F0C4FC204610BD10B54FF0000C0446C4
:105FA000084611464FF47A72C4E901C2044A2260DD
:105FB0000122207462741A46FFF7A0F9204610BD32
:105FC0009C8D0D0013B50D4C2178BFF35B8F11F044
:105FD000010110D120460191FEF765F8019950B1F9
:105FE000074B084A0848FFF7D7FF2046FEF760F83E
:105FF000064802F09BFC044802B010BDFCE50320FB
:1060000084E6032000E6032008E70320235F0D0059
:106010007047F8B5064615460C468F18BC4206D0A8
:10602000336814F8011B9B6830469847F6E728460A
:10603000F8BD007C0022FFF7A1B9007C0021FFF72A
:10604000A5B9007C0021FFF7A9B9007C0021FFF76A
:10605000ADB9007C0021FFF7B1B910B51421044699
:1060600000F05CFC204610BD10B54FF47A73044676
:1060700008460021C4E90113034B23602074114634
:10608000FFF7ACF9204610BDCC8D0D000022406812
:106090001146FFF797BA002240681146FFF7B2BADF
:1060A000002240681146FFF7BDBA40680022FFF7A2
:1060B000B1BA4068002281F00101FFF79BBA0023CA
:1060C00040681A461946FFF78DBA002340681A4601
:1060D0001946FFF77FBA002240681146FFF762BAFF
:1060E000406800220221FFF765BA002340681A4683
:1060F000FFF750BA024B04225A60024A1A607047F6
:106100001CE70320F48D0D00002340681A46FFF7BA
:1061100041BA406800220221FFF74CBA00224068D1
:106120001146FFF73FBA002240681146FFF74ABA0E
:10613000002340681A461946FFF74CBA002340680E
:106140001A461946FFF74EBA40680021FFF772BAA7
:1061500040680021FFF776BA4068002281F0010113
:10616000FFF748BA40680022FFF754BA002240689F
:106170001146FFF757BA002240681146FFF742BAAE
:106180002DE9F043002495B016460D460746FFF76B
:1061900005FE214618220EA8009402F0F5FB4023CC
:1061A000CDE90C3421466B460CAA3046FFF726F8A1
:1061B0000446002846D1024601216868FFF702FA2A
:1061C0000221804622466868FFF7FCF9009E81465E
:1061D0002146002E36D0002934D17368022B03D01B
:1061E0000A2B0BD0F669F4E7B8F1000F04D07169FF
:1061F00038460431FFF7FFFD4146F3E7B9F1000FE0
:1062000001D14946EEE77469102201A802F0BCFBF7
:1062100006238DF8143001AD04F108031834186812
:1062200059682A4603C20833A3421546F7D101A98B
:1062300006A807ADFFF7C0FD0FCD3C1D0FC42B68AE
:106240002370DEE70098FEF7D1FF384615B0BDE8B1
:10625000F0830000024B034A1A6000225A60704724
:1062600024E70320308E0D0000F11003012213F803
:10627000101C0129184608D153F8041C02EB4102F6
:10628000013A03F11003F2D17047022904BF53F819
:10629000041C5218F4E770470020704710B5102115
:1062A000044600F03BFB204610BD08B5FFF7F6FFA3
:1062B00008BD10B5C4687CB1206808B1FDF7F1FED7
:1062C000237A1BB1606808B1FDF7EBFE20460C2174
:1062D000BDE8104000F022BB10BD10B503680446B5
:1062E0009B689847A368013BA3602BB923682046AD
:1062F000DB68BDE81040184710BD38B50B68036077
:106300004D6843689D4204460CD015B16B6801335B
:106310006B60606828B14368013B43600BB9FFF7CD
:10632000DCFF6560204638BD0B461146002210B5E3
:10633000C0E90022044683600BB9204610BDFFF778
:10634000DCFFFAE78368EBB11A78032A1AD8DFE892
:1063500002F00417021B0520704702685B68526850
:10636000D05C2D2812D0A0F13003092B0ED974284F
:106370000ED066280CD0A0F16E03584258417047E9
:1063800006207047002070470420704703207047A4
:106390000220704710B50446FFF7D4FF03280DD044
:1063A00004281ED002282BD12268A36852685B689B
:1063B000D05CA0F174035842584110BDA368226814
:1063C0005B6854681C440F49204602F009FB002812
:1063D000F3D00D49204602F003FB003818BF01201E
:1063E000EBE72268A36852685B68D05CD418002889
:1063F000E3D00649204602F0F3FA0028E3D1DCE7B7
:106400000020DAE7668E0D00648E0D00688E0D00A8
:1064100010B50446FFF796FF02280ED0C31EDBB26C
:10642000012B14D82268A36850685B68BDE810404F
:106430000A220021184402F067BB2268A368526850
:106440005B68D05CA0F174035842584110BD002035
:10645000FCE700002DE9F047994688B01023074675
:1064600088460DEB03000021924604930024FFF7B9
:1064700045F803AB01934FF0FF36009423464246A4
:10648000394604A80396FFF741F8051E27DD039857
:1064900014498542B8BF0546B5F1006FACBF304620
:1064A000280100F03FFA064698B1002104A8002414
:1064B000FFF724F8CDE9005433464246394604A894
:1064C000FFF724F8A04207DDCAF800600120C9F8F0
:1064D000005008B0BDE8F0873046FDF7E2FD2046E9
:1064E000F7E700BF8C8E0D002DE9F84F43688668F2
:1064F0000B4488460E4407461C4619464FF00D09CA
:106500004FF0090AB44263D0254615F8012B5C2AE6
:106510002BD1A14207D0A4EB010B18465A4602F03A
:1065200019FA03465B44B54239D06278752A2AD1FC
:10653000A21CB21A032A32DDA01D04F1050E4FF091
:10654000000CAE4553D015F8011FA1F130025FFADF
:1065500082FBBBF1090F05D9A1F16102052A07D819
:10656000A1F1570242EA0C1CEBE728460446C9E7B2
:10657000A1F14102052A12D8A1F13702F2E703F88E
:1065800001CB0146F2E76E2A1CD00ED8622A13D046
:1065900007D82F2A11D05C2A0FD0222A0DD0002034
:1065A00023E0662AFBD10C2207E0722A0DD0742A60
:1065B000F5D183F800A001E008221A70A11C013374
:1065C0000846D3E74FF00A02F7E783F80090F5E7B3
:1065D000A14206D0641A1846224602F0BBF90346CF
:1065E0002344A3EB0803BB600120BDE8F88FBCF196
:1065F0007F0FC4D92146B9E7F8B50446154600EB2C
:1066000001160027B44210D02378032B08D1294665
:106610002046FFF769FF48B1A368EF541034F1E753
:10662000002BFBD1A268AB54F8E70120F8BD0000B5
:1066300038B50023C0E9003304460E48C4E902031C
:10664000A9B10B78032B06D08BB9136858684B6837
:10665000C35C6E2B07D013684D6858688B6828445C
:106660005B1BA060E36011462046FFF746FE204614
:1066700038BD00BFF28C0D0038B500250B46C0E9CF
:106680000055C0E90255C0E90455044611464BB116
:106690001A78012A06D103F11002DB688260436197
:1066A000FFF72BFE204638BD10B54369044663B1A1
:1066B0008068E060013B1030A0602061636113B12D
:1066C000FFF7D2FDA060012000E0184610BD0000D9
:1066D00038B500230446036010200D46FDF7DBFCAF
:1066E00028B10123C0E90133024B0360C56020607B
:1066F000204638BD788E0D00F0B5044687B00E46B2
:106700000C202749154600F00BF9014618B100236B
:10671000C0E90033037203A80291FFF7D9FF029A80
:1067200042B9C4E90022A26003A8FDF718FD204683
:1067300007B0F0BD00230193294601AB3046FFF7B7
:1067400089FE18B9C4E90000A060EDE71449029F72
:10675000681C00F0E7F8029B786058680028F1D0C8
:106760002A46314602F0E8F8029B01991868012296
:106770001A725A68FFF740FF0028E3D0029B19689D
:106780000493039B059313B15A6801325A6004AA1B
:106790002046FFF7C9FD05A8FDF7E1FCC4E700BFEF
:1067A0008C8E0D00232813B502D9002002B010BD35
:1067B000A0F10B03022B1AD8174C2178BFF35B8F83
:1067C00011F001010BD120460191FDF76CFC0199FC
:1067D00028B11248FEF7CCFF2046FDF769FC0F4BAD
:1067E0001878FEF70BFE0028DFD10120DEE7012834
:1067F00009D800F06FF80021007CFEF7E7FD80F07B
:106800000100C0B2D2E709380128EED8FFF7DAFB61
:10681000007CFEF7A3FDF2E72CE7032030E703201E
:10682000232838B504460D460AD8FF2908D0FFF7BB
:10683000B9FF28B129462046BDE83840FEF7F6BC2E
:1068400038BD38B504460D46FEF7F8FCFF2810D0D9
:10685000062804D84D2323FA00F0C30709D42046A4
:10686000FFF7A0FF28B129462046BDE83840FEF7D3
:10687000EDBC38BD0D2810B504469CBF0E34A4B243
:106880002046FFF78FFF50B103212046FEF7C6FCDC
:10689000032804D12046BDE81040FEF7EFBC0020DD
:1068A00010BD704738B500232025438014230446CB
:1068B0000380856005610649284600F033F80449E5
:1068C0006060284600F02EF8E060204638BD00BF2A
:1068D0008C8E0D0030B50E4D2978BFF35B8F11F013
:1068E000010487B011D12846FDF7DDFB68B101A88E
:1068F000FFF7D8FF01AA21460648FFF7B5FB284657
:10690000FDF7D6FB044802F011F8024807B030BD8D
:106910003CE7032040E70320A3680D00FDF7BFBB61
:10692000FDF7B9BBFDF7B9BB2DE9F04F2DED028B9B
:106930008DB057EC106B55EC114B00F02DFAAE4BAF
:10694000B0EE408AF0EE608A93F90090B9F1FF3F13
:1069500037D022462B462046294601F059FF834670
:1069600078BB32463B463046394601F051FF8046FF
:10697000002840F093804FF0000A4FF0000B3046A3
:10698000394652465B4601F011FF18B352465B464A
:106990002046294601F00AFF0090002857D0974B67
:1069A000CDF828800122CDE90467CDE90645CDE97F
:1069B00008AB02920393B9F1000F00F089809FEDBC
:1069C0008A8BB0EE480AF0EE680A0DB0BDEC028B7F
:1069D000BDE8F08FB0EE480AF0EE680A01F084F9E5
:1069E0008046002800F082804FF000084FF0000938
:1069F00051EC180B42464B4601F0D8FE0028E0D07F
:106A000047EC106B01F070F90028DAD045EC104B20
:106A100001F06AF90028D4D0774B784A93F9003016
:106A2000039204210022022BCDE90467CDE906453B
:106A3000CDE9088902910A9204D002A801F060F918
:106A400000284AD1FEF746FE2223036045E045ECCC
:106A5000104B01F049F90028B3D052465B4620465E
:106A6000294601F0ADFE0028ABD0634B0099634A84
:106A700093F900300A910121CDE90467CDE906457B
:106A8000CDE90212002B6FD1CDE908AB02A801F0CD
:106A900037F900286ED00A9B2BB320E00022002398
:106AA0002046294601F082FE00288AD09FED4E8BB9
:106AB000524BCDF828B00122B9F1020FCDE904679D
:106AC000CDE906458DED088B029203933FF479AF33
:106AD00002A801F015F9002851D00A9B1BB1FEF75E
:106AE000F9FD0A9B03609DED088B6AE747EC106B8C
:106AF00001F0FAF800283FF477AF45EC104B01F0B5
:106B0000F3F800283FF470AF53EC182B18EE100A7E
:106B1000194601F07DFE384B002840F0968093F92D
:106B200000800A9003230293344B0393CDE904675A
:106B3000CDE90645B8F1000F26D1DFF8D0904FF02F
:106B4000604852465B4630463946CDE9088901F037
:106B500037FE48BB02A801F0D3F800289BD1FEF70E
:106B6000B9FD2223036096E725490020022BCDE9D9
:106B700008018BD1FEF7AEFD212303608BE7FEF702
:106B8000A9FD21230360A8E79FED197B52465B46D0
:106B9000304639468DED087B01F012FE002837D1D2
:106BA000B8F1020FDBD0D5E7164B0022204629466C
:106BB00001F094FB02460B4643EC102BCDE9002379
:106BC00001F0AAF8DDE9002351EC100B01F0EEFD15
:106BD000002836D10C4B08494FF06042CDE908231C
:106BE00091F90080DCE700BF000000000000F03FEA
:106BF000000000000000F07FA4E40320908E0D0050
:106C00000000F0FF0000E03FFFFFEFC7FFFFEF478E
:106C10001C4B00222046294601F060FB02460B4631
:106C200043EC102BCDE9002301F076F8DDE90023D9
:106C300051EC100B01F0BAFD18B9134B0022CDE94D
:106C40000823124B93F90080AAE793F90090104BA8
:106C5000CDF828800122CDE90467CDE90645CDE9CC
:106C60000223B9F1000F3FF40FAF52465B46504686
:106C7000594601F05DFCB9F1020FCDE908013FF47E
:106C800079AF03E70000E03F0000F0FFA4E4032039
:106C9000908E0D0010B52DED028B8AB0B0EE408ABB
:106CA00000F018FF374B93F90040631C33D0B4EE6B
:106CB000488AF1EE10FA2ED6B5EEC08AF1EE10FA3F
:106CC00029DC314B019318EE100A0023089301F0E0
:106CD000ADFACDE90401CDE9020104B32B4BB5EEC9
:106CE000408A0022F1EE10FACDE9062341D10223B9
:106CF0009C42009337D1FEF7EDFC22230360089BF2
:106D00002BB3FEF7E7FC089B0360DDE9060101F009
:106D1000BDFD00EE100A0AB0BDEC028B10BD1C4B8D
:106D2000B5EE408A4FF06042F1EE10FACDE906234D
:106D300017D001230093684600F0E2FFE8B1154840
:106D400000F0E2FF8DED060B089B002BD9D1DDE9A9
:106D5000060101F09BFD00EE100A0AB0BDEC028BAB
:106D600010BD02230093684600F0CAFF0028EBD153
:106D7000C1E70123022C0093DDD1FEF7ABFC2123F8
:106D80000360DCE7A4E40320948E0D000000F0FF14
:106D9000FFFFEFC7988E0D002DE9F04F57EC116BF8
:106DA0002DED0A8B27F0004A5AEA060289B03DD041
:106DB00055EC104B764925F00048884510EE102A16
:106DC000A9462CDC11EE103ABB463AD08A4526DCA7
:106DD0006F498A4521D0B9F1000F3DDB00210391B5
:106DE000002B55D16A4B9A4500F0A880694B9A4513
:106DF00000F0B680BBF1804F00F00185664B9B45EB
:106E000046D1B9F1000F43DB45EC104B09B0BDECA6
:106E10000A8BBDE8F04F00F099BD002BDBD008F1E4
:106E2000404808F5801858EA02030DD19FED547BC5
:106E30008DED007B9DED000B09B0BDEC0A8BBDE82C
:106E4000F08F0CB9C245C3DD544809B0BDEC0A8BC4
:106E5000BDE8F04F00F058BF51498A4500F38780E4
:106E6000A1F154718A450FDD4FEA2A51A1F2FF3199
:106E7000142940F3CE84C1F1340123FA01F000FA61
:106E800001F1994200F0208500210391002BADD043
:106E900045EC104B069200F01DFF069A8DED000B9D
:106EA0005ABBB8F1000F04D03A4B29F040429A4245
:106EB00023D1BBF1000F07DADDE9002335490020BB
:106EC00001F036FBCDE90001B9F1000FB2DA039B06
:106ED00008F1404808F5801858EA030340F0BE84E2
:106EE000DDE900231046194601F040F802460B4642
:106EF00001F01EFBCDE900019CE7039A4FEAD9732C
:106F0000013B0693134335D0264B9A454EDD03F1E2
:106F100004739A45244B40F3ED83984540F36B830B
:106F2000BBF1000F40F36B8317A3D3E90023104696
:106F3000194601F0D3F9CDE900017BE708F14043A0
:106F400003F5801313433FF471AF174B984540F39B
:106F50008883BBF1000FC0F25283CDE9006769E777
:106F6000BBF1000FC0F24184CDE9004562E7022188
:106F7000039135E722462B46B4E700BFAFF300800C
:106F8000000000000000F03F9C7500883CE4377E64
:106F90000000F07F0000F03F0000E03F988E0D0001
:106FA000FFFF3F430000E041FFFFEF3FE44B09EAF2
:106FB0000303002B40F01684DDE90001E14B0022C1
:106FC00001F08CF9CDE90001DDF804806FF03400A8
:106FD0004FEA2853DC49C8F31302A3F2FF3342F00F
:106FE0007F5818188A42079048F4401840F3E98304
:106FF000D64B9A4240F33E849FEDBB7BB0EE47BA3E
:10700000F0EE67BAB0EE47CAF0EE67CA9FEDB87B04
:10701000013054EC173B0790A8F580184FF0000999
:10702000DDE900AB44EC183B1A4650462346414686
:1070300000F09CFF53EC182B04460D465046414689
:1070400000F096FF02460B460020C14901F070FA9D
:1070500045EC1A4B41EC190B51EC1A0B53EC192B64
:1070600001F03CF9C3464FEA680848F0005808F5BB
:10707000002303EB09050A4600230146CDE900126F
:107080000093DDE900890024CDE904122B46224655
:107090004046494601F022F902460B4651EC1A0BD4
:1070A00000F064FF41EC170B53EC182B20462946E7
:1070B00055EC174B00F05AFF02460B465046594616
:1070C00000F054FF42464B4601F008F902460B46D9
:1070D0002046294600F04AFF53EC192B01F0FEF838
:1070E000DDE904AB04460D4652465B465046594620
:1070F00001F0F4F880A3D3E9002345EC1A4B0446D1
:107100000D4601F0EBF87EA3D3E9002300F030FF39
:1071100022462B4601F0E2F87BA3D3E9002300F0DE
:1071200027FF22462B4601F0D9F879A3D3E90023A3
:1071300000F01EFF22462B4601F0D0F876A3D3E9DB
:10714000002300F015FF22462B4601F0C7F874A378
:10715000D3E9002300F00CFF22462B4604460D46DF
:107160001046194601F0BAF802460B462046294659
:1071700001F0B4F8424604460D464B465046594687
:10718000CDE904AB00F0F4FE53EC1A2B01F0A6F8A5
:1071900022462B4600F0ECFE424604460D464B4686
:1071A0004046494601F09AF845EC194B694B0022DC
:1071B00082468B4600F0DCFE53EC192B00F0D8FE23
:1071C000009C0D4622462B464046494601F086F873
:1071D000604B8046894600222046294600F0C6FEC4
:1071E00052465B4600F0C2FE02460B4651EC190BBC
:1071F00000F0BCFEDDE9042301F070F849EC188BC7
:107200002246804689462B4651EC1A0B01F066F85F
:1072100002460B464046494600F0AAFE82468B468F
:1072200052465B4651EC180B00F0A2FE009C3EA3B8
:10723000D3E9002320460D4601F050F853EC182BFB
:10724000804689462046294600F090FE02460B46BD
:107250005046594600F08AFE35A3D3E9002301F0D9
:107260003DF849EC198B34A3D3E9002380468946C5
:107270002046294601F032F802460B464046494670
:1072800000F076FE53EC1C2B00F072FE824607984D
:107290008B4600F0B9FF5246804689465B4651EC6A
:1072A000190B00F065FE53EC1B2B00F061FE42460B
:1072B0004B4600F05DFE009C42464B4620460D4684
:1072C00000F054FE53EC1B2B00F050FE53EC192B36
:1072D00000F04CFE02460B465046594600F046FE72
:1072E00082468B4638E000BF00000000000000002E
:1072F000000000000000F03FEF4E454A287ECA3FE4
:1073000065DBC9934A86CD3F01411DA96074D13F19
:107310004D268F515555D53FFFAB6FDBB66DDB3F2B
:10732000033333333333E33F000000E009C7EE3F5C
:10733000FD033ADC09C7EE3FF5015B14E02F3EBECA
:107340000000F07F000040438E98030079B60B00E8
:107350000000F03F00000840039B069A013B1343E6
:1073600040F078819FEDC47BB0EE479AF0EE679ACB
:107370000023CDE900670093DDE9008930464246ED
:1073800039464B4600F0F2FD22462B4600F0A6FFA0
:1073900032463B4606460F465046594600F09EFF91
:1073A00002460B463046394600F0E2FD4246824630
:1073B0008B464B462046294600F090FF06460F4676
:1073C0003B4650465946324600F0D2FDC44B9942E6
:1073D00004460D46884640F3178101F13F4303F50B
:1073E000E003034340F02A82A5A3D3E900235046DB
:1073F000594600F0BDFD324641EC180B3B46204695
:10740000294600F0B3FD02460B4651EC180B01F083
:10741000F5F9002840F01282C8F30A534FF48012A5
:10742000A3F2FE3342FA03F34344AE49C3F30A52D4
:10743000A2F2FF3241FA02FCC3F3130523EA0C0166
:10744000C2F1140445F48015B8F1000F0B4645FA5B
:1074500004F103914FF00000B8BF49420246B8BFA3
:1074600003913046394600F081FD06460F463B4603
:1074700050465946324600F07BFD039B1B050093A6
:107480000D46002480A3D3E900232046294600F0BE
:1074900025FF3246804689463B462046294600F075
:1074A00065FD02460B465046594600F05FFD78A345
:1074B000D3E9002300F012FF77A3D3E900230646A7
:1074C0000F462046294600F009FF02460B4630468B
:1074D000394600F04DFD06460F4632463B464046D3
:1074E000494600F045FD42464B4604460D4600F035
:1074F0003DFD02460B463046394600F037FD224638
:1075000082468B462B462046294600F0E7FE64A3C0
:10751000D3E9002306460F4600F0E0FE62A3D3E95C
:10752000002300F023FD32463B4600F0D7FE60A367
:10753000D3E9002300F01CFD32463B4600F0CEFEAE
:107540005DA3D3E9002300F011FD32463B4600F075
:10755000C5FE5BA3D3E9002300F00AFD32463B469B
:1075600000F0BCFE02460B462046294600F0FEFC19
:1075700006460F4632463B462046294600F0AEFE00
:107580000022804689464FF080433046394600F05D
:10759000EDFC02460B464046494600F0C9FF524604
:1075A00006460F465B462046294600F097FE5246A7
:1075B0005B4600F0DDFC02460B463046394600F0E3
:1075C000D5FC22462B4600F0D1FC02460B4600209B
:1075D000454900F0CBFC0B4600991944B1F5801FDA
:1075E0000246C0F26981104653EC192B00F076FE7A
:1075F000CDE900011EE4BBF1000FFFF695AC9FED55
:10760000327B8DED007B15E4DFF8E4C021F0004310
:10761000634540F30B81354B0B4403430AD132469B
:107620003B4600F0A3FC52465B4601F0DDF8002823
:107630003FF4F2AE26A3D3E9002351EC190B00F07E
:107640004DFE23A3D3E9002300F048FECDE900015D
:10765000FFF7F0BB9FED207BB0EE479AF0EE679A04
:1076600086E6BBF1000FCADA07F1004300960193EA
:10767000FFF7E0BBAFF30080000000000000F0BFA8
:10768000FE822B654715973C00000000432EE63F25
:10769000EF39FAFE422EE63F396CA80C615C20BE41
:1076A000D0A4BE726937663EF16BD2C541BDBB3E08
:1076B0002CDE25AF6A56113F93BDBE166CC1663FE6
:1076C0003E5555555555C53F0000000000000000CF
:1076D00059F3F8C21F6EA501000000000000F03F42
:1076E000FFFF8F40FFFF0F000000F03F00346F3FAF
:1076F000FFCB90409845FFF67EAF914B98453FF702
:107700000FAC8F4B0022DDE9000100F02FFC78A3C5
:10771000D3E9002304460D4600F0E0FD76A3D3E94B
:10772000002382468B462046294600F0D7FD854B34
:107730008046894600222046294600F0CFFD0246B9
:107740000B466FA1D1E9000100F010FC22462B4648
:1077500000F0C4FD02460B4600207B4900F006FC09
:1077600022462B4604460D461046194600F0B6FD4B
:1077700002460B462046294600F0B0FD62A3D3E93D
:10778000002300F0ABFD02460B464046494600F0A0
:10779000EDFB804689465046594642464B4600F02E
:1077A000E7FB002452465B4620460D4600F0DEFB18
:1077B00002460B464046494600F0D8FB82468B46BF
:1077C000CAE59FED537BB0EE47BAF0EE67BAB0EE74
:1077D00047CAF0EE67CA9FED507B4FF0000954ECAA
:1077E000173B1DE40020FFF7F3BB554922462B460B
:1077F000002000F09DFECDE90001FFF71BBB2246F3
:107800002B462046294600F069FDCDE90001FFF72F
:1078100011BB002B42D1C1F114014AFA01F000FA68
:1078200001F151455AD00393FFF7E0BA464A93421B
:107830005BDCDDE900120091039122E638A3D3E975
:10784000002351EC190B00F049FD35A3D3E90023C7
:1078500000F044FDCDE90001FFF7ECBA039B012BDA
:107860007FF4E8AADDE9002101F10043CDE900231E
:10787000FFF7E0BA9FED2C7BB0EE47BAF0EE67BAA7
:107880009FED2B7BB0EE47CAF0EE67CA9FED2A7BD7
:107890004FF4802954EC173BFFF7C2BB45EC104B6B
:1078A000039200F017FA039A8DED000B002A7FF483
:1078B00061AB0392FFF7F5BA039843EC102B00F08D
:1078C000BFFA51EC100B8FE600F00100C0F102018D
:1078D0000391002B3FF48AAAFFF7DABA00F0010007
:1078E000C0F102030393FFF781BA1B1596E500BFB1
:1078F000000000604715F73F44DF5DF80BAE543ED3
:10790000555555555555D53FFE822B654715F73FC3
:107910000000000000000000000000000000F03F38
:107920009C7500883CE4377E0000004003B8E23FCD
:1079300006D0CF43EBFD4C3E000000000000F83FB6
:107940000000F03F0000D03F0000E03F2DE9F04193
:107950005F4A57EC106BBA4300F09880002F10EE8E
:10796000104A3B464EDD39155BD0C3F31303CA07FB
:1079700043F48013A1F2FF3E03D45B0003EBD47306
:107980006400E20F4FF0000C02EB43034FEA6E0E6F
:107990006400664616254FF40012B118994202DCC5
:1079A0005B1A8E1894445B00013D03EBD4734FEADD
:1079B00052024FEA4404F0D12F4620204FF00042FB
:1079C00009E03ED0E10F01384FEA520201EB4303D8
:1079D0004FEA44043ED0B34202EB0501F1DD002939
:1079E00001EB020509DBB0469B1BA14288BF03F1F6
:1079F000FF33641A17444646E4E7002DF3DB06F133
:107A00000108F1E727F00042324336D0002F4DD174
:107A10003946E20A153964051346002AF9D0D7021F
:107A200051D400205B00DE02054600F10100F9D5CB
:107A30001A4623468440C0F12000C3401343491B2B
:107A400093E7A142BED8002901EB0205D5DB984699
:107A50000023CEE7234312D178084FEA6C0101F1ED
:107A60007F511CF0010F01F5001118BF40F00040DC
:107A700001EB0E53024643EC102BBDE8F0817B1C5A
:107A800016BF781C0CF1010C4008E6E710EE102A36
:107A900010EE100A3B46394600F020FC32463B46C9
:107AA00000F066FA41EC100BBDE8F08110EE102AF0
:107AB0003046394600F05AFA02460B4600F038FDCF
:107AC00041EC100BD9E7234620204FF0FF35B4E7F7
:107AD0000000F07F10EE103A33F000422DD0002B62
:107AE00032DBB3F1FF4F3FDAB3F5000F30B432DBD6
:107AF00000256848684CC3F31601084400F40002EE
:107B0000DB1582F07E527F3B0A432B4400EE102AA5
:107B100001F10F05F7EE007A2C4030EE670A03EB17
:107B2000D05324BBB5EE400AF1EE10FA61D1002B20
:107B300040F093809FED590A59E09FED597ADFEDAF
:107B4000577A87EE270A704770EE407A9FED537A96
:107B500087EE870A7047DFED537A60EE277A6FF081
:107B6000180517EE903AC4E730EE000A7047B0EE01
:107B7000007A30EE077A9FED4C3ADFED4C4ADFEDAC
:107B80004C5ADFED4C3A9FED4C5ADFED4C7ADFED6D
:107B90004C6A4C4880EE074AC1F55712084402F57A
:107BA00022720243002A07EE103A24EE046AF8EE2D
:107BB000C72A26EE067AE7EE034AA7EE235AE4EE3A
:107BC000875AE5EE076AE5EE877A67EE867AE6EE93
:107BD000877A2BDDB6EE007A20EE077A27EE007A60
:107BE00053BB77EE877AA7EEC47A30EE470A30BCF3
:107BF0007047DFED357AB6EE007AA0EE677AF0EEE8
:107C0000477A20EE007A27EE277A002BEDD007EE98
:107C1000903A9FED2E6ADFED2E6AF8EEE77AA7EE36
:107C2000C67A37EE400A97EEA60AE0E713BB70EE7D
:107C3000677AA7EEC40ADAE7DFED246A9FED246ACB
:107C400077EE877A62EEA66AE7EE846A37EE667AA6
:107C500037EE400A92EE860AC9E707EE903A9FEDAA
:107C60001B0A9FED1B7AF8EEE77A27EE800AA7EE53
:107C7000870ABCE79FED157ADFED156A70EE677A2B
:107C800027EE627AA7EE847A37EE400A92EEA60AD1
:107C9000ADE700BF20FB4A00F0FF7F0000000000BE
:107CA000000000CC0000004C9788173E25333A3E78
:107CB0002549923E4FD01C3E298E633EABAA2A3FF7
:107CC000CDCCCC3E305CCFFFABAAAA3ED1F7173764
:107CD0008071313F51EC100B10EE102A21F000435F
:107CE00043EC102B704700BF82B08DED000B019864
:107CF00040F0004000F58010C00F02B0704700BF98
:107D000000207047000000009FED010B704700BF8E
:107D1000000000000000F87FF0B553EC102BC3F317
:107D20000A56A6F2FF30132810EE105A83B01946F7
:107D30004FEAD37431DC00284CDB3E4E064103EAA7
:107D4000060717432ED003EA56031D434FEA560693
:107D50000CD04FF48023132821EA060643FA00F1E1
:107D600041EA06010CBF4FF000450025324800EB08
:107D7000C4042A46D4E900450B462046294600F0B3
:107D8000F7F8CDE90001DDE9000122462B4600F0BD
:107D9000EDF841EC100B03B0F0BD332806DDB0F573
:107DA000806F40D043EC102B03B0F0BDA6F2134619
:107DB0004FF0FF30F0400242F4D015EA50024FEA93
:107DC0005003D3D04FF0804225EA030542FA06F66D
:107DD0003543CBE723F000401043E3D0C3F3130057
:107DE000104345420543144800EBC400D0E9006746
:107DF000590C2D0B490405F4002545EA01033046D2
:107E0000394600F0B5F8CDE900013B46DDE9000157
:107E1000324600F0ABF821F0004343EAC47141EC74
:107E2000100B03B0F0BD10EE100A00F0A1F841EC09
:107E3000100BB9E7FFFF0F00A08E0D00000000003F
:107E400038B553EC102BC3F30A511C46054681BBD1
:107E500010EE101A23F00044214329D019460022C5
:107E60003D4B3E4C10EE100A00F038FAA542024697
:107E70000B4616DB0C46C1F30A513639294440F251
:107E8000FE70814221DC002947DC11F1350F34DA24
:107E90004CF250318D4218DC002B27A1D1E90001B2
:107EA00044DB25A3D3E9002300F018FA41EC100BC2
:107EB00038BD40F2FF708142E0D110EE100A194641
:107EC00000F056F841EC100B38BD002B1CA1D1E995
:107ED000000107DB1AA3D3E9002300F0FFF941EC0E
:107EE000100B38BD18A1D1E9000115A3D3E9002377
:107EF00000F0F4F941EC100BF3E724F0FF4424F414
:107F0000E004363144EA0153104619460022144B6E
:107F100000F0E4F941EC100B38BD24F0FF4424F4E8
:107F2000E00444EA015343EC102B38BD08A1D1E929
:107F30000001B6E7AFF3008059F3F8C21F6EA50148
:107F40009C7500883CE4377E9C7500883CE437FED5
:107F500059F3F8C21F6EA58100005043B03CFFFFEB
:107F60000000903C81F0004102E000BF83F000433C
:107F700030B54FEA41044FEA430594EA050F08BFC4
:107F800090EA020F1FBF54EA000C55EA020C7FEA88
:107F9000645C7FEA655C00F0E2804FEA5454D4EB05
:107FA0005555B8BF6D420CDD2C4480EA020281EACF
:107FB000030382EA000083EA010180EA020281EA07
:107FC0000303362D88BF30BD11F0004F4FEA013159
:107FD0004FF4801C4CEA113102D0404261EB410168
:107FE00013F0004F4FEA03334CEA133302D05242EE
:107FF00063EB430394EA050F00F0A780A4F10104AA
:10800000D5F1200E0DDB02FA0EFC22FA05F28018E3
:1080100041F1000103FA0EF2801843FA05F35941C9
:108020000EE0A5F120050EF1200E012A03FA0EFC48
:1080300028BF4CF0020C43FA05F3C01851EBE37172
:1080400001F0004507D54FF0000EDCF1000C7EEB8F
:1080500000006EEB0101B1F5801F1BD3B1F5001FCD
:108060000CD349085FEA30004FEA3C0C04F10104EC
:108070004FEA445212F5800F80F09A80BCF1004F15
:1080800008BF5FEA500C50F1000041EB045141EA97
:10809000050130BD5FEA4C0C404141EB0101013C60
:1080A00028BFB1F5801FE9D291F0000F04BF01464F
:1080B0000020B1FA81F308BF2033A3F10B03B3F121
:1080C00020020CDA0C3208DD02F1140CC2F10C02B1
:1080D00001FA0CF021FA02F10CE002F11402D8BF0F
:1080E000C2F1200C01FA02F120FA0CFCDCBF41EADB
:1080F0000C019040E41AA2BF01EB0451294330BDAA
:108100006FEA04041F3C1CDA0C340EDC04F1140486
:10811000C4F1200220FA04F001FA02F340EA03005D
:1081200021FA04F345EA030130BDC4F10C04C4F1A3
:10813000200220FA02F001FA04F340EA0300294683
:1081400030BD21FA04F0294630BD94F0000F83F4CD
:10815000801306BF81F480110134013D4EE77FEAB0
:10816000645C18BF7FEA655C29D094EA050F08BFFC
:1081700090EA020F05D054EA000C04BF19461046DD
:1081800030BD91EA030F1EBF0021002030BD5FEA21
:10819000545C05D14000494128BF41F0004130BD49
:1081A00014F580043CBF01F5801130BD01F000459D
:1081B00045F0FE4141F470014FF0000030BD7FEA10
:1081C000645C1ABF194610467FEA655C1CBF0B460B
:1081D000024650EA013406BF52EA033591EA030F22
:1081E00041F4002130BD00BF90F0000F04BF00211A
:1081F000704730B54FF4806404F132044FF000054D
:108200004FF0000150E700BF90F0000F04BF0021C5
:10821000704730B54FF4806404F1320410F000452B
:1082200048BF40424FF000013EE700BF42004FEA26
:10823000E2014FEA31014FEA02701FBF12F07F43A3
:1082400093F07F4F81F06051704732F07F4208BF5A
:10825000704793F07F4F04BF41F40021704730B561
:108260004FF4607401F0004521F000411CE700BFAD
:1082700050EA010208BF704730B54FF000050AE030
:1082800050EA010208BF704730B511F0004502D531
:10829000404261EB41014FF4806404F132045FEA33
:1082A000915C3FF4D8AE4FF003025FEADC0C18BFDC
:1082B00003325FEADC0C18BF033202EBDC02C2F1CE
:1082C000200300FA03FC20FA02F001FA03FE40EA60
:1082D0000E0021FA02F11444BDE600BF70B54FF064
:1082E000FF0C4CF4E06C1CEA11541DBF1CEA135542
:1082F00094EA0C0F95EA0C0F00F0DEF82C4481EAAA
:10830000030621EA4C5123EA4C5350EA013518BFC9
:1083100052EA033541F4801143F4801338D0A0FBB6
:1083200002CE4FF00005E1FB02E506F00042E0FB63
:1083300003E54FF00006E1FB03569CF0000F18BF69
:108340004EF0010EA4F1FF04B6F5007F64F5407411
:1083500004D25FEA4E0E6D4146EB060642EAC621A4
:1083600041EA55514FEAC52040EA5E504FEACE2E11
:10837000B4F1FD0C88BFBCF5E06F1ED8BEF1004F14
:1083800008BF5FEA500E50F1000041EB045170BD90
:1083900006F0004646EA010140EA020081EA0301D4
:1083A000B4EB5C04C2BFD4EB0C0541EA045170BDD0
:1083B00041F480114FF0000E013C00F3AB8014F14A
:1083C000360FDEBF002001F0004170BDC4F1000493
:1083D000203C35DA0C341BDC04F11404C4F1200514
:1083E00000FA05F320FA04F001FA05F240EA02006F
:1083F00001F0004221F0004110EBD37021FA04F6A5
:1084000042EB06015EEA430E08BF20EAD37070BD5E
:10841000C4F10C04C4F1200500FA04F320FA05F0BD
:1084200001FA04F240EA020001F0004110EBD370BF
:1084300041F100015EEA430E08BF20EAD37070BD2F
:10844000C4F1200500FA05F24EEA020E20FA04F308
:1084500001FA05F243EA020321FA04F001F00041B7
:1084600021FA04F220EA020000EBD3705EEA430E28
:1084700008BF20EAD37070BD94F0000F0FD101F057
:108480000046400041EB010111F4801F08BF013C90
:10849000F7D041EA060195F0000F18BF704703F0CE
:1084A0000046520043EB030313F4801F08BF013D55
:1084B000F7D043EA0603704794EA0C0F0CEA135511
:1084C00018BF95EA0C0F0CD050EA410618BF52EACB
:1084D0004306D1D181EA030101F000414FF00000D1
:1084E00070BD50EA410606BF1046194652EA4306DF
:1084F00019D094EA0C0F02D150EA013613D195EA53
:108500000C0F05D152EA03361CBF104619460AD19A
:1085100081EA030101F0004141F0FE4141F47001A4
:108520004FF0000070BD41F0FE4141F4780170BD94
:1085300070B54FF0FF0C4CF4E06C1CEA11541DBFF9
:108540001CEA135594EA0C0F95EA0C0F00F0A7F8FB
:10855000A4EB050481EA030E52EA03354FEA013128
:1085600000F088804FEA03334FF0805545EA13133B
:1085700043EA12634FEA022245EA111545EA106503
:108580004FEA00260EF000419D4208BF964244F19A
:10859000FD0404F5407402D25B084FEA3202B61AB9
:1085A00065EB03055B084FEA32024FF480104FF48D
:1085B000002CB6EB020E75EB030E22BFB61A754601
:1085C00040EA0C005B084FEA3202B6EB020E75EB94
:1085D000030E22BFB61A754640EA5C005B084FEAFC
:1085E0003202B6EB020E75EB030E22BFB61A7546C9
:1085F00040EA9C005B084FEA3202B6EB020E75EBD4
:10860000030E22BFB61A754640EADC0055EA060E94
:1086100018D04FEA051545EA16754FEA06164FEAD7
:10862000C30343EA52734FEAC2025FEA1C1CC0D183
:1086300011F4801F0BD141EA00014FF000004FF010
:10864000004CB6E711F4801F04BF01430020B4F1D1
:10865000FD0C88BFBCF5E06F3FF6AFAEB5EB030C89
:1086600004BFB6EB020C5FEA500C50F1000041EB86
:10867000045170BD0EF0004E4EEA113114EB5C0453
:10868000C2BFD4EB0C0541EA045170BD41F4801126
:108690004FF0000E013C90E645EA060E8DE60CEA2E
:1086A000135594EA0C0F08BF95EA0C0F3FF43BAF4B
:1086B00094EA0C0F0AD150EA01347FF434AF95EA02
:1086C0000C0F7FF425AF104619462CE795EA0C0FE6
:1086D00006D152EA03353FF4FDAE1046194622E7B3
:1086E00050EA410618BF52EA43067FF4C5AE50EA8D
:1086F00041047FF40DAF52EA43057FF4EBAE12E77D
:108700004FF0FF3C06E000BF4FF0010C02E000BF5D
:108710004FF0010C4DF804CD4FEA410C7FEA6C5C40
:108720004FEA430C18BF7FEA6C5C1BD001B050EAE3
:10873000410C0CBF52EA430C91EA030F02BF90EACE
:10874000020F0020704710F1000F91EA030F58BF8D
:10875000994208BF90422CBFD8176FEAE37040F0EF
:10876000010070474FEA410C7FEA6C5C02D150EA8D
:10877000013C07D14FEA430C7FEA6C5CD6D152EA48
:10878000033CD3D05DF8040B704700BF844610460D
:1087900062468C461946634600E000BF01B5FFF70C
:1087A000B7FF002848BF10F1000F01BD4DF808EDDC
:1087B000FFF7F4FF0CBF012000205DF808FB00BFAD
:1087C0004DF808EDFFF7EAFF34BF012000205DF807
:1087D00008FB00BF4DF808EDFFF7E0FF94BF012054
:1087E00000205DF808FB00BF4DF808EDFFF7CEFF55
:1087F00094BF012000205DF808FB00BF4DF808ED94
:10880000FFF7C4FF34BF012000205DF808FB00BF64
:108810004FEA410C7FEA6C5C02D150EA013C0AD17C
:108820004FEA430C7FEA6C5C02D152EA033C02D16E
:108830004FF0000070474FF0010070474FEA4102CF
:1088400012F5001215D211D56FF47873B3EB6252A2
:1088500012D94FEAC12343F0004343EA505311F0C9
:10886000004F23FA02F018BF404270474FF000005B
:10887000704750EA013005D111F0004008BF6FF099
:10888000004070474FF00000704700BF4FEA4102C0
:10889000B2F1E04324BFB3F5001CDCF1FE5C0DD95E
:1088A00001F0004C4FEAC0024CEA5070B2F1004FA8
:1088B00040EB830008BF20F00100704711F0804FAB
:1088C00021D113F13872BCBF01F00040704741F470
:1088D00080114FEA5252C2F11802C2F1200C10FA74
:1088E0000CF320FA02F018BF40F001004FEAC12358
:1088F0004FEAD32303FA0CFC40EA0C0023FA02F3FC
:108900004FEA4303CCE77FEA625307D150EA0133D1
:108910001EBF4FF0FE4040F44000704701F00040A1
:1089200040F0FE4040F40000704700BF00230146C5
:108930001A46184600F0F2B80A44914200F1FF339B
:1089400000D1704710B511F8014B03F8014F914267
:10895000F9D110BD884210B501EB020402D984425E
:10896000234607D8431EA14208D011F8012B03F873
:10897000012FF8E7024401468A4200D110BD13F8E6
:10898000014D02F8014DF7E702440346934200D13E
:10899000704703F8011BF9E738B50D4B1D68AB6B49
:1089A00004467BB91820FCF775FE0A4A0A4BA863F7
:1089B000C0E90023094B83600B238381012200233C
:1089C000C0E90423AB6B00221C615A6138BD00BFB3
:1089D000A8E403200E33CDAB34126DE6ECDE0500C7
:1089E00010F8012B11F8013B012A28BF9A42F7D059
:1089F000D01A7047034611F8012B03F8012B002A07
:108A0000F9D17047034613F8012B002AFBD1181A3D
:108A1000013870472DE9F0473A4E86468C4660464D
:108A20001CF8014BA55D15F00805F8D12D2C33D1AC
:108A30009CF800404FF0010800F1020C002B5CD0C4
:108A4000102B0CD1302C0AD19CF8000000F0DF0074
:108A500058284DD19CF8014010230CF1020C08F16C
:108A60000047013F0026B7FBF3F9304603FB197AB4
:108A7000A4F13005092D18D82C46A34224DD751C1D
:108A800007D081451DD301D1A2451ADB00FB03406D
:108A900001261CF8014BEBE72B2C08BF9CF800408B
:108AA000A84608BF00F1020CC8E7A4F14105192D42
:108AB00001D8373CE1E7A4F16105192D04D8573CF2
:108AC000DBE74FF0FF36E4E7731C06D12223CEF834
:108AD0000030384642B9BDE8F087B8F1000F00D049
:108AE0004042002AF7D00EB10CF1FF311160F2E7DD
:108AF0003024002BB3D10823B1E7302CA4D00A23B3
:108B0000ADE700BFB18E0D0013460A46014602488C
:108B10000068FFF77FBF00BFA8E403202DE9F843FA
:108B2000DFF8B8800646D8F800001F460D4691468B
:108B300000F056F8254B1C6834B9254C1C60254BB9
:108B400013B11B68C4F8883063681F2B07DDD8F8A1
:108B5000000000F047F84FF0FF30BDE8F8834EB357
:108B6000D4F8880088B91C4B23B9D8F8000000F06D
:108B700038F8F0E74FF48470FCF78CFD0028F4D04F
:108B80000023C0E94033C4F88800636840F82390AC
:108B900001229A4000EB8301D0F800311343022EEA
:108BA000C0F80031C1F8807002BFD0F804311A4318
:108BB000C0F804216368D8F800005A1C02336260D0
:108BC00044F8235000F00EF80020C6E7E0E7032049
:108BD00054E703200000000095560D000CE503202B
:108BE000704770477047000021400D005D400D0048
:108BF00085400D0089400D00000000007B7D007B5A
:108C00002274223A25642C2270223A25642C227385
:108C1000223A25642C2268223A25647D006672651A
:108C20007175656E637900736D6172746C696768E4
:108C300074006C6564007B2274223A25642C226CDB
:108C400069676874223A25732C226C6564223A2580
:108C5000732C226374223A256C647D007B224C3095
:108C6000223A25642C224C31223A25642C2262229D
:108C70003A25642C2273223A25642C226D223A254F
:108C8000642C224D223A25647D006F6E006175745C
:108C90006F006272696768746E657373006D696EE8
:108CA000006D6178007B2274223A25662C226322B3
:108CB0003A25662C2268223A25662C226869223AD7
:108CC00025662C226470223A25662C226B223A25D6
:108CD000667D004661696C656420746F2072656111
:108CE000642066726F6D204448542073656E736F04
:108CF00072210000000000000000000053570D002A
:108D000049570D003F570D0035570D0029570D00ED
:108D10001D570D0049610D0051610D0011570D00E7
:108D200009570D00FF560D00F5560D0081610D002D
:108D30006170700025592D256D2D25645425483A04
:108D4000254D3A2553257A0061736374696D65007A
:108D50000000000000000000395D0D00295D0D00DD
:108D60002B5D0D000000000000000000115E0D00F2
:108D7000795E0D004F5E0D00C1590D00415E0D0082
:108D8000135E0D00235E0D00735E0D00335E0D005B
:108D90000B5E0D0000000000000000001D5F0D00D4
:108DA0008B5F0D00635F0D00C1590D00335F0D0037
:108DB0004F5F0D00415F0D005D5F0D001F5F0D00F7
:108DC000255F0D00000000000000000011600D0094
:108DD0005B600D0033600D0013600D003B600D0003
:108DE00043600D004B600D0053600D00000000005B
:108DF00000000000EB600D00E1600D00D7600D0089
:108E00008D600D00CB600D00BF600D0049610D004D
:108E100051610D00B3600D00AB600D00A1600D004D
:108E200097600D0081610D0000000000000000004F
:108E300009610D0013610D001D610D0027610D001A
:108E400031610D003D610D0049610D0051610D0062
:108E500059610D0065610D006D610D0077610D00B8
:108E600081610D00302E300066616C73650000007A
:108E7000000000000000000097620D009D620D00E0
:108E8000B3620D00AB620D0099620D00000000009E
:108E9000706F77006C6F67660000000000000000D4
:108EA000000000000000304300000000000030C35C
:108EB00000202020202020202020282828282820AA
:108EC00020202020202020202020202020202020A2
:108ED000208810101010101010101010101010100A
:108EE00010040404040404040404041010101010FA
:108EF00010104141414141410101010101010101C4
:108F00000101010101010101010101011010101015
:108F10001010424242424242020202020202020295
:108F200002020202020202020202020210101010E9
:108F30002000000000000000000000000000000011
:108F40000000000000000000000000000000000021
:108F50000000000000000000000000000000000011
:108F60000000000000000000000000000000000001
:108F700000000000000000000000000000000000F1
:108F800000000000000000000000000000000000E1
:108F900000000000000000000000000000000000D1
:108FA00000000000000000000000000000000000C1
:108FB00000000000E9440D00DD510D005D570D007B
:108FC00085570D00B1590D00E15A0D00655B0D008C
:108FD000E55B0D00F5600D0055620D00000000001E
:048FE000000000008D
:108FE400488D0D0001000000ACE4032000000000E7
:108FF400000000000000000000000000000000006D
:10900400000000000000000000000000000000005C
:10901400000000000000000000000000000000004C
:10902400000000000000000000000000000000003C
:10903400000000000000000000000000000000002C
:10904400000000000000000000000000E5E703202D
:10905400FFFFFFFF00000102030405060708090AD9
:109064000B0C0D0E0F101112131415161718191AD4
:089074001B1C1D1E1F2028001B
:04907C0078563412DC
:04000003D0004020C9
:00000001FF
