:02000002D0002C
:1040000000400D00BC800D00000006000C00050102
:08401000040199080000000002
:04401800847D0D0096
:1040200009480A49884208B505D0094A824202D0A7
:10403000121A03F0FFFD0748074A0021121A03F085
:1040400007FE014808BD00BF0CE5032024800D00D9
:104050007CE5032080E50320F1E7032070B5074EDF
:10406000074C01F037FAA41BA4080025A54200D193
:1040700070BD56F8043B98470135F7E7FC7F0D000B
:1040800020800D0000F030BC08B500F043FCBDE816
:10409000084001F0D7B900F0EDBE00F0F3BE0078A3
:1040A000B0FA80F0400970470123037070470000A8
:1040B00010B503682F2B044604D9074A00210A20B3
:1040C00000F01CFE23681F2B83BF03F01F0303486F
:1040D00023604FF0A04010BD1D4B0D0000030050A9
:1040E00007B5019001A8FFF7E3FF019A0123934070
:1040F000C0F8083503B05DF804FB07B5019001A8CE
:10410000FFF7D6FF019BD0F81005D84000F0010062
:1041100003B05DF804FB10B5037201238171C27115
:10412000037410BD2DE9F04105461E4C8079DFF87F
:104130007880002101F0DEFCAE792378BFF35B8F3D
:1041400013F0010F0AD12046FFF7A9FF30B100F0AC
:10415000BDFCC8F800002046FFF7A6FFD8F80030E5
:1041600036019F5D2378BFF35B8FDB074FEA47176C
:104170000AD40C48FFF793FF30B100F0A7FCC8F851
:1041800000000848FFF790FFD8F8003033445B7810
:1041900003F01F0343EA0700FFF7A2FF0023EB60D1
:1041A000BDE8F08180E5032084E5032010B52DED06
:1041B000028B10EE104A03F05FF941EC180B204619
:1041C00003F06CF9B0EE481AF0EE681ABDEC028B01
:1041D00041EC100BBDE8104001F0DEBC0000000017
:1041E0002DE9F84310EE100A2DED028BB0EE608A37
:1041F000F0EE408A03F052F9044618EE100A0D461C
:1042000003F04CF954A3D3E9002306460F46204699
:10421000294603F09BF952A3D3E9002302F0DEFF05
:1042200051A3D3E90023804689463046394603F03E
:104230008DF902460B464046494602F0D1FF4CA399
:10424000D3E90023804689462046294603F07EF9BB
:1042500032463B4603F07AF902460B464046494651
:1042600002F0BEFFB0EE680A804602208946FFF7E2
:104270009DFF41A3D3E9002351EC100B03F066F935
:1042800042464B4602F0ACFFB0EE480A80460220A0
:104290008946FFF78BFF3AA3D3E9002351EC100BBB
:1042A00003F054F942464B4602F09AFFB0EE680A1A
:1042B000804602208946FFF779FF33A3D3E9002324
:1042C00051EC100B03F042F932463B4603F03EF945
:1042D00042464B4602F084FFB0EE480A06460220F2
:1042E0000F46FFF763FF59EC108B29A3D3E9002396
:1042F0002046294603F02AF942464B4603F026F9A8
:1043000032463B4602F06CFFB0EE680A04460220DB
:104310000D46FFF74BFF022059EC108BB0EE480A18
:10432000FFF744FF57EC106B1BA3D3E90023404673
:10433000494603F00BF932463B4603F007F92246A3
:104340002B4602F04DFF03F0F9FBBDEC028B00EEB3
:10435000100ABDE8F88300BFECD8CE1862640040B4
:104360008D976E1283304540CD495AB7624924403B
:10437000F847C607C9C4CCBFCC169C03FC017CBF60
:10438000248CD100FF10ACBFE5DC6087B521543F21
:10439000DA303301F9F14B3F01BDD3117EB1C0BE1C
:1043A0002DE9F84310EE100A2DED028BB0EE608A75
:1043B00003F074F89FED280A88EE000A04460D46C3
:1043C00001F0A0FD20A3D3E900232046294610EEEA
:1043D000106A03F0BBF81EA3D3E900238046894688
:1043E0002046294602F0FCFE02460B46404649465E
:1043F00003F0D6F9044630460D4603F04FF8024666
:104400000B462046294602F0EBFE11A3D3E9002318
:1044100006460F4603F09AF8324604460D463B46E0
:1044200009A1D1E9000102F0D9FE02460B4620465F
:10443000294603F0B5F903F081FBBDEC028B00EED9
:10444000100ABDE8F88300BF4C3789416045314010
:104450006666666666B66D400000C8422DE9F04F9C
:10446000044685B000F062FBE368834284BF00230A
:10447000E360237C2BB9E368C01AB0F5FA6FC0F093
:1044800060810025257400F051FBB04E2560257138
:10449000E060A7793378AE4DBFF35B8F13F0010F67
:1044A00009D13046FFF7FBFD28B100F00FFB286073
:1044B0003046FFF7F9FD2B683F0113F8078033788A
:1044C000BFF35B8FD9074FEA481809D49F48FFF71D
:1044D000E6FD28B100F0FAFA28609C48FFF7E4FDF9
:1044E0002B681F44787800F01F0040EA0800FFF7AF
:1044F000F7FDFA2000F07AFFA079012101F0FAFA25
:10450000A7793378BFF35B8FDA0709D48F48FFF7B9
:10451000C6FD28B100F0DAFA28608C48FFF7C4FD28
:104520002B683F01DB5D4FEA43183378BFF35B8FA5
:10453000DB0709D48548FFF7B2FD28B100F0C6FAC1
:1045400028608248FFF7B0FD2B681F4403A87B78E2
:1045500003F01F0343EA08030393FFF7A9FD039A3F
:1045600001239340C0F80C35142000F03FFF01F008
:10457000D9F8A7793378BFF35B8FD80709D473488C
:10458000FFF78DFD28B100F0A1FA28606F48FFF712
:104590008BFD2B683F0113F807803378BFF35B8FE7
:1045A000D9074FEA481809D46848FFF778FD28B1C1
:1045B00000F08CFA28606548FFF776FD2B681F44F1
:1045C000787800F01F0040EA0800FFF789FD2820F6
:1045D00000F0A4FAA079DFF87481002101F08AFAD2
:1045E00000270123BA4600934FF0000994F806B063
:1045F0003378BFF35B8FDA0709D44046FFF74FFDEE
:1046000028B100F063FA28604046FFF74DFD2B68A3
:104610004FEA0B1B13F80B305B0101933378BFF3A8
:104620005B8FDB0709D44046FFF739FD28B100F066
:104630004DFA28604046FFF737FD2B685B4493F83E
:1046400001B0019B0BF01F0B4BEA030B5846FFF721
:1046500054FD5846FFF751FD009B834209D109F1F3
:1046600001095FFA89F9012000F058FAB9F1FF0F4A
:10467000BCD194F806B03378BFF35B8FD80709D468
:104680004046FFF70CFD28B100F020FA28604046B4
:10469000FFF70AFD2B684FEA0B1B13F80B305B0189
:1046A00000933378BFF35B8FD90709D44046FFF7F7
:1046B000F6FC28B100F00AFA28604046FFF7F4FC47
:1046C0002B685B4493F801B0009B0BF01F0B4BEA87
:1046D000030B5846FFF711FD5846FFF70EFDB9F1E1
:1046E000FF0FC3B2009318D0032F11D9FA070FD4CC
:1046F0004FEADA020AF1010AA35C5B00DBB2A354C1
:10470000217A49453CBF43F00103A3545FFA8AFA7A
:104710000137FFB2552F7FF467AF01F005F8BAF10A
:10472000270F10D9637820781844A3781844E378C9
:1047300018442379C0B2C31A5842584105B0BDE8A5
:10474000F08F0120FAE70020F8E700BF80E50320A2
:1047500084E5032010B50446FFF780FE20B3E3791B
:104760000B2B1BD0153B012B1ED8A378DFED106A55
:1047700003F07F0207EE102AE27807EE902AB8EEE7
:10478000C77AF8EEE77A1B06E7EE267AB2EE047AED
:1047900087EE870A07D5B1EE400A04E0A37800EE61
:1047A000103AB8EE400A10BD9FED020AFBE700BFC9
:1047B000000080430000C07FFFF7CCBF08B5FFF7C3
:1047C000C9FFF2EE027A20EE270AF1EE047A80EEBB
:1047D000277A9FED020A37EE000A08BD000000426A
:1047E00008B5FFF7B7FF10EE100A02F057FE06A358
:1047F000D3E9002302F0F4FC03F0A0F900EE100A64
:1048000008BD00BFAFF30080666666666612714041
:1048100010B50446FFF722FEF0B1E3790B2B15D05B
:10482000153B012B18D82378DFED0D6A07EE103AFF
:10483000637807EE903AB8EE477AF8EEE77AE7EE5B
:10484000267AB2EE047A87EE870A10BD237800EE4E
:10485000103AB8EE400AF8E79FED020AF5E700BF0C
:10486000000080430000C07FFFF7D2BF10B52DEDE0
:10487000048B0446FFF76EFF2046F2EE028AB0EE8C
:10488000408AFFF7C5FF28EE288AB1EE049AF0EEC1
:10489000400A88EE090A20469FED078A30EE080A92
:1048A000FFF79EFC30EE480A20EE090A80EE280A47
:1048B000BDEC048B10BD00BF0000004210B52DED13
:1048C000028B0446FFF746FF2046B0EE408AFFF712
:1048D0009FFFF0EE400AB0EE480ABDEC028B204686
:1048E000BDE81040FFF75CBD08B500F0F5FE4FF4E1
:1048F000165100F0E5FE00F0EFFE044900F0EFFB7A
:10490000BDE808400248FFF70DBC00BF987D0D00D0
:1049100088E5032010B52DED068B4FF4FA6084B0C6
:1049200000F064FD5148FFF79FFF5048B0EE409AF9
:10493000FFF742FF4D48F0EE408AFFF73FFFB4EE2D
:10494000499AF1EE10FAB0EE408A09D6F4EE688A80
:10495000F1EE10FA04D6B4EE400AF1EE10FA08D7E0
:1049600000F0BAFE424900F0BAFB04B0BDEC068B81
:1049700010BD3E48FFF77AFF3C48F0EE409AFFF743
:104980009DFF3A48B0EE40AAFFF72AFFF0EE40AA9A
:1049900000F0A2FE374900F08FFB00F09DFEB0EE64
:1049A000490A022100F08CFC00F096FE324900F02A
:1049B00083FB00F091FE314900F07EFB00F08CFE9D
:1049C000B0EE680A022100F07BFC00F085FE2C4965
:1049D00000F072FB00F080FEB0EE480A022100F009
:1049E0006FFC00F079FE274900F066FB00F074FED2
:1049F000B0EE6A0A022100F063FC00F06DFE22496D
:104A000000F05AFB00F068FE204900F055FB00F072
:104A100063FEB0EE4A0A022100F052FC00F05CFE98
:104A20001B4900F049FB00F057FE1A4900F044FB17
:104A300000F052FEB0EE690A022100F041FC00F0E5
:104A40004BFE154900F04BFB00F046FE044600F01B
:104A5000B2FC0246C317684600F058FC0099204695
:104A600000F03DFB684600F097FA7EE788E50320FA
:104A7000A47D0D00C47D0D00CC7D0D00D17D0D0009
:104A8000D87D0D00DC7D0D00E07D0D00E67D0D0084
:104A9000ED7D0D00F37D0D00FB7D0D00024806232A
:104AA0000B220221FFF737BB88E5032008B5024B34
:104AB0001B689B68019308BD6802030008B5024BA0
:104AC0001B68DB68019308BD6802030008B5024B50
:104AD0001B681B68019308BD2C02030008B5024B3C
:104AE0001B689B68019308BD2C02030008B5024BAC
:104AF0001B681B6A019308BD2C02030008B5024B1A
:104B00001B685B6A019308BD2C02030008B5024BC9
:104B10001B685B68019308BD1802030008B5024BCF
:104B20001B68DB68019308BD1802030008B5024B3F
:104B30001B685B69019308BD1802030008B5024BAE
:104B40001B689B6D019308BD1802030008B5024B5A
:104B50001B685B6E019308BD1802030008B5024B89
:104B60001B685B6C019308BD4802030008B5024B4B
:104B70001B685B69019308BD6402030008B5024B22
:104B80001B681B68019308BD3C02030008B5024B7B
:104B90001B68DB68019308BD3C02030008B5024BAB
:104BA0001B681B69019308BD3C02030008B5024B5A
:104BB0001B685B69019308BD3C02030008B5024B0A
:104BC0001B689B69019308BD3C02030008B5024BBA
:104BD0001B68DB69019308BD3C02030008B5024B6A
:104BE0001B681B6A019308BD3C02030008B5024B19
:104BF0001B689B6A019308BD3C02030008B5024B89
:104C00001B681B6A019308BD2802030008B5024B0C
:104C10001B685B6A019308BD2802030008B5024BBC
:104C20001B689B6A019308BD2802030008B5024B6C
:104C30001B68DB6A019308BD2802030008B5024B1C
:104C40001B681B6B019308BD2802030008B5024BCB
:104C50001B685B6B019308BD2802030008B5024B7B
:104C60001B681B6C019308BD2802030008B5024BAA
:104C70001B68DB69019308BD3002030008B5024BD5
:104C80001B681B6A019308BD3002030008B5024B84
:104C90001B681B68019308BD4C02030008B5024B5A
:104CA0001B685B68019308BD4C02030008B5024B0A
:104CB0001B681B69019308BD4C02030008B5024B39
:104CC0001B685B69019308BD4C02030008B5024BE9
:104CD0001B689B69019308BD4C02030008B5024B99
:104CE0001B68DB69019308BD4C02030008B5024B49
:104CF0001B681B6A019308BD4C02030008B5024BF8
:104D00001B685B6B019308BD6002030008B5024B92
:104D10001B681B68019308BD2002030008B5024B05
:104D20001B685B68019308BD2002030008B5024BB5
:104D30001B685B69019308BD2002030008B5024BA4
:104D40001B689B6D019308BD2002030008B5034B4F
:104D50001B68D3F88830019308BD000020020300CF
:104D600008B5034B1B68D3F89430019308BD0000CD
:104D70002002030008B5024B1B685B68019308BD65
:104D80004002030008B5024B1B689B68019308BDF5
:104D90004002030008B5024B1B68DB68019308BDA5
:104DA0004002030008B5024B1B681B69019308BD54
:104DB0004002030008B5024B1B685B69019308BD04
:104DC0004002030008B5024B1B689B69019308BDB4
:104DD0004002030008B5024B1B68DB69019308BD64
:104DE0004002030008B5024B1B681B6A019308BD13
:104DF0004002030008B5024B1B681B6B019308BD02
:104E00004002030008B5024B1B685B6B019308BDB1
:104E10004002030008B5024B1B681B6C019308BDE0
:104E20004002030008B5024B1B685B6C019308BD90
:104E30004002030008B5024B1B689B68019308BD44
:104E40004402030008B5024B1B685B69019308BD6F
:104E50004402030008B5024B1B681B6B019308BD9D
:104E60004402030008B5024B1B68DB6B019308BDCD
:104E70004402030008B5024B1B681B68019308BD80
:104E80001C02030008B5024B1B685B68019308BD58
:104E90001C02030008B5024B1B689B68019308BD08
:104EA0001C02030008B5024B1B681B69019308BD77
:104EB0001C02030008B5024B1B68DB6B019308BDA5
:104EC0001C02030008B5024B1B685B6C019308BD14
:104ED0001C02030008B5024B1B68DB6C019308BD84
:104EE0001C020300002240681146FFF77BBF00222E
:104EF00040681146FFF786BF40680022FFF77ABF7F
:104F00004068002281F00101FFF764BF0023406880
:104F10001A461946FFF756BF002340681A4619463D
:104F2000FFF748BF002240681146FFF73BBF002251
:104F300040681146FFF726BF406800220221FFF7B4
:104F400029BF002340681A46FFF714BF024B032213
:104F50005A60024A1A6070479CE50320087E0D00E3
:104F600010B5044608462170FFF780FE00236360F9
:104F7000204610BD054B02221A60054B054A9A6077
:104F80000020186098809871FFF7C8BEB0E5032034
:104F9000A4E503200000FFFF10B504460068FFF7FA
:104FA00071FF204610BD10B50446006808B1FFF738
:104FB00069FF0023C4E90133236010BD38B50446FE
:104FC0000D4600680131FFF765FF10B1C4E9000527
:104FD000012038BD10B50368044623B143688B42F5
:104FE00001D3012010BD2046FFF7E8FF0028F9D0CB
:104FF000A368002BF5D122681370F2E737B50D4690
:10500000114601920446FFF7E5FF019A28B92046B0
:10501000FFF7C9FF204603B030BDA26029462068D3
:1050200002F008FE2268A3680021D154F2E70023B1
:1050300013B5C0E9003304468360037341B10846E9
:10504000019102F031FE019902462046FFF7D6FF9A
:10505000204602B010BD0000024800230360FFF7A5
:105060007DBD00BFB4E50320F8B506460D468F1898
:105070000024BD420CD0336815F8011B9B683046F4
:105080009847031E01DB1C44F3E7002C08BF1C46B5
:105090002046F8BD13B50446084659B1019102F007
:1050A00003FE23680199DB680246204602B0BDE892
:1050B0001040184702B010BD08B5FFF7EBFF08BD60
:1050C00003689B68184738B50D210546FFF7F8FFC0
:1050D0000A2104462846FFF7F3FF204438BD38B5BF
:1050E0000546FFF7D7FF04462846FFF7ECFF2044AC
:1050F00038BD30B58BB000238DF82430012A98BF1D
:105100000A2209AC0D46B1FBF2F101FB125303F088
:10511000FF03092B94BF30333733DBB2AA4204F8C4
:10512000013DEFD92146FFF7B5FF0BB030BD0000C0
:105130002DE9F74F55EC104B06460F4610EE102A9E
:1051400010EE100A2B46294602F09AFC40B1534952
:105150003046FFF79FFF8246504603B0BDE8F08F10
:1051600025F000494E4B4FF0FF322046494602F0F1
:1051700087FC48B94A4B4FF0FF322046494602F0BF
:1051800061FC08B94749E3E7474B4FF060422046CE
:10519000294602F06BFC08B14449D9E7444B4FF073
:1051A00060422046294602F043FC0028F4D1002248
:1051B00000232046294602F03BFCD0B12D21304689
:1051C000FFF77EFF05F1004382461D463949DFF8AF
:1051D000EC904FF0000B00204FF000085FFA8BF3CB
:1051E0009F4208D942464B4602F0DAFA0BF1010B16
:1051F000F4E78246EAE722462B4601F0F1FF0D462E
:10520000044602F07BFC804602F026F902460B467B
:105210002046294601F0E2FF0A2204460D463046A8
:105220004146FFF766FF824427B123493046FFF726
:1052300031FF8244DFF884904FF00008013FFFB255
:10524000FF2F89D042464B462046294602F07EF980
:1052500004460D4602F02AFCB0F1000B1ADA2D21AB
:105260003046FFF72DFFCBF1000103460A223046FE
:105270000193FFF73EFF019B18448244584602F019
:10528000FBF802460B462046294601F0A7FF0446DC
:105290000D46D3E759460023E8E700BF3C7E0D00EA
:1052A000FFFFEF7F407E0D00FFFFEF41447E0D00CA
:1052B000FFFFEFC10000E03F487E0D0000002440EA
:1052C00038B5044610EE100ACDB202F0E7F841EC12
:1052D000100B29462046BDE83840FFF729BF0000E3
:1052E000014B024A1A607047B8E503204A7E0D0060
:1052F00008B50020FFF7AEFD28B1FFF7A3FD80F051
:105300000100C0B208BD0120FCE7000030B5044632
:105310001848D0E90010521840EB03031648D0E9B2
:105320000010521893B040EB0303CDE90023242270
:105330000DEB0200002102F08BFC002509A9684654
:10534000FFF7C8FD1622294603A8029502F080FC4B
:1053500002A909A802F042FC02A802F0A5FC12ABC7
:10536000184402A900F8415C2046FFF760FE204681
:1053700013B030BDC8E50320C0E5032010B5002000
:10538000FFF7DCFB0446A0B9FFF7C0FC012810D1F1
:105390002046FFF7D3FC60B9FFF7AAFF10B9FFF76B
:1053A00049FDF9E7FFF7A4FFBDE810400020FFF733
:1053B000C5BB204610BD1FB5FFF7E0FF102200213E
:1053C000684602F045FC00216846FFF7BFFB0098E5
:1053D00005B05DF804FB0000024B1A68024B1A602E
:1053E000704700BF0CE50320BCE503200021FFF758
:1053F0009DBC0000014B00229A607047D0E503205D
:10540000014B1860704700BF14E5032008B50B4B33
:1054100043B100F061F903681B699847002801DD7A
:10542000AFF30080064B43B100F0D4F903681B6969
:105430009847002801DDAFF3008008BD00000000A0
:105440000000000008B5FFF7E1FFFFF76FFB014B1D
:10545000186008BD3CE703200548064A064908B520
:10546000121A02F0E7FB054B054A1A6008BD00BF9F
:1054700000F4032004F4032020800D0000F4032036
:105480001E1C279A07B5002300931A466FF0770178
:10549000FFF766FC03B05DF804FB000007B5438826
:1054A0000A2B08D0502B0BD1094B1B684BB103B012
:1054B0005DF804EB1847FFF7E5FF03B05DF804FB68
:1054C000002300931A466FF07701FFF749FCF4E7D9
:1054D000E4E5032010B512480021FFF7F3FC114B5F
:1054E0001A68114B9A42114B0CBF012200221A700C
:1054F00001D0FFF7B1FFFFF709FB044602F0B0FB54
:105500000B4B13B12046AFF3008000210848FFF792
:10551000A9FCBDE8104007480021FFF717BC00BFF9
:1055200001540D0000F403201E1C279AE0E503201F
:10553000000000009D540D00704710B5182104466E
:1055400000F026FB204610BDF0B5037D062B8DB084
:105550000E4600F104074FF0000412D000F10805D8
:1055600015F8011D0A223046FFF7C3FDAF4204447F
:1055700019D0002CF4D02E213046FFF7A1FD0444B1
:10558000EEE72F236A4639460A208DF80040FFF7E0
:10559000EDFA684602F088FB33680246DB6869462C
:1055A00030469847044620460DB0F0BD10B5054B77
:1055B0000446112240F8043B002102F049FB20463A
:1055C00010BD00BF747E0D000346074A10B543F8B6
:1055D000042B01F1100251F8044B43F8044B9142A3
:1055E000F9D10A781A7010BD747E0D0010B59DF8BF
:1055F000084044EA032343EA024242EA01610423E9
:105600004160037510BD13B5CB7800938B784A7851
:105610000978FFF7EBFF02B010BD41747047704787
:10562000704708B50021007CFFF750FB40EAE070AE
:1056300008BD08B50121007CFFF748FB40EAE07097
:1056400008BD08B5007CFFF739FB20EAE07008BD13
:1056500008B5007CFFF72AFB20EAE07008BD13B50F
:105660000446007C0191FFF729FB0028019901DC29
:10567000607C20B1207CFFF731FB20EAE07002B0B3
:1056800010BD007CFFF732BB10B51421044600F0BA
:105690007FFA204610BD000010B54FF47A7304461F
:1056A00008460021C4E90113044B23600123207440
:1056B00063741146FFF7EAFA204610BD887E0D009C
:1056C000007C0022FFF7EABA10B51422044600213C
:1056D00002F0BEFA204610BD10B50F4C88B003A8EA
:1056E000FFF7F2FF2178BFF35B8F11F001010FD1BB
:1056F00020460191FEF7D3FC019948B103AA07485F
:10570000FFF7CAFF2046FEF7CFFC054802F08CFAEF
:10571000024808B010BD00BFE8E50320ECE5032017
:105720001F560D00FFF7EAB9FFF7E0B97047417463
:105730007047704708B5007CFFF758FA20EAE07020
:1057400008BD08B5007CFFF729FA20EAE07008BD23
:1057500008B5007CFFF732FA40EAE07008BD08B5F2
:10576000007CFFF723FA40EAE07008BD007CFFF7F9
:105770002DBA37B5457C04462DB1207C03B0BDE879
:105780003040FFF703BA007C0191FFF72FFA0028A1
:105790000199F2DC284603B030BD10B5142104464F
:1057A00000F0F6F9204610BD10B54FF0000C04468D
:1057B000084611464FF47A72C4E901C2044A2260D5
:1057C0000122207462741A46FFF7D8F9204610BDF2
:1057D000B87E0D0013B50D4C2178BFF35B8F11F02F
:1057E000010110D120460191FEF759FC019950B1F9
:1057F000074B084A0848FFF7D7FF2046FEF754FC3E
:10580000064802F011FA044802B010BD00E6032079
:1058100088E6032004E603200CE7032033570D003D
:105820007047F8B5064615460C468F18BC4206D0A0
:10583000336814F8011B9B6830469847F6E7284602
:10584000F8BD007C0022FFF7D9B9007C0021FFF7EA
:10585000DDB9007C0021FFF7E1B9007C0021FFF7F2
:10586000E5B9007C0021FFF7E9B910B51421044621
:1058700000F08EF9204610BD10B54FF47A7304463F
:1058800008460021C4E90113034B2360207411462C
:10589000FFF7E4F9204610BDE87E0D0000224068C5
:1058A0001146FFF77FBA002240681146FFF79ABA07
:1058B000002240681146FFF7A5BA40680022FFF7B2
:1058C00099BA4068002281F00101FFF783BA0023F2
:1058D00040681A461946FFF775BA002340681A4611
:1058E0001946FFF767BA002240681146FFF74ABA27
:1058F000406800220221FFF74DBA002340681A4693
:10590000FFF738BA024B04225A60024A1A60704705
:1059100020E70320107F0D00002340681A46FFF7A0
:1059200029BA406800220221FFF734BA00224068F9
:105930001146FFF727BA002240681146FFF732BA36
:10594000002340681A461946FFF734BA002340681E
:105950001A461946FFF736BA40680021FFF75ABACF
:1059600040680021FFF75EBA4068002281F0010123
:10597000FFF730BA40680022FFF73CBA00224068C7
:105980001146FFF73FBA002240681146FFF72ABAD6
:105990002DE9F043002495B016460D460746FFF763
:1059A00005FE214618220EA8009402F051F940236A
:1059B000CDE90C3421466B460CAA3046FFF77EF841
:1059C0000446002846D1024601216868FFF7EAF93B
:1059D0000221804622466868FFF7E4F9009E81466E
:1059E0002146002E36D0002934D17368022B03D013
:1059F0000A2B0BD0F669F4E7B8F1000F04D07169F7
:105A000038460431FFF7FFFD4146F3E7B9F1000FD7
:105A100001D14946EEE77469102201A802F018F995
:105A200006238DF8143001AD04F10803183418680A
:105A300059682A4603C20833A3421546F7D101A983
:105A400006A807ADFFF7C0FD0FCD3C1D0FC42B68A6
:105A50002370DEE70098FFF729F8384615B0BDE857
:105A6000F0830000024B034A1A6000225A6070471C
:105A700028E703204C7F0D00232813B502D900200E
:105A800002B010BDA0F10B03022B1AD8174C2178DD
:105A9000BFF35B8F11F001010BD120460191FEF79E
:105AA000FEFA019928B11248FFF75AFA2046FEF78C
:105AB000FBFA0F4B1878FFF7E1F80028DFD101203F
:105AC000DEE7012809D800F03FF80021007CFFF74D
:105AD000BDF880F00100C0B2D2E709380128EED845
:105AE000FFF778FE007CFFF779F8F2E730E7032054
:105AF00034E70320232838B504460D460AD8FF2989
:105B000008D0FFF7B9FF28B129462046BDE8384044
:105B1000FEF7E4BF38BD704738B500232025438029
:105B2000142304460380856005610649284600F079
:105B300031F804496060284600F02CF8E060204607
:105B400038BD00BF807F0D0030B50E4D2978BFF302
:105B50005B8F11F0010487B011D12846FEF79FFA40
:105B600068B101A8FFF7D8FF01AA21460648FFF750
:105B700083FE2846FEF798FA044802F055F80248DA
:105B800007B030BD40E7032044E70320175B0D005A
:105B9000FEF783BAFEF77FBA2DE9F04F2DED028BA9
:105BA0008DB057EC106B55EC114B00F02DFAAE4B4D
:105BB000B0EE408AF0EE608A93F90090B9F1FF3FB1
:105BC00037D022462B462046294601F059FF83460E
:105BD00078BB32463B463046394601F051FF80469D
:105BE000002840F093804FF0000A4FF0000B304641
:105BF000394652465B4601F011FF18B352465B46E8
:105C00002046294601F00AFF0090002857D0974B04
:105C1000CDF828800122CDE90467CDE90645CDE91C
:105C200008AB02920393B9F1000F00F089809FED59
:105C30008A8BB0EE480AF0EE680A0DB0BDEC028B1C
:105C4000BDE8F08FB0EE480AF0EE680A01F084F982
:105C50008046002800F082804FF000084FF00009D5
:105C600051EC180B42464B4601F0D8FE0028E0D01C
:105C700047EC106B01F070F90028DAD045EC104BBE
:105C800001F06AF90028D4D0774B784A93F90030B4
:105C9000039204210022022BCDE90467CDE90645D9
:105CA000CDE9088902910A9204D002A801F060F9B6
:105CB00000284AD1FFF7FEF82223036045E045ECB7
:105CC000104B01F049F90028B3D052465B462046FC
:105CD000294601F0ADFE0028ABD0634B0099634A22
:105CE00093F900300A910121CDE90467CDE9064519
:105CF000CDE90212002B6FD1CDE908AB02A801F06B
:105D000037F900286ED00A9B2BB320E00022002335
:105D10002046294601F082FE00288AD09FED4E8B56
:105D2000524BCDF828B00122B9F1020FCDE904673A
:105D3000CDE906458DED088B029203933FF479AFD0
:105D400002A801F015F9002851D00A9B1BB1FFF7FA
:105D5000B1F80A9B03609DED088B6AE747EC106B76
:105D600001F0FAF800283FF477AF45EC104B01F052
:105D7000F3F800283FF470AF53EC182B18EE100A1C
:105D8000194601F07DFE384B002840F0968093F9CB
:105D900000800A9003230293344B0393CDE90467F8
:105DA000CDE90645B8F1000F26D1DFF8D0904FF0CD
:105DB000604852465B4630463946CDE9088901F0D5
:105DC00037FE48BB02A801F0D3F800289BD1FFF7AB
:105DD00071F82223036096E725490020022BCDE9C4
:105DE00008018BD1FFF766F8212303608BE7FFF7EB
:105DF00061F821230360A8E79FED197B52465B46BB
:105E0000304639468DED087B01F012FE002837D16F
:105E1000B8F1020FDBD0D5E7164B00222046294609
:105E200001F094FB02460B4643EC102BCDE9002316
:105E300001F0AAF8DDE9002351EC100B01F0EEFDB2
:105E4000002836D10C4B08494FF06042CDE90823B9
:105E500091F90080DCE700BF000000000000F03F87
:105E6000000000000000F07F10E50320847F0D009B
:105E70000000F0FF0000E03FFFFFEFC7FFFFEF472C
:105E80001C4B00222046294601F060FB02460B46CF
:105E900043EC102BCDE9002301F076F8DDE9002377
:105EA00051EC100B01F0BAFD18B9134B0022CDE9EB
:105EB0000823124B93F90080AAE793F90090104B46
:105EC000CDF828800122CDE90467CDE90645CDE96A
:105ED0000223B9F1000F3FF40FAF52465B46504624
:105EE000594601F05DFCB9F1020FCDE908013FF41C
:105EF00079AF03E70000E03F0000F0FF10E503206A
:105F0000847F0D0010B52DED028B8AB0B0EE408A73
:105F100000F018FF374B93F90040631C33D0B4EE08
:105F2000488AF1EE10FA2ED6B5EEC08AF1EE10FADC
:105F300029DC314B019318EE100A0023089301F07D
:105F4000ADFACDE90401CDE9020104B32B4BB5EE66
:105F5000408A0022F1EE10FACDE9062341D1022356
:105F60009C42009337D1FEF7A5FF22230360089BD4
:105F70002BB3FEF79FFF089B0360DDE9060101F0EC
:105F8000DDFD00EE100A0AB0BDEC028B10BD1C4B0B
:105F9000B5EE408A4FF06042F1EE10FACDE90623EB
:105FA00017D001230093684600F0E2FFE8B11548DE
:105FB00000F0E2FF8DED060B089B002BD9D1DDE947
:105FC000060101F0BBFD00EE100A0AB0BDEC028B29
:105FD00010BD02230093684600F0CAFF0028EBD1F1
:105FE000C1E70123022C0093DDD1FEF763FF2123DB
:105FF0000360DCE710E50320887F0D000000F0FF60
:10600000FFFFEFC78C7F0D002DE9F04F57EC116BB0
:106010002DED0A8B27F0004A5AEA060289B03DD0DE
:1060200055EC104B764925F00048884510EE102AB3
:10603000A9462CDC11EE103ABB463AD08A4526DC44
:106040006F498A4521D0B9F1000F3DDB0021039152
:10605000002B55D16A4B9A4500F0A880694B9A45B0
:1060600000F0B680BBF1804F00F00185664B9B4588
:1060700046D1B9F1000F43DB45EC104B09B0BDEC44
:106080000A8BBDE8F04F00F099BD002BDBD008F182
:10609000404808F5801858EA02030DD19FED547B63
:1060A0008DED007B9DED000B09B0BDEC0A8BBDE8CA
:1060B000F08F0CB9C245C3DD544809B0BDEC0A8B62
:1060C000BDE8F04F00F058BF51498A4500F3878082
:1060D000A1F154718A450FDD4FEA2A51A1F2FF3137
:1060E000142940F3CE84C1F1340123FA01F000FAFF
:1060F00001F1994200F0208500210391002BADD0E1
:1061000045EC104B069200F01DFF069A8DED000B3A
:106110005ABBB8F1000F04D03A4B29F040429A42E2
:1061200023D1BBF1000F07DADDE900233549002058
:1061300001F036FBCDE90001B9F1000FB2DA039BA3
:1061400008F1404808F5801858EA030340F0BE847F
:10615000DDE900231046194601F040F802460B46DF
:1061600001F01EFBCDE900019CE7039A4FEAD973C9
:10617000013B0693134335D0264B9A454EDD03F180
:1061800004739A45244B40F3ED83984540F36B83A9
:10619000BBF1000F40F36B8317A3D3E90023104634
:1061A000194601F0D3F9CDE900017BE708F140433E
:1061B00003F5801313433FF471AF174B984540F339
:1061C0008883BBF1000FC0F25283CDE9006769E715
:1061D000BBF1000FC0F24184CDE9004562E7022126
:1061E000039135E722462B46B4E700BFAFF30080AA
:1061F000000000000000F03F9C7500883CE4377E02
:106200000000F07F0000F03F0000E03F8C7F0D00B9
:10621000FFFF3F430000E041FFFFEF3FE44B09EA8F
:106220000303002B40F01684DDE90001E14B00225E
:1062300001F08CF9CDE90001DDF804806FF0340045
:106240004FEA2853DC49C8F31302A3F2FF3342F0AC
:106250007F5818188A42079048F4401840F3E983A1
:10626000D64B9A4240F33E849FEDBB7BB0EE47BADB
:10627000F0EE67BAB0EE47CAF0EE67CA9FEDB87BA2
:10628000013054EC173B0790A8F580184FF0000937
:10629000DDE900AB44EC183B1A4650462346414624
:1062A00000F09CFF53EC182B04460D465046414627
:1062B00000F096FF02460B460020C14901F070FA3B
:1062C00045EC1A4B41EC190B51EC1A0B53EC192B02
:1062D00001F03CF9C3464FEA680848F0005808F559
:1062E000002303EB09050A4600230146CDE900120D
:1062F0000093DDE900890024CDE904122B462246F3
:106300004046494601F022F902460B4651EC1A0B71
:1063100000F064FF41EC170B53EC182B2046294684
:1063200055EC174B00F05AFF02460B4650465946B3
:1063300000F054FF42464B4601F008F902460B4676
:106340002046294600F04AFF53EC192B01F0FEF8D5
:10635000DDE904AB04460D4652465B4650465946BD
:1063600001F0F4F880A3D3E9002345EC1A4B04466E
:106370000D4601F0EBF87EA3D3E9002300F030FFD7
:1063800022462B4601F0E2F87BA3D3E9002300F07C
:1063900027FF22462B4601F0D9F879A3D3E9002341
:1063A00000F01EFF22462B4601F0D0F876A3D3E979
:1063B000002300F015FF22462B4601F0C7F874A316
:1063C000D3E9002300F00CFF22462B4604460D467D
:1063D0001046194601F0BAF802460B4620462946F7
:1063E00001F0B4F8424604460D464B465046594625
:1063F000CDE904AB00F0F4FE53EC1A2B01F0A6F843
:1064000022462B4600F0ECFE424604460D464B4623
:106410004046494601F09AF845EC194B694B002279
:1064200082468B4600F0DCFE53EC192B00F0D8FEC0
:10643000009C0D4622462B464046494601F086F810
:10644000604B8046894600222046294600F0C6FE61
:1064500052465B4600F0C2FE02460B4651EC190B59
:1064600000F0BCFEDDE9042301F070F849EC188B64
:106470002246804689462B4651EC1A0B01F066F8FD
:1064800002460B464046494600F0AAFE82468B462D
:1064900052465B4651EC180B00F0A2FE009C3EA356
:1064A000D3E9002320460D4601F050F853EC182B99
:1064B000804689462046294600F090FE02460B465B
:1064C0005046594600F08AFE35A3D3E9002301F077
:1064D0003DF849EC198B34A3D3E900238046894663
:1064E0002046294601F032F802460B46404649460E
:1064F00000F076FE53EC1C2B00F072FE82460798EB
:106500008B4600F0B9FF5246804689465B4651EC07
:10651000190B00F065FE53EC1B2B00F061FE4246A8
:106520004B4600F05DFE009C42464B4620460D4621
:1065300000F054FE53EC1B2B00F050FE53EC192BD3
:1065400000F04CFE02460B465046594600F046FE0F
:1065500082468B4638E000BF0000000000000000CB
:10656000000000000000F03FEF4E454A287ECA3F81
:1065700065DBC9934A86CD3F01411DA96074D13FB7
:106580004D268F515555D53FFFAB6FDBB66DDB3FC9
:10659000033333333333E33F000000E009C7EE3FFA
:1065A000FD033ADC09C7EE3FF5015B14E02F3EBE68
:1065B0000000F07F000040438E98030079B60B0086
:1065C0000000F03F00000840039B069A013B134384
:1065D00040F078819FEDC47BB0EE479AF0EE679A69
:1065E0000023CDE900670093DDE90089304642468B
:1065F00039464B4600F0F2FD22462B4600F0A6FF3E
:1066000032463B4606460F465046594600F09EFF2E
:1066100002460B463046394600F0E2FD42468246CD
:106620008B464B462046294600F090FF06460F4613
:106630003B4650465946324600F0D2FDC44B994283
:1066400004460D46884640F3178101F13F4303F5A8
:10665000E003034340F02A82A5A3D3E90023504678
:10666000594600F0BDFD324641EC180B3B46204632
:10667000294600F0B3FD02460B4651EC180B01F021
:10668000F5F9002840F01282C8F30A534FF4801243
:10669000A3F2FE3342FA03F34344AE49C3F30A5272
:1066A000A2F2FF3241FA02FCC3F3130523EA0C0104
:1066B000C2F1140445F48015B8F1000F0B4645FAF9
:1066C00004F103914FF00000B8BF49420246B8BF41
:1066D00003913046394600F081FD06460F463B46A1
:1066E00050465946324600F07BFD039B1B05009344
:1066F0000D46002480A3D3E900232046294600F05C
:1067000025FF3246804689463B462046294600F012
:1067100065FD02460B465046594600F05FFD78A3E2
:10672000D3E9002300F012FF77A3D3E90023064644
:106730000F462046294600F009FF02460B46304628
:10674000394600F04DFD06460F4632463B46404670
:10675000494600F045FD42464B4604460D4600F0D2
:106760003DFD02460B463046394600F037FD2246D5
:1067700082468B462B462046294600F0E7FE64A35E
:10678000D3E9002306460F4600F0E0FE62A3D3E9FA
:10679000002300F023FD32463B4600F0D7FE60A305
:1067A000D3E9002300F01CFD32463B4600F0CEFE4C
:1067B0005DA3D3E9002300F011FD32463B4600F013
:1067C000C5FE5BA3D3E9002300F00AFD32463B4639
:1067D00000F0BCFE02460B462046294600F0FEFCB7
:1067E00006460F4632463B462046294600F0AEFE9E
:1067F0000022804689464FF080433046394600F0FB
:10680000EDFC02460B464046494600F0C9FF5246A1
:1068100006460F465B462046294600F097FE524644
:106820005B4600F0DDFC02460B463046394600F080
:10683000D5FC22462B4600F0D1FC02460B46002038
:10684000454900F0CBFC0B4600991944B1F5801F77
:106850000246C0F26981104653EC192B00F076FE17
:10686000CDE900011EE4BBF1000FFFF695AC9FEDF2
:10687000327B8DED007B15E4DFF8E4C021F00043AE
:10688000634540F30B81354B0B4403430AD1324639
:106890003B4600F0A3FC52465B4601F0DDF80028C1
:1068A0003FF4F2AE26A3D3E9002351EC190B00F01C
:1068B0004DFE23A3D3E9002300F048FECDE90001FB
:1068C000FFF7F0BB9FED207BB0EE479AF0EE679AA2
:1068D00086E6BBF1000FCADA07F100430096019388
:1068E000FFF7E0BBAFF30080000000000000F0BF46
:1068F000FE822B654715973C00000000432EE63FC3
:10690000EF39FAFE422EE63F396CA80C615C20BEDE
:10691000D0A4BE726937663EF16BD2C541BDBB3EA5
:106920002CDE25AF6A56113F93BDBE166CC1663F83
:106930003E5555555555C53F00000000000000006C
:1069400059F3F8C21F6EA501000000000000F03FDF
:10695000FFFF8F40FFFF0F000000F03F00346F3F4C
:10696000FFCB90409845FFF67EAF914B98453FF79F
:106970000FAC8F4B0022DDE9000100F02FFC78A363
:10698000D3E9002304460D4600F0E0FD76A3D3E9E9
:10699000002382468B462046294600F0D7FD854BD2
:1069A0008046894600222046294600F0CFFD024657
:1069B0000B466FA1D1E9000100F010FC22462B46E6
:1069C00000F0C4FD02460B4600207B4900F006FCA7
:1069D00022462B4604460D461046194600F0B6FDE9
:1069E00002460B462046294600F0B0FD62A3D3E9DB
:1069F000002300F0ABFD02460B464046494600F03E
:106A0000EDFB804689465046594642464B4600F0CB
:106A1000E7FB002452465B4620460D4600F0DEFBB5
:106A200002460B464046494600F0D8FB82468B465C
:106A3000CAE59FED537BB0EE47BAF0EE67BAB0EE11
:106A400047CAF0EE67CA9FED507B4FF0000954EC47
:106A5000173B1DE40020FFF7F3BB554922462B46A8
:106A6000002000F09DFECDE90001FFF71BBB224690
:106A70002B462046294600F069FDCDE90001FFF7CD
:106A800011BB002B42D1C1F114014AFA01F000FA06
:106A900001F151455AD00393FFF7E0BA464A9342B9
:106AA0005BDCDDE900120091039122E638A3D3E913
:106AB000002351EC190B00F049FD35A3D3E9002365
:106AC00000F044FDCDE90001FFF7ECBA039B012B78
:106AD0007FF4E8AADDE9002101F10043CDE90023BC
:106AE000FFF7E0BA9FED2C7BB0EE47BAF0EE67BA45
:106AF0009FED2B7BB0EE47CAF0EE67CA9FED2A7B75
:106B00004FF4802954EC173BFFF7C2BB45EC104B08
:106B1000039200F017FA039A8DED000B002A7FF420
:106B200061AB0392FFF7F5BA039843EC102B00F02A
:106B3000BFFA51EC100B8FE600F00100C0F102012A
:106B40000391002B3FF48AAAFFF7DABA00F00100A4
:106B5000C0F102030393FFF781BA1B1596E500BF4E
:106B6000000000604715F73F44DF5DF80BAE543E70
:106B7000555555555555D53FFE822B654715F73F61
:106B80000000000000000000000000000000F03FD6
:106B90009C7500883CE4377E0000004003B8E23F6B
:106BA00006D0CF43EBFD4C3E000000000000F83F54
:106BB0000000F03F0000D03F0000E03F2DE9F04131
:106BC0005F4A57EC106BBA4300F09880002F10EE2C
:106BD000104A3B464EDD39155BD0C3F31303CA0799
:106BE00043F48013A1F2FF3E03D45B0003EBD473A4
:106BF0006400E20F4FF0000C02EB43034FEA6E0E0D
:106C00006400664616254FF40012B118994202DC62
:106C10005B1A8E1894445B00013D03EBD4734FEA7A
:106C200052024FEA4404F0D12F4620204FF0004298
:106C300009E03ED0E10F01384FEA520201EB430375
:106C40004FEA44043ED0B34202EB0501F1DD0029D6
:106C500001EB020509DBB0469B1BA14288BF03F193
:106C6000FF33641A17444646E4E7002DF3DB06F1D0
:106C70000108F1E727F00042324336D0002F4DD112
:106C80003946E20A153964051346002AF9D0D702BD
:106C900051D400205B00DE02054600F10100F9D569
:106CA0001A4623468440C0F12000C3401343491BC9
:106CB00093E7A142BED8002901EB0205D5DB984637
:106CC0000023CEE7234312D178084FEA6C0101F18B
:106CD0007F511CF0010F01F5001118BF40F000407A
:106CE00001EB0E53024643EC102BBDE8F0817B1CF8
:106CF00016BF781C0CF1010C4008E6E710EE102AD4
:106D000010EE100A3B46394600F020FC32463B4666
:106D100000F066FA41EC100BBDE8F08110EE102A8D
:106D20003046394600F05AFA02460B4600F038FD6C
:106D300041EC100BD9E7234620204FF0FF35B4E794
:106D40000000F07F10EE103A33F000422DD0002BFF
:106D500032DBB3F1FF4F3FDAB3F5000F30B432DB73
:106D600000256848684CC3F31601084400F400028B
:106D7000DB1582F07E527F3B0A432B4400EE102A43
:106D800001F10F05F7EE007A2C4030EE670A03EBB5
:106D9000D05324BBB5EE400AF1EE10FA61D1002BBE
:106DA00040F093809FED590A59E09FED597ADFED4D
:106DB000577A87EE270A704770EE407A9FED537A34
:106DC00087EE870A7047DFED537A60EE277A6FF01F
:106DD000180517EE903AC4E730EE000A7047B0EE9F
:106DE000007A30EE077A9FED4C3ADFED4C4ADFED4A
:106DF0004C5ADFED4C3A9FED4C5ADFED4C7ADFED0B
:106E00004C6A4C4880EE074AC1F55712084402F517
:106E100022720243002A07EE103A24EE046AF8EECA
:106E2000C72A26EE067AE7EE034AA7EE235AE4EED7
:106E3000875AE5EE076AE5EE877A67EE867AE6EE30
:106E4000877A2BDDB6EE007A20EE077A27EE007AFD
:106E500053BB77EE877AA7EEC47A30EE470A30BC90
:106E60007047DFED357AB6EE007AA0EE677AF0EE85
:106E7000477A20EE007A27EE277A002BEDD007EE36
:106E8000903A9FED2E6ADFED2E6AF8EEE77AA7EED4
:106E9000C67A37EE400A97EEA60AE0E713BB70EE1B
:106EA000677AA7EEC40ADAE7DFED246A9FED246A69
:106EB00077EE877A62EEA66AE7EE846A37EE667A44
:106EC00037EE400A92EE860AC9E707EE903A9FED48
:106ED0001B0A9FED1B7AF8EEE77A27EE800AA7EEF1
:106EE000870ABCE79FED157ADFED156A70EE677AC9
:106EF00027EE627AA7EE847A37EE400A92EEA60A6F
:106F0000ADE700BF20FB4A00F0FF7F00000000005B
:106F1000000000CC0000004C9788173E25333A3E15
:106F20002549923E4FD01C3E298E633EABAA2A3F94
:106F3000CDCCCC3E305CCFFFABAAAA3ED1F7173701
:106F40008071313F51EC100B10EE102A21F00043FC
:106F500043EC102B704700BF82B08DED000B019801
:106F600040F0004000F58010C00F02B0704700BF35
:106F700000207047000000009FED010B704700BF2C
:106F8000000000000000F87FF0B553EC102BC3F3B5
:106F90000A56A6F2FF30132810EE105A83B0194695
:106FA0004FEAD37431DC00284CDB3E4E064103EA45
:106FB000060717432ED003EA56031D434FEA560631
:106FC0000CD04FF48023132821EA060643FA00F17F
:106FD00041EA06010CBF4FF000450025324800EBA6
:106FE000C4042A46D4E900450B462046294600F051
:106FF000F7F8CDE90001DDE9000122462B4600F05B
:10700000EDF841EC100B03B0F0BD332806DDB0F510
:10701000806F40D043EC102B03B0F0BDA6F21346B6
:107020004FF0FF30F0400242F4D015EA50024FEA30
:107030005003D3D04FF0804225EA030542FA06F60A
:107040003543CBE723F000401043E3D0C3F31300F4
:10705000104345420543144800EBC400D0E90067E3
:10706000590C2D0B490405F4002545EA010330466F
:10707000394600F0B5F8CDE900013B46DDE90001F5
:10708000324600F0ABF821F0004343EAC47141EC12
:10709000100B03B0F0BD10EE100A00F0A1F841ECA7
:1070A000100BB9E7FFFF0F00907F0D0000000000FC
:1070B00038B553EC102BC3F30A511C46054681BB6F
:1070C00010EE101A23F00044214329D01946002263
:1070D0003D4B3E4C10EE100A00F038FAA542024635
:1070E0000B4616DB0C46C1F30A513639294440F2EF
:1070F000FE70814221DC002947DC11F1350F34DAC2
:107100004CF250318D4218DC002B27A1D1E900014F
:1071100044DB25A3D3E9002300F018FA41EC100B5F
:1071200038BD40F2FF708142E0D110EE100A1946DE
:1071300000F056F841EC100B38BD002B1CA1D1E932
:10714000000107DB1AA3D3E9002300F0FFF941ECAB
:10715000100B38BD18A1D1E9000115A3D3E9002314
:1071600000F0F4F941EC100BF3E724F0FF4424F4B1
:10717000E004363144EA0153104619460022144B0C
:1071800000F0E4F941EC100B38BD24F0FF4424F486
:10719000E00444EA015343EC102B38BD08A1D1E9C7
:1071A0000001B6E7AFF3008059F3F8C21F6EA501E6
:1071B0009C7500883CE4377E9C7500883CE437FE73
:1071C00059F3F8C21F6EA58100005043B03CFFFF89
:1071D0000000903C81F0004102E000BF83F00043DA
:1071E00030B54FEA41044FEA430594EA050F08BF62
:1071F00090EA020F1FBF54EA000C55EA020C7FEA26
:10720000645C7FEA655C00F0E2804FEA5454D4EBA2
:107210005555B8BF6D420CDD2C4480EA020281EA6C
:10722000030382EA000083EA010180EA020281EAA4
:107230000303362D88BF30BD11F0004F4FEA0131F6
:107240004FF4801C4CEA113102D0404261EB410105
:1072500013F0004F4FEA03334CEA133302D052428B
:1072600063EB430394EA050F00F0A780A4F1010447
:10727000D5F1200E0DDB02FA0EFC22FA05F2801881
:1072800041F1000103FA0EF2801843FA05F3594167
:107290000EE0A5F120050EF1200E012A03FA0EFCE6
:1072A00028BF4CF0020C43FA05F3C01851EBE37110
:1072B00001F0004507D54FF0000EDCF1000C7EEB2D
:1072C00000006EEB0101B1F5801F1BD3B1F5001F6B
:1072D0000CD349085FEA30004FEA3C0C04F101048A
:1072E0004FEA445212F5800F80F09A80BCF1004FB3
:1072F00008BF5FEA500C50F1000041EB045141EA35
:10730000050130BD5FEA4C0C404141EB0101013CFD
:1073100028BFB1F5801FE9D291F0000F04BF0146EC
:107320000020B1FA81F308BF2033A3F10B03B3F1BE
:1073300020020CDA0C3208DD02F1140CC2F10C024E
:1073400001FA0CF021FA02F10CE002F11402D8BFAC
:10735000C2F1200C01FA02F120FA0CFCDCBF41EA78
:107360000C019040E41AA2BF01EB0451294330BD47
:107370006FEA04041F3C1CDA0C340EDC04F1140424
:10738000C4F1200220FA04F001FA02F340EA0300FB
:1073900021FA04F345EA030130BDC4F10C04C4F141
:1073A000200220FA02F001FA04F340EA0300294621
:1073B00030BD21FA04F0294630BD94F0000F83F46B
:1073C000801306BF81F480110134013D4EE77FEA4E
:1073D000645C18BF7FEA655C29D094EA050F08BF9A
:1073E00090EA020F05D054EA000C04BF194610467B
:1073F00030BD91EA030F1EBF0021002030BD5FEABF
:10740000545C05D14000494128BF41F0004130BDE6
:1074100014F580043CBF01F5801130BD01F000453A
:1074200045F0FE4141F470014FF0000030BD7FEAAD
:10743000645C1ABF194610467FEA655C1CBF0B46A8
:10744000024650EA013406BF52EA033591EA030FBF
:1074500041F4002130BD00BF90F0000F04BF0021B7
:10746000704730B54FF4806404F132044FF00005EA
:107470004FF0000150E700BF90F0000F04BF002163
:10748000704730B54FF4806404F1320410F00045C9
:1074900048BF40424FF000013EE700BF42004FEAC4
:1074A000E2014FEA31014FEA02701FBF12F07F4341
:1074B00093F07F4F81F06051704732F07F4208BFF8
:1074C000704793F07F4F04BF41F40021704730B5FF
:1074D0004FF4607401F0004521F000411CE700BF4B
:1074E00050EA010208BF704730B54FF000050AE0CE
:1074F00050EA010208BF704730B511F0004502D5CF
:10750000404261EB41014FF4806404F132045FEAD0
:10751000915C3FF4D8AE4FF003025FEADC0C18BF79
:1075200003325FEADC0C18BF033202EBDC02C2F16B
:10753000200300FA03FC20FA02F001FA03FE40EAFD
:107540000E0021FA02F11444BDE600BF70B54FF001
:10755000FF0C4CF4E06C1CEA11541DBF1CEA1355DF
:1075600094EA0C0F95EA0C0F00F0DEF82C4481EA47
:10757000030621EA4C5123EA4C5350EA013518BF67
:1075800052EA033541F4801143F4801338D0A0FB54
:1075900002CE4FF00005E1FB02E506F00042E0FB01
:1075A00003E54FF00006E1FB03569CF0000F18BF07
:1075B0004EF0010EA4F1FF04B6F5007F64F54074AF
:1075C00004D25FEA4E0E6D4146EB060642EAC62142
:1075D00041EA55514FEAC52040EA5E504FEACE2EAF
:1075E000B4F1FD0C88BFBCF5E06F1ED8BEF1004FB2
:1075F00008BF5FEA500E50F1000041EB045170BD2E
:1076000006F0004646EA010140EA020081EA030171
:10761000B4EB5C04C2BFD4EB0C0541EA045170BD6D
:1076200041F480114FF0000E013C00F3AB8014F1E7
:10763000360FDEBF002001F0004170BDC4F1000430
:10764000203C35DA0C341BDC04F11404C4F12005B1
:1076500000FA05F320FA04F001FA05F240EA02000C
:1076600001F0004221F0004110EBD37021FA04F642
:1076700042EB06015EEA430E08BF20EAD37070BDFC
:10768000C4F10C04C4F1200500FA04F320FA05F05B
:1076900001FA04F240EA020001F0004110EBD3705D
:1076A00041F100015EEA430E08BF20EAD37070BDCD
:1076B000C4F1200500FA05F24EEA020E20FA04F3A6
:1076C00001FA05F243EA020321FA04F001F0004155
:1076D00021FA04F220EA020000EBD3705EEA430EC6
:1076E00008BF20EAD37070BD94F0000F0FD101F0F5
:1076F0000046400041EB010111F4801F08BF013C2E
:10770000F7D041EA060195F0000F18BF704703F06B
:107710000046520043EB030313F4801F08BF013DF2
:10772000F7D043EA0603704794EA0C0F0CEA1355AE
:1077300018BF95EA0C0F0CD050EA410618BF52EA68
:107740004306D1D181EA030101F000414FF000006E
:1077500070BD50EA410606BF1046194652EA43067C
:1077600019D094EA0C0F02D150EA013613D195EAF0
:107770000C0F05D152EA03361CBF104619460AD138
:1077800081EA030101F0004141F0FE4141F4700142
:107790004FF0000070BD41F0FE4141F4780170BD32
:1077A00070B54FF0FF0C4CF4E06C1CEA11541DBF97
:1077B0001CEA135594EA0C0F95EA0C0F00F0A7F899
:1077C000A4EB050481EA030E52EA03354FEA0131C6
:1077D00000F088804FEA03334FF0805545EA1313D9
:1077E00043EA12634FEA022245EA111545EA1065A1
:1077F0004FEA00260EF000419D4208BF964244F138
:10780000FD0404F5407402D25B084FEA3202B61A56
:1078100065EB03055B084FEA32024FF480104FF42A
:10782000002CB6EB020E75EB030E22BFB61A75469E
:1078300040EA0C005B084FEA3202B6EB020E75EB31
:10784000030E22BFB61A754640EA5C005B084FEA99
:107850003202B6EB020E75EB030E22BFB61A754666
:1078600040EA9C005B084FEA3202B6EB020E75EB71
:10787000030E22BFB61A754640EADC0055EA060E32
:1078800018D04FEA051545EA16754FEA06164FEA75
:10789000C30343EA52734FEAC2025FEA1C1CC0D121
:1078A00011F4801F0BD141EA00014FF000004FF0AE
:1078B000004CB6E711F4801F04BF01430020B4F16F
:1078C000FD0C88BFBCF5E06F3FF6AFAEB5EB030C27
:1078D00004BFB6EB020C5FEA500C50F1000041EB24
:1078E000045170BD0EF0004E4EEA113114EB5C04F1
:1078F000C2BFD4EB0C0541EA045170BD41F48011C4
:107900004FF0000E013C90E645EA060E8DE60CEACB
:10791000135594EA0C0F08BF95EA0C0F3FF43BAFE8
:1079200094EA0C0F0AD150EA01347FF434AF95EA9F
:107930000C0F7FF425AF104619462CE795EA0C0F83
:1079400006D152EA03353FF4FDAE1046194622E750
:1079500050EA410618BF52EA43067FF4C5AE50EA2A
:1079600041047FF40DAF52EA43057FF4EBAE12E71A
:107970004FF0FF3C06E000BF4FF0010C02E000BFFB
:107980004FF0010C4DF804CD4FEA410C7FEA6C5CDE
:107990004FEA430C18BF7FEA6C5C1BD001B050EA81
:1079A000410C0CBF52EA430C91EA030F02BF90EA6C
:1079B000020F0020704710F1000F91EA030F58BF2B
:1079C000994208BF90422CBFD8176FEAE37040F08D
:1079D000010070474FEA410C7FEA6C5C02D150EA2B
:1079E000013C07D14FEA430C7FEA6C5CD6D152EAE6
:1079F000033CD3D05DF8040B704700BF84461046AB
:107A000062468C461946634600E000BF01B5FFF7A9
:107A1000B7FF002848BF10F1000F01BD4DF808ED79
:107A2000FFF7F4FF0CBF012000205DF808FB00BF4A
:107A30004DF808EDFFF7EAFF34BF012000205DF8A4
:107A400008FB00BF4DF808EDFFF7E0FF94BF0120F1
:107A500000205DF808FB00BF4DF808EDFFF7CEFFF2
:107A600094BF012000205DF808FB00BF4DF808ED31
:107A7000FFF7C4FF34BF012000205DF808FB00BF02
:107A80004FEA410C7FEA6C5C02D150EA013C0AD11A
:107A90004FEA430C7FEA6C5C02D152EA033C02D10C
:107AA0004FF0000070474FF0010070474FEA41026D
:107AB00012F5001215D211D56FF47873B3EB625240
:107AC00012D94FEAC12343F0004343EA505311F067
:107AD000004F23FA02F018BF404270474FF00000F9
:107AE000704750EA013005D111F0004008BF6FF037
:107AF000004070474FF00000704700BF4A0011D2AD
:107B000012F5001211D20DD56FF47873B3EB6252F7
:107B10000ED44FEAC12343F0004343EA505323FA03
:107B200002F070474FF00000704750EA013002D178
:107B30004FF0FF3070474FF0000070474FEA4102AE
:107B4000B2F1E04324BFB3F5001CDCF1FE5C0DD9BB
:107B500001F0004C4FEAC0024CEA5070B2F1004F05
:107B600040EB830008BF20F00100704711F0804F08
:107B700021D113F13872BCBF01F00040704741F4CD
:107B800080114FEA5252C2F11802C2F1200C10FAD1
:107B90000CF320FA02F018BF40F001004FEAC123B5
:107BA0004FEAD32303FA0CFC40EA0C0023FA02F359
:107BB0004FEA4303CCE77FEA625307D150EA01332F
:107BC0001EBF4FF0FE4040F44000704701F00040FF
:107BD00040F0FE4040F40000704700BF10B50C4676
:107BE00041690369826986B001F26C710491016890
:107BF00003914168029181680191C1680091074930
:107C000003EB43030B44064902EB42020A442046BD
:107C10000449FDF747F9204606B010BDD57F0D0099
:107C2000C07F0D00A07F0D00002301461A461846B4
:107C300000F042B80A44914200F1FF3300D170478E
:107C400010B511F8014B03F8014F9142F9D110BD65
:107C500002440346934200D1704703F8011BF9E741
:107C600038B50D4B1D68AB6B04467BB91820FDF78A
:107C700001F90A4A0A4BA863C0E90023094B836053
:107C80000B23838101220023C0E90423AB6B002274
:107C90001C615A6138BD00BF14E503200E33CDAB23
:107CA00034126DE6ECDE0500034613F8012B002AC2
:107CB000FBD1181A013870472DE9F843DFF8B88076
:107CC0000646D8F800001F460D46914600F056F8CB
:107CD000254B1C6834B9254C1C60254B13B11B681F
:107CE000C4F8883063681F2B07DDD8F8000000F067
:107CF00047F84FF0FF30BDE8F8834EB3D4F8880062
:107D000088B91C4B23B9D8F8000000F038F8F0E728
:107D10004FF48470FDF7AEF80028F4D00023C0E9DA
:107D20004033C4F88800636840F8239001229A40E9
:107D300000EB8301D0F800311343022EC0F800316C
:107D4000C1F8807002BFD0F804311A43C0F8042192
:107D50006368D8F800005A1C0233626044F823506C
:107D600000F00EF80020C6E7E4E7032058E7032000
:107D700000000000754E0D0078E503207047704745
:107D80007047000021400D005D400D0085400D0052
:107D900089400D0000000000444854787820746544
:107DA000737421004661696C656420746F2072658C
:107DB00061642066726F6D204448542073656E7351
:107DC0006F72210048756D69643A200025202D20CE
:107DD0000054656D703A20002A4320002A46200096
:107DE0002A4B202D2000446577503A20002A43205A
:107DF0002D200048656174493A20002A43000000A4
:107E00000000000000000000434F0D00394F0D003E
:107E10002F4F0D00254F0D00194F0D000D4F0D0078
:107E200059590D0061590D00014F0D00F94E0D001B
:107E3000EF4E0D00E54E0D0091590D006E616E0084
:107E4000696E66006F7666002E00617070002559BD
:107E50002D256D2D25645425483A254D3A25532569
:107E60007A0061736374696D6500000000000000B2
:107E70000000000049550D0039550D003B550D001F
:107E8000000000000000000021560D0089560D0082
:107E90005F560D0069500D0051560D0023560D0020
:107EA00033560D0083560D0043560D001B560D0032
:107EB00000000000000000002D570D009B570D0032
:107EC00073570D0069500D0043570D005F570D00AB
:107ED00051570D006D570D002F570D0035570D00F0
:107EE000000000000000000021580D006B580D003C
:107EF00043580D0023580D004B580D0053580D00EA
:107F00005B580D0063580D000000000000000000E9
:107F1000FB580D00F1580D00E7580D009D580D005D
:107F2000DB580D00CF580D0059590D0061590D0057
:107F3000C3580D00BB580D00B1580D00A7580D00D7
:107F400091590D00000000000000000019590D00BB
:107F500023590D002D590D0037590D0041590D00C1
:107F60004D590D0059590D0061590D0069590D0009
:107F700075590D007D590D0087590D0091590D005F
:107F800000000000706F77006C6F676600000000F3
:107F9000000000000000304300000000000030C37B
:107FA000252E337320252E337325336420252E325E
:107FB000643A252E32643A252E32642025640A0064
:107FC00053756E4D6F6E547565576564546875468C
:107FD00072695361744A616E4665624D61724170A7
:107FE000724D61794A756E4A756C4175675365705B
:107FF0004F63744E6F764465630000009D4A0D0028
:108000004D4F0D00754F0D0059500D00E1520D0000
:10801000D9530D00F5530D0005590D00655A0D009B
:04802000000000005C
:10802400627E0D000100000018E50320000000003E
:10803400000000000000000000000000000000003C
:10804400000000000000000000000000000000002C
:10805400000000000000000000000000000000001C
:10806400000000000000000000000000000000000C
:1080740000000000000000000000000000000000FC
:10808400000000000000000000000000E9E70320F9
:10809400FFFFFFFF00000102030405060708090AA9
:1080A4000B0C0D0E0F101112131415161718191AA4
:0880B4001B1C1D1E1F202800EB
:0480BC0078563412AC
:04000003D0004020C9
:00000001FF
