:02000002D0002C
:1040000000400D0068740D00000006000C00050162
:08401000040199080000000002
:04401800F06F0D0038
:1040200009480A49884208B505D0094A824202D0A7
:10403000121A02F085FE0748074A0021121A02F000
:10404000A7FE014808BD00BFA4E40320D4730D00FF
:1040500010E5032010E50320EDE7032070B5074EBF
:10406000074C01F03FFCA41BA4080025A54200D189
:1040700070BD56F8043B98470135F7E7A4730D006F
:10408000CC730D0000F0FCB808B500F01BFABDE8D9
:10409000084001F0DFBB01F015B901F013B901F0E0
:1040A00019B901F017B90078B0FA80F040097047EB
:1040B000012303707047000038B500F11005044675
:1040C0000449284601F0CBF90349284601F01AFAC1
:1040D000204638BD05710D0004700D0010B586B086
:1040E000C368019303780093D0E90123044607498C
:1040F00002A801F045FA02A904F1100001F0FAF952
:1041000002A801F061F906B010BD00BF07700D00F4
:1041100038B50278044632B1012A12D02046BDE8F3
:104120003840FFF7DBBF4368816801338B4243604F
:10413000F4DB42600121072002F093F90123237090
:10414000ECE743688268013393424360E6DB002575
:1041500045602946072002F084F92570DEE738B56E
:10416000046805467CB16368013B63605BB9236802
:1041700020469B689847A368013BA3601BB923684E
:104180002046DB689847284638BD13B50B460446E1
:104190001A685B6809690092019313B15A68013289
:1041A0005A606A46204601F0CFFE01A8FFF7D7FF0C
:1041B000204602B010BD000070B50B468CB01A68E6
:1041C0005B68896802920446039313B15A6801320E
:1041D0005A6002AA06A802F05FF803A8FFF7BFFF23
:1041E0001F4E06A802F070F8002833D0069B0093FB
:1041F000079B0999019313B15A6801325A606A46C4
:1042000002A802F025F801A8FFF7A9FF049831469B
:1042100002F0EAFD054603A8FFF7A1FF002DE0D15B
:1042200006A902A8FFF7B1FF02A801F001FFE060B4
:1042300003A8FFF794FF06A902A8FFF7A6FF02A8AC
:1042400001F0F6FE0A235843A06003A8FFF787FF9A
:104250006560C6E707A8FFF782FF0CB070BD00BF1E
:1042600025700D000EB403B503AB002153F8042BE9
:10427000019301F014FA02B05DF804EB03B070474B
:10428000F8B5012107202B4D2B4E02F0D9F8002163
:10429000022002F0D5F82B78BFF35B8F13F0010FEB
:1042A00009D12846FFF7FFFE28B100F0C7FD3060B6
:1042B0002846FFF7FDFE336893F820402B78BFF3C4
:1042C0005B8FDB074FEA441709D41A48FFF7EBFE70
:1042D00028B100F0B3FD30601648FFF7E9FE3368FF
:1042E00093F8214004F01F043C432F2C1DDD134A9A
:1042F00000210A2000F012FF114B04F01F040120DE
:1043000000FA04F4C3F8084501F049FAFF22114607
:10431000104601F054FA01F0E7FB4FF4165101F09A
:10432000D7FB084B00221A60F8BD1F2CE4DC4FF0CD
:10433000A043E4E710E5032014E50320CD4E0D0073
:104340000003005018E503200B68036013B15A689E
:1043500001325A60704737B5CD6851F8043B00937D
:10436000044601A8FFF7F0FF6A462946204601F0FF
:104370006FFF01A8FFF7F3FE204603B030BD000039
:10438000F0B595B001F0B0FB03681B6998470028B1
:1043900040F38780444906A801F061F801F0A4FBCE
:1043A00003681B69984780B101F09EFB03685B6955
:1043B0009847C1B20EA801F0B7F80EA906A801F0FF
:1043C000DBF80EA801F000F8E8E70699019108462D
:1043D00002F01CFD0199354D354E364F024603A8BB
:1043E00001F09AFF059C039B0A9304A90BA8FFF711
:1043F000ABFF0AAA21460EA801F04EFF0BA8FFF75B
:10440000AEFE0EA801F060FF002841D00EA90AA858
:10441000FFF7A1FF29460C9802F0E6FC04460BA822
:10442000FFF79DFE0EA90AA84CB9FFF7AEFE224881
:104430000AA900F0A9FB0BA8FFF791FEE1E7FFF73F
:104440008AFF31460C9802F0CFFC04460BA8FFF718
:1044500086FE0EA90AA834B9FFF797FE17480AA9E5
:10446000FFF7AAFEE7E7FFF776FF0C98394602F060
:10447000BBFC04460BA8FFF772FE002CC1D10EA9AD
:104480000AA8FFF782FE0E480AA900F039FCD2E71D
:104490000FA8FFF764FE04A8FFF761FE06A800F06E
:1044A00093FF15B0F0BD00BF05710D002F700D001A
:1044B0003A700D003E700D001CE5032074E50320EA
:1044C0004CE50320F0B58DB000F008FD0446FFF781
:1044D00057FF2248224D00F01FFB2248FFF718FE2D
:1044E000214800F069FC00F0F9FC29680A2291FBE0
:1044F000F2F302FB1313064623BB2B6001F0F4FA20
:10450000074601F02FF91949039004A800F0E7FFCE
:10451000049B1749029308A800F0E1FF361B089995
:104520000091DDE90232134901963846FFF79AFE01
:1045300008A800F049FF04A800F046FF01F0D4FAF3
:1045400001F079F82B6801332B6000F0C7FC64346C
:10455000201A01D001F020F90DB0F0BD1CE50320B8
:1045600018E5032074E503204CE503203CE5032017
:1045700084E5032049700D0008B50021012000F0FA
:10458000FDFD054800F0F2F90448FFF795FDBDE890
:104590000840034800F09EBB1CE5032074E503209F
:1045A0004CE5032010B503682F2B044604D9074AB5
:1045B00000210A2000F0B2FD23681F2B83BF03F007
:1045C0001F03034823604FF0A04010BDCD4E0D00E7
:1045D0000003005007B5019001A8FFF7E3FF019A1F
:1045E00001239340C0F8083503B05DF804FB07B51C
:1045F000019001A8FFF7D6FF019BD0F81005D84025
:1046000000F0010003B05DF804FB10B50372012354
:104610008171C271037410BD2DE9F04F044685B05D
:1046200000F05CFCE368834284BF0023E360237CEA
:104630002BB9E368C01AB0F5FA6FC0F060810025AD
:10464000257400F04BFCB04E25602571E060A77921
:104650003378AE4DBFF35B8F13F0010F09D13046B5
:10466000FFF721FD28B100F0E9FB28603046FFF795
:104670001FFD2B683F0113F807803378BFF35B8F72
:10468000D9074FEA481809D49F48FFF70CFD28B115
:1046900000F0D4FB28609C48FFF70AFD2B681F44FC
:1046A000787800F01F0040EA0800FFF793FFFA2037
:1046B00001F072F8A079012101F0C2FEA7793378E8
:1046C000BFF35B8FDA0709D48F48FFF7ECFC28B102
:1046D00000F0B4FB28608C48FFF7EAFC2B683F0130
:1046E000DB5D4FEA43183378BFF35B8FDB0709D4F8
:1046F0008548FFF7D8FC28B100F0A0FB286082486D
:10470000FFF7D6FC2B681F4403A87B7803F01F0338
:1047100043EA08030393FFF745FF039A01239340FD
:10472000C0F80C35142001F037F801F003FAA7792E
:104730003378BFF35B8FD80709D47348FFF7B3FC16
:1047400028B100F07BFB28606F48FFF7B1FC2B68B5
:104750003F0113F807803378BFF35B8FD9074FEA27
:10476000481809D46848FFF79EFC28B100F066FBA2
:1047700028606548FFF79CFC2B681F44787800F0A0
:104780001F0040EA0800FFF725FF282000F09EFBED
:10479000A079DFF87481002101F052FE0027012387
:1047A000BA4600934FF0000994F806B03378BFF38F
:1047B0005B8FDA0709D44046FFF775FC28B100F09B
:1047C0003DFB28604046FFF773FC2B684FEA0B1B4C
:1047D00013F80B305B0101933378BFF35B8FDB077A
:1047E00009D44046FFF75FFC28B100F027FB2860A2
:1047F0004046FFF75DFC2B685B4493F801B0019BDA
:104800000BF01F0B4BEA030B5846FFF7F0FE584620
:10481000FFF7EDFE009B834209D109F101095FFA20
:1048200089F9012000F052FBB9F1FF0FBCD194F8D7
:1048300006B03378BFF35B8FD80709D44046FFF743
:1048400032FC28B100F0FAFA28604046FFF730FC4D
:104850002B684FEA0B1B13F80B305B010093337886
:10486000BFF35B8FD90709D44046FFF71CFC28B182
:1048700000F0E4FA28604046FFF71AFC2B685B441E
:1048800093F801B0009B0BF01F0B4BEA030B58464B
:10489000FFF7ADFE5846FFF7AAFEB9F1FF0FC3B20E
:1048A000009318D0032F11D9FA070FD44FEADA0278
:1048B0000AF1010AA35C5B00DBB2A354217A4945EB
:1048C0003CBF43F00103A3545FFA8AFA0137FFB2F9
:1048D000552F7FF467AF01F02FF9BAF1270F10D9E8
:1048E000637820781844A3781844E378184423792F
:1048F000C0B2C31A5842584105B0BDE8F08F01203C
:10490000FAE70020F8E700BF10E5032014E50320D4
:1049100010B50446FFF780FEF0B1E3790B2B15D0FC
:10492000153B012B18D82378DFED0D6A07EE103AFE
:10493000637807EE903AB8EE477AF8EEE77AE7EE5A
:10494000267AB2EE047A87EE870A10BD237800EE4D
:10495000103AB8EE400AF8E79FED020AF5E700BF0B
:10496000000080430000C07FFFF7D2BF38B500F1E0
:10497000200504460C49284600F071FD40F2011361
:1049800023808023636040F6C4114FF4FA73C4E9B6
:1049900003132846054900F0B5FD054BE361C4E962
:1049A0000533204638BD00BF05710D0004700D00B1
:1049B0006179FEFF08B500F023FF28B1BDE808408B
:1049C0000121002000F00EBF08BD00000000000023
:1049D00038B5134B9942044608460AD1656800F081
:1049E0000FFF854216D020790121BDE8384000F044
:1049F000F9BE01F0FBFE08A3D3E9002301F060FF3C
:104A0000084B002202F086F802F06CF90121606088
:104A1000C0B2EAE738BD00BF0000000000E06F4010
:104A20006179FEFF0000594010B50446132001F0E3
:104A300031FDA06010BD00002DE9F0410446FFF7F4
:104A4000F3FF2569A068D4F80C80A842B8BF2846B7
:104A50008045D4BFC5EB0800C5EB000001F0C6FEE1
:104A60000646A8EB05000F4601F0C0FE02460B46C5
:104A70003046394602F04EF802460B4600200A49FD
:104A800001F066FD06A3D3E9002301F019FF02F04F
:104A900029F901216060BDE8F041C0B200F0A2BE7A
:104AA0000000000000E06F400000F03F0000000048
:104AB00070B588B0C368467805780393036902939C
:104AC000836801930446406801F090FE10A3D3E987
:104AD000002302F01FF80C4B002201F0F1FE02F05F
:104AE00001F933462A460090084904A800F048FD21
:104AF00004A904F1200000F0FDFC04A800F064FC0F
:104B000008B070BDAFF30080000059406F700D0019
:104B10000000000000E06F4038B50578044655B14C
:104B2000012D13D0174BE361C4E905332046BDE8DE
:104B30003840FFF7BDBFFFF73DFF6369114A93425D
:104B4000F0D0002BEED001232380EBE7437833B184
:104B5000012B0FD06369002BE4D12370E2E7C16918
:104B6000FFF736FFA369074A9342F3D0002BF1D039
:104B70006570EFE7FFF760FFA369002BEAD1637070
:104B8000E8E700BF6179FEFF2DE9F0418AB08D684A
:104B900051F8043B0093044601A8FFF7D5FB6A4691
:104BA000294604A801F078FB01A8FFF7D8FA3C4E8B
:104BB0003C4FDFF8FC8004A801F086FB002869D098
:104BC00004A96846FFF7C7FB3146029802F00CF9CA
:104BD000054601A8FFF7C3FA04A968464DB9FFF7D7
:104BE000D4FA684601F0E6F9606101A8FFF7B7FA68
:104BF000E1E7FFF7B0FB3946029802F0F5F8054609
:104C000001A8FFF7ACFA04A9684635B9FFF7BDFA69
:104C1000684601F0CFF9A061E7E7FFF79CFB41464A
:104C2000029802F0E1F8054601A8FFF798FA04A9F6
:104C3000684635B9FFF7A9FA684601F0F9F9E0616D
:104C4000D3E7FFF788FB1849029802F0CDF8054634
:104C500001A8FFF784FA04A9684635B9FFF795FA69
:104C6000684601F0E5F92061BFE7FFF774FB0F49E3
:104C7000029802F0B9F8054601A8FFF770FA002D76
:104C800099D104A96846FFF780FA684601F0D0F987
:104C9000E060AAE705A8FFF762FA0AB0BDE8F08174
:104CA0009D700D00A0700D00B0700D00B4700D006F
:104CB000A5700D0010B5036804469B689847A3686B
:104CC000013BA3602BB923682046DB68BDE8104098
:104CD000184710BD10B50849044600F0C0FB00237A
:104CE000064923616361A361E36123626362204635
:104CF00000F008FC204610BD05710D0004700D0089
:104D000000B50B4689B01A685B6889680092019308
:104D100013B15A6801325A606A4602A801F0BCFA1F
:104D2000019828B14368013B43600BB9FFF7C2FF0C
:104D300002A801F0C9FA0028FAD1039828B1436803
:104D4000013B43600BB9FFF7B5FF09B05DF804FB09
:104D500010B5044690B0406901F05AFD02460B467A
:104D6000606ACDE90A2301F053FDCDE90801206A0C
:104D700001F04EFDCDE90601E06901F049FDCDE904
:104D80000401A06901F044FDCDE90201206901F0B0
:104D90003FFDDDE90A23CDE900010CA8054900F03B
:104DA000EFFB0CA9204600F0A5FB0CA800F00CFBC3
:104DB00010B010BDB8700D0010B504461148FFF7D3
:104DC000D3FDB4EE400AF1EE10FA84ED060A0DD6DA
:104DD000D4ED047AF4EE677AF1EE10FA06D6D4ED4B
:104DE000057AF4EE677AF1EE10FA06D700F07CFE51
:104DF000BDE81040044900F02ABC2046BDE8104040
:104E0000FFF7A6BF94E50320E6700D0002480623D5
:104E10000B220221FFF7F9BB94E5032008B5024BF2
:104E20001B689B68019308BD6802030008B5024B2C
:104E30001B68DB68019308BD6802030008B5024BDC
:104E40001B681B68019308BD2C02030008B5024BC8
:104E50001B685B68019308BD2C02030008B5024B78
:104E60001B689B68019308BD2C02030008B5024B28
:104E70001B68DB68019308BD2C02030008B5024BD8
:104E80001B681B69019308BD2C02030008B5024B87
:104E90001B681B6A019308BD2C02030008B5024B76
:104EA0001B685B6A019308BD2C02030008B5024B26
:104EB0001B681B6B019308BD2C02030008B5024B55
:104EC0001B685B68019308BD1802030008B5024B1C
:104ED0001B68DB68019308BD1802030008B5024B8C
:104EE0001B685B69019308BD1802030008B5024BFB
:104EF0001B689B6D019308BD1802030008B5024BA7
:104F00001B685B6E019308BD1802030008B5024BD5
:104F10001B685B6C019308BD4802030008B5024B97
:104F20001B685B69019308BD6402030008B5024B6E
:104F30001B681B68019308BD3C02030008B5024BC7
:104F40001B68DB68019308BD3C02030008B5024BF7
:104F50001B681B69019308BD3C02030008B5024BA6
:104F60001B685B69019308BD3C02030008B5024B56
:104F70001B689B69019308BD3C02030008B5024B06
:104F80001B68DB69019308BD3C02030008B5024BB6
:104F90001B681B6A019308BD3C02030008B5024B65
:104FA0001B689B6A019308BD3C02030008B5024BD5
:104FB0001B681B6A019308BD2802030008B5024B59
:104FC0001B685B6A019308BD2802030008B5024B09
:104FD0001B689B6A019308BD2802030008B5024BB9
:104FE0001B68DB6A019308BD2802030008B5024B69
:104FF0001B681B6B019308BD2802030008B5024B18
:105000001B685B6B019308BD2802030008B5024BC7
:105010001B681B6C019308BD2802030008B5024BF6
:105020001B68DB69019308BD3002030008B5024B21
:105030001B681B6A019308BD3002030008B5024BD0
:105040001B681B68019308BD4C02030008B5024BA6
:105050001B685B68019308BD4C02030008B5024B56
:105060001B681B69019308BD4C02030008B5024B85
:105070001B685B69019308BD4C02030008B5024B35
:105080001B689B69019308BD4C02030008B5024BE5
:105090001B68DB69019308BD4C02030008B5024B95
:1050A0001B681B6A019308BD4C02030008B5024B44
:1050B0001B685B68019308BD6002030008B5024BE2
:1050C0001B689B68019308BD6002030008B5024B92
:1050D0001B68DB68019308BD6002030008B5024B42
:1050E0001B681B69019308BD6002030008B5024BF1
:1050F0001B689B69019308BD6002030008B5024B61
:105100001B68DB69019308BD6002030008B5024B10
:105110001B68DB6A019308BD6002030008B5024BFF
:105120001B685B6B019308BD6002030008B5024B6E
:105130001B689B6B019308BD6002030008B5024B1E
:105140001B68DB6B019308BD6002030008B5024BCE
:105150001B681B68019308BD2002030008B5024BC1
:105160001B685B68019308BD2002030008B5024B71
:105170001B685B69019308BD2002030008B5024B60
:105180001B68DB6A019308BD2002030008B5024BCF
:105190001B689B6D019308BD2002030008B5034BFB
:1051A0001B68D3F88830019308BD0000200203007B
:1051B00008B5034B1B68D3F89430019308BD000079
:1051C0002002030008B5024B1B685B68019308BD11
:1051D0004002030008B5024B1B689B68019308BDA1
:1051E0004002030008B5024B1B68DB68019308BD51
:1051F0004002030008B5024B1B681B69019308BD00
:105200004002030008B5024B1B685B69019308BDAF
:105210004002030008B5024B1B689B69019308BD5F
:105220004002030008B5024B1B68DB69019308BD0F
:105230004002030008B5024B1B681B6A019308BDBE
:105240004002030008B5024B1B681B6B019308BDAD
:105250004002030008B5024B1B685B6B019308BD5D
:105260004002030008B5024B1B681B6C019308BD8C
:105270004002030008B5024B1B685B6C019308BD3C
:105280004002030008B5024B1B689B68019308BDF0
:105290004402030008B5024B1B685B69019308BD1B
:1052A0004402030008B5024B1B681B6B019308BD49
:1052B0004402030008B5024B1B68DB6B019308BD79
:1052C0004402030008B5024B1B681B68019308BD2C
:1052D0001C02030008B5024B1B685B68019308BD04
:1052E0001C02030008B5024B1B689B68019308BDB4
:1052F0001C02030008B5024B1B685B6A019308BDE2
:105300001C02030008B5024B1B685B6C019308BDCF
:105310001C020300002240681146FFF78BBF0022E9
:1053200040681146FFF796BF40680022FFF78ABF2A
:105330004068002281F00101FFF774BF002340683C
:105340001A461946FFF766BF002340681A461946F9
:10535000FFF758BF002240681146FFF74BBF0022FD
:1053600040681146FFF736BF406800220221FFF770
:1053700039BF002340681A46FFF724BF024B0322BF
:105380005A60024A1A607047A8E5032010710D00A8
:1053900010B5044608462170FFF740FE0023636005
:1053A000204610BD054B02221A60054B054A9A6043
:1053B0000020186098809871FFF7D0BEBCE50320EC
:1053C000B0E503200000FFFF10B504460068FFF7BA
:1053D00081FF204610BD10B50446006808B1FFF7F4
:1053E00079FF0023C4E90133236010BD38B50446BA
:1053F0000D4600680131FFF775FF10B1C4E90005E3
:10540000012038BD10B50368044623B143688B42C0
:1054100001D3012010BD2046FFF7E8FF0028F9D096
:10542000A368002BF5D122681370F2E737B50D465B
:10543000114601920446FFF7E5FF019A28B920467C
:10544000FFF7C9FF204603B030BDA260294620689F
:1054500001F076FC2268A3680021D154F2E7002312
:1054600013B5C0E9003304468360037341B10846B5
:10547000019101F0CBFC019902462046FFF7D6FFCF
:10548000204602B010BD38B5054600680C4668B12C
:105490006A688B689A4207D3096801F0AFFCA36879
:1054A000AB600023A36038BDFFF714FF23682B60B7
:1054B00063686B60A368AB600023C4E90033F1E765
:1054C000884210B5044605D00B682BB18A6819468E
:1054D000FFF7ACFF204610BDFFF77DFFFAE710B5E0
:1054E00000230446C0E9003383600373FFF7E8FF3D
:1054F000204610BD884210B5044601D0FFF7C3FF17
:10550000204610BD13B5044659B10846019101F07B
:105510007DFC019902462046FFF788FF204602B035
:1055200010BDFFF758FFF9E713B500238DF80410FD
:10553000C0E900338360037301A904468DF8053088
:10554000FFF7E0FF204602B010BD70B505460E46DD
:1055500009B9002070BD6AB1846814442146FFF780
:1055600051FF0028F5D02868AB683146184401F097
:1055700045FCAC600120EDE78A680968FFF7E5BFEC
:105580000EB470B587B00BAD044655F8042B0192EC
:105590002B46052104A80395FFF7ACFE0B490646F0
:1055A0002046FFF75CFF31462046FFF72BFF2068BF
:1055B00030B1019A03952B46711CFFF79BFEA0604A
:1055C000204607B0BDE8704003B0704705710D007C
:1055D000024800230360FFF799BC00BFC0E5032029
:1055E000F8B506460D468F180024BD420CD033682E
:1055F00015F8011B9B6830469847031E01DB1C44CD
:10560000F3E7002C08BF1C462046F8BD13B504463E
:10561000084659B1019101F0F9FB23680199DB6853
:105620000246204602B0BDE81040184702B010BD47
:1056300003689B68184738B50D210546FFF7F8FF4A
:105640000A2104462846FFF7F3FF204438BD38B549
:105650000546FFF7DBFF04462846FFF7ECFF204432
:1056600038BD30B58BB000238DF82430012A98BFA7
:105670000A2209AC0D46B1FBF2F101FB125303F013
:10568000FF03092B94BF30333733DBB2AA4204F84F
:10569000013DEFD92146FFF7B9FF0BB030BD2DE931
:1056A000F04186B000AF05460E46381D1421144661
:1056B0003B60FFF71FFE13280ED8391D2846FFF761
:1056C000A5FF04461EB12846FFF7B5FF0444204657
:1056D0001837BD46BDE8F08100F1080323F0070349
:1056E000E846ADEB030D2246411C3B686846FFF7D8
:1056F00001FE69462846FFF789FF0446C546E1E7F3
:10570000014B024A1A607047C4E5032044710D0042
:1057100008B50020FFF7C6FD28B1FFF7BBFD80F0FC
:105720000100C0B208BD0120FCE710B50020FFF762
:10573000DDFB0446A0B9FFF709FD012810D1204682
:10574000FFF724FD60B9FFF7E3FF10B9FFF79AFDFB
:10575000F9E7FFF7DDFFBDE810400020FFF7C6BB0B
:10576000204610BD1FB5FFF7E0FF1022002168465C
:1057700001F00EFB00216846FFF7C0FB009805B062
:105780005DF804FB024B1A68024B1A60704700BFB9
:10579000A4E40320C8E503200021FFF7E7BC10B50F
:1057A0000446FFF7A3FC844208D01CB1BDE81040BA
:1057B000FFF784BCBDE81040FFF788BC10BD70B592
:1057C00005460E461446FFF791FC50B144EA062008
:1057D00040EA0540FFF76AFCBDE87040E720FFF7AC
:1057E0008DBC70BD10B50C46FFF778FCFFF77EFC52
:1057F00028B124B1BDE81040E720FFF77FBC10BD01
:10580000FFF784BC014B00229A607047CCE503206F
:10581000014B1860704700BFA8E4032008B50B4B8C
:1058200043B100F061F903681B699847002801DD66
:10583000AFF30080064B43B100F0D4F903681B6955
:105840009847002801DDAFF3008008BD000000008C
:105850000000000008B5FFF7E1FFFFF73FFB014B39
:10586000186008BD38E703200548064A064908B510
:10587000121A01F065FA054B054A1A6008BD00BF0F
:1058800000F4032004F40320D0730D0000F403207F
:105890001E1C279A07B5002300931A466FF0770164
:1058A000FFF786FC03B05DF804FB000007B54388F2
:1058B0000A2B08D0502B0BD1094B1B684BB103B0FE
:1058C0005DF804EB1847FFF7E5FF03B05DF804FB54
:1058D000002300931A466FF07701FFF769FCF4E7A5
:1058E000E0E5032010B512480021FFF70BFD114B36
:1058F0001A68114B9A42114B0CBF012200221A70F8
:1059000001D0FFF7B1FFFFF7D9FA044601F048FADA
:105910000B4B13B12046AFF3008000210848FFF77E
:10592000C9FCBDE8104007480021FFF737BC00BFA5
:1059300011580D0000F403201E1C279ADCE50320FB
:1059400000000000AD580D00704710B51821044646
:1059500000F0F4FD204610BDF0B5037D062B8DB0A0
:105960000E4600F104074FF0000412D000F10805C4
:1059700015F8011D0A223046FFF773FEAF420444BA
:1059800019D0002CF4D02E213046FFF751FE0444EC
:10599000EEE72F236A4639460A208DF80040FFF7CC
:1059A000BDFA684601F032FA33680246DB686946A0
:1059B00030469847044620460DB0F0BD10B5054B63
:1059C0000446112240F8043B002101F0E1F9204691
:1059D00010BD00BF6C710D000346074A10B543F8B7
:1059E000042B01F1100251F8044B43F8044B91428F
:1059F000F9D10A781A7010BD6C710D0010B59DF8C0
:105A0000084044EA032343EA024242EA01610423D4
:105A10004160037510BD13B5CB7800938B784A783D
:105A20000978FFF7EBFF02B010BD41747047704773
:105A3000704708B50021007CFFF720FB40EAE070CA
:105A400008BD08B50121007CFFF718FB40EAE070B3
:105A500008BD08B5007CFFF709FB20EAE07008BD2F
:105A600008B5007CFFF7FAFA20EAE07008BD13B52C
:105A70000446007C0191FFF7F9FA0028019901DC46
:105A8000607C20B1207CFFF701FB20EAE07002B0CF
:105A900010BD007CFFF702BB10B51421044600F0D6
:105AA0004DFD204610BD000010B54FF47A7304463A
:105AB00008460021C4E90113044B2360012320742C
:105AC00063741146FFF7BAFA204610BD80710D00CD
:105AD000007C0022FFF7BABA10B514220446002158
:105AE00001F056F9204610BD10B50F4C88B003A840
:105AF000FFF7F2FF2178BFF35B8F11F001010FD1A7
:105B000020460191FEF7CFFA019948B103AA074850
:105B1000FFF7CAFF2046FEF7CBFA054801F00AF965
:105B2000024808B010BD00BFE4E50320E8E503200B
:105B30002F5A0D00FFF7B2B9FFF7A8B970474174AB
:105B40007047704708B5007CFFF728FA20EAE0703C
:105B500008BD08B5007CFFF7F9F920EAE07008BD40
:105B600008B5007CFFF702FA40EAE07008BD08B50E
:105B7000007CFFF7F3F940EAE07008BD007CFFF716
:105B8000FDB937B5457C04462DB1207C03B0BDE896
:105B90003040FFF7D3B9007C0191FFF7FFF90028EF
:105BA0000199F2DC284603B030BD10B5142104463B
:105BB00000F0C4FC204610BD10B54FF0000C0446A8
:105BC000084611464FF47A72C4E901C2044A2260C1
:105BD0000122207462741A46FFF7A8F9204610BD0E
:105BE000B0710D0013B50D4C2178BFF35B8F11F030
:105BF000010110D120460191FEF755FA019950B1EB
:105C0000074B084A0848FFF7D7FF2046FEF750FA2F
:105C1000064801F08FF8044802B010BDFCE50320EF
:105C200084E6032000E6032008E70320435B0D0021
:105C30007047F8B5064615460C468F18BC4206D08C
:105C4000336814F8011B9B6830469847F6E72846EE
:105C5000F8BD007C0022FFF7A9B9007C0021FFF706
:105C6000ADB9007C0021FFF7B1B9007C0021FFF73E
:105C7000B5B9007C0021FFF7B9B910B5142104466D
:105C800000F05CFC204610BD10B54FF47A7304465A
:105C900008460021C4E90113034B23602074114618
:105CA000FFF7B4F9204610BDE0710D0000224068F6
:105CB0001146FFF79FBA002240681146FFF7BABAB3
:105CC000002240681146FFF7C5BA40680022FFF77E
:105CD000B9BA4068002281F00101FFF7A3BA00239E
:105CE00040681A461946FFF795BA002340681A46DD
:105CF0001946FFF787BA002240681146FFF76ABAD3
:105D0000406800220221FFF76DBA002340681A465E
:105D1000FFF758BA024B04225A60024A1A607047D1
:105D20001CE7032008720D00002340681A46FFF7A5
:105D300049BA406800220221FFF754BA00224068A5
:105D40001146FFF747BA002240681146FFF752BAE2
:105D5000002340681A461946FFF754BA00234068EA
:105D60001A461946FFF756BA40680021FFF77ABA7B
:105D700040680021FFF77EBA4068002281F00101EF
:105D8000FFF750BA40680022FFF75CBA0022406873
:105D90001146FFF75FBA002240681146FFF74ABA82
:105DA0002DE9F043002495B016460D460746FFF74F
:105DB00005FE214618220EA8009400F0E9FF4023BA
:105DC000CDE90C3421466B460CAA3046FFF72EF87D
:105DD0000446002846D1024601216868FFF70AFA06
:105DE0000221804622466868FFF704FA009E814639
:105DF0002146002E36D0002934D17368022B03D0FF
:105E00000A2B0BD0F669F4E7B8F1000F04D07169E2
:105E100038460431FFF7FFFD4146F3E7B9F1000FC3
:105E200001D14946EEE77469102201A800F0B0FFE5
:105E300006238DF8143001AD04F1080318341868F6
:105E400059682A4603C20833A3421546F7D101A96F
:105E500006A807ADFFF7C0FD0FCD3C1D0FC42B6892
:105E60002370DEE70098FEF7D9FF384615B0BDE88D
:105E7000F0830000024B034A1A6000225A60704708
:105E800024E7032044720D0000F11003012213F8EF
:105E9000101C0129184608D153F8041C02EB4102DA
:105EA000013A03F11003F2D17047022904BF53F8FD
:105EB000041C5218F4E770470020704710B51021F9
:105EC000044600F03BFB204610BD08B5FFF7F6FF87
:105ED00008BD10B5C4687CB1206808B1FEF7E1F8D0
:105EE000237A1BB1606808B1FEF7DBF820460C216D
:105EF000BDE8104000F022BB10BD10B50368044699
:105F00009B689847A368013BA3602BB92368204690
:105F1000DB68BDE81040184710BD38B50B6803605A
:105F20004D6843689D4204460CD015B16B6801333F
:105F30006B60606828B14368013B43600BB9FFF7B1
:105F4000DCFF6560204638BD0B461146002210B5C7
:105F5000C0E90022044683600BB9204610BDFFF75C
:105F6000DCFFFAE78368EBB11A78032A1AD8DFE876
:105F700002F00417021B0520704702685B68526834
:105F8000D05C2D2812D0A0F13003092B0ED9742833
:105F90000ED066280CD0A0F16E03584258417047CD
:105FA0000620704700207047042070470320704788
:105FB0000220704710B50446FFF7D4FF03280DD028
:105FC00004281ED002282BD12268A36852685B687F
:105FD000D05CA0F174035842584110BDA3682268F8
:105FE0005B6854681C440F49204600F0FDFE002801
:105FF000F3D00D49204600F0F7FE003818BF01200D
:10600000EBE72268A36852685B68D05CD41800286C
:10601000E3D00649204600F0E7FE0028E3D1DCE7A4
:106020000020DAE77A720D0078720D007C720D00A4
:1060300010B50446FFF796FF02280ED0C31EDBB250
:10604000012B14D82268A36850685B68BDE8104033
:106050000A220021184400F05BBF2268A36852683E
:106060005B68D05CA0F174035842584110BD002019
:10607000FCE700002DE9F047994688B01023074659
:1060800088460DEB03000021924604930024FFF79D
:106090004DF803AB01934FF0FF3600942346424680
:1060A000394604A80396FFF749F8051E27DD039833
:1060B00014498542B8BF0546B5F1006FACBF304604
:1060C000280100F03FFA064698B1002104A80024F8
:1060D000FFF72CF8CDE9005433464246394604A870
:1060E000FFF72CF8A04207DDCAF800600120C9F8CC
:1060F000005008B0BDE8F0873046FDF7D2FF2046DB
:10610000F7E700BFA0720D002DE9F84F43688668DD
:106110000B4488460E4407461C4619464FF00D09AD
:106120004FF0090AB44263D0254615F8012B5C2ACA
:106130002BD1A14207D0A4EB010B18465A4600F020
:106140000DFE03465B44B54239D06278752A2AD1E8
:10615000A21CB21A032A32DDA01D04F1050E4FF075
:10616000000CAE4553D015F8011FA1F130025FFAC3
:1061700082FBBBF1090F05D9A1F16102052A07D8FD
:10618000A1F1570242EA0C1CEBE728460446C9E796
:10619000A1F14102052A12D8A1F13702F2E703F872
:1061A00001CB0146F2E76E2A1CD00ED8622A13D02A
:1061B00007D82F2A11D05C2A0FD0222A0DD0002018
:1061C00023E0662AFBD10C2207E0722A0DD0742A44
:1061D000F5D183F800A001E008221A70A11C013358
:1061E0000846D3E74FF00A02F7E783F80090F5E797
:1061F000A14206D0641A1846224600F0AFFD0346BD
:106200002344A3EB0803BB600120BDE8F88FBCF179
:106210007F0FC4D92146B9E7F8B50446154600EB0F
:1062200001160027B44210D02378032B08D1294649
:106230002046FFF769FF48B1A368EF541034F1E737
:10624000002BFBD1A268AB54F8E70120F8BD000099
:1062500038B50023C0E9003304460E48C4E9020300
:10626000A9B10B78032B06D08BB9136858684B681B
:10627000C35C6E2B07D013684D6858688B68284440
:106280005B1BA060E36011462046FFF746FE2046F8
:1062900038BD00BF05710D0038B500250B46C0E9BB
:1062A0000055C0E90255C0E90455044611464BB1FA
:1062B0001A78012A06D103F11002DB68826043617B
:1062C000FFF72BFE204638BD10B54369044663B185
:1062D0008068E060013B1030A0602061636113B111
:1062E000FFF7D2FDA060012000E0184610BD0000BD
:1062F00038B500230446036010200D46FDF7CBFEA1
:1063000028B10123C0E90133024B0360C56020605E
:10631000204638BD8C720D00F0B5044687B00E469D
:106320000C202749154600F00BF9014618B100234F
:10633000C0E90033037203A80291FFF7D9FF029A64
:1063400042B9C4E90022A26003A8FDF708FF204675
:1063500007B0F0BD00230193294601AB3046FFF79B
:1063600089FE18B9C4E90000A060EDE71449029F56
:10637000681C00F0E7F8029B786058680028F1D0AC
:106380002A46314600F0DCFC029B01991868012284
:106390001A725A68FFF740FF0028E3D0029B196881
:1063A0000493039B059313B15A6801325A6004AAFF
:1063B0002046FFF7C9FD05A8FDF7D1FEC4E700BFE1
:1063C000A0720D00232813B502D9002002B010BD21
:1063D000A0F10B03022B1AD8174C2178BFF35B8F67
:1063E00011F001010BD120460191FDF75CFE0199EE
:1063F00028B11248FEF7CCFF2046FDF759FE0F4B9F
:106400001878FEF713FE0028DFD10120DEE701280F
:1064100009D800F06FF80021007CFEF7EFFD80F056
:106420000100C0B2D2E709380128EED8FFF7DAFB45
:10643000007CFEF7ABFDF2E72CE7032030E70320FA
:10644000232838B504460D460AD8FF2908D0FFF79F
:10645000B9FF28B129462046BDE83840FEF7FEBC0A
:1064600038BD38B504460D46FEF700FDFF2810D0B4
:10647000062804D84D2323FA00F0C30709D4204688
:10648000FFF7A0FF28B129462046BDE83840FEF7B7
:10649000F5BC38BD0D2810B504469CBF0E34A4B21F
:1064A0002046FFF78FFF50B103212046FEF7CEFCB8
:1064B000032804D12046BDE81040FEF7F7BC0020B9
:1064C00010BD704738B500232025438014230446AF
:1064D0000380856005610649284600F033F80449C9
:1064E0006060284600F02EF8E060204638BD00BF0E
:1064F000A0720D0030B50E4D2978BFF35B8F11F0FF
:10650000010487B011D12846FDF7CDFD68B101A87F
:10651000FFF7D8FF01AA21460648FFF7B5FB28463A
:10652000FDF7C6FD044800F005FC024807B030BD89
:106530003CE7032040E70320C3640D00FDF7AFBD37
:10654000FDF7A9BDFDF7A9BD81F0004102E000BF44
:1065500083F0004330B54FEA41044FEA430594EA23
:10656000050F08BF90EA020F1FBF54EA000C55EA5E
:10657000020C7FEA645C7FEA655C00F0E2804FEA2F
:106580005454D4EB5555B8BF6D420CDD2C4480EA11
:10659000020281EA030382EA000083EA010180EA41
:1065A000020281EA0303362D88BF30BD11F0004F8F
:1065B0004FEA01314FF4801C4CEA113102D04042C5
:1065C00061EB410113F0004F4FEA03334CEA133300
:1065D00002D0524263EB430394EA050F00F0A78018
:1065E000A4F10104D5F1200E0DDB02FA0EFC22FA13
:1065F00005F2801841F1000103FA0EF2801843FA07
:1066000005F359410EE0A5F120050EF1200E012AF7
:1066100003FA0EFC28BF4CF0020C43FA05F3C01835
:1066200051EBE37101F0004507D54FF0000EDCF1AE
:10663000000C7EEB00006EEB0101B1F5801F1BD357
:10664000B1F5001F0CD349085FEA30004FEA3C0C5B
:1066500004F101044FEA445212F5800F80F09A8051
:10666000BCF1004F08BF5FEA500C50F1000041EB55
:10667000045141EA050130BD5FEA4C0C404141EB59
:106680000101013C28BFB1F5801FE9D291F0000F54
:1066900004BF01460020B1FA81F308BF2033A3F103
:1066A0000B03B3F120020CDA0C3208DD02F1140CFA
:1066B000C2F10C0201FA0CF021FA02F10CE002F135
:1066C0001402D8BFC2F1200C01FA02F120FA0CFC2E
:1066D000DCBF41EA0C019040E41AA2BF01EB045177
:1066E000294330BD6FEA04041F3C1CDA0C340EDC75
:1066F00004F11404C4F1200220FA04F001FA02F3B8
:1067000040EA030021FA04F345EA030130BDC4F175
:106710000C04C4F1200220FA02F001FA04F340EA6A
:106720000300294630BD21FA04F0294630BD94F01B
:10673000000F83F4801306BF81F480110134013D02
:106740004EE77FEA645C18BF7FEA655C29D094EA73
:10675000050F08BF90EA020F05D054EA000C04BFF1
:106760001946104630BD91EA030F1EBF00210020DC
:1067700030BD5FEA545C05D14000494128BF41F07B
:10678000004130BD14F580043CBF01F5801130BDDF
:1067900001F0004545F0FE4141F470014FF000006A
:1067A00030BD7FEA645C1ABF194610467FEA655C1B
:1067B0001CBF0B46024650EA013406BF52EA0335BD
:1067C00091EA030F41F4002130BD00BF90F0000FAB
:1067D00004BF0021704730B54FF4806404F13204E7
:1067E0004FF000054FF0000150E700BF90F0000FA0
:1067F00004BF0021704730B54FF4806404F13204C7
:1068000010F0004548BF40424FF000013EE700BF96
:1068100042004FEAE2014FEA31014FEA02701FBF26
:1068200012F07F4393F07F4F81F06051704732F058
:106830007F4208BF704793F07F4F04BF41F40021AF
:10684000704730B54FF4607401F0004521F000410D
:106850001CE700BF50EA010208BF704730B54FF097
:1068600000050AE050EA010208BF704730B511F098
:10687000004502D5404261EB41014FF4806404F1D0
:1068800032045FEA915C3FF4D8AE4FF003025FEA56
:10689000DC0C18BF03325FEADC0C18BF033202EBDA
:1068A000DC02C2F1200300FA03FC20FA02F001FA34
:1068B00003FE40EA0E0021FA02F11444BDE600BFD7
:1068C00070B54FF0FF0C4CF4E06C1CEA11541DBF86
:1068D0001CEA135594EA0C0F95EA0C0F00F0DEF851
:1068E0002C4481EA030621EA4C5123EA4C5350EA36
:1068F000013518BF52EA033541F4801143F4801387
:1069000038D0A0FB02CE4FF00005E1FB02E506F017
:106910000042E0FB03E54FF00006E1FB03569CF06C
:10692000000F18BF4EF0010EA4F1FF04B6F5007F72
:1069300064F5407404D25FEA4E0E6D4146EB0606E4
:1069400042EAC62141EA55514FEAC52040EA5E506D
:106950004FEACE2EB4F1FD0C88BFBCF5E06F1ED817
:10696000BEF1004F08BF5FEA500E50F1000041EB4E
:10697000045170BD06F0004646EA010140EA0200FB
:1069800081EA0301B4EB5C04C2BFD4EB0C0541EA1D
:10699000045170BD41F480114FF0000E013C00F332
:1069A000AB8014F1360FDEBF002001F0004170BD56
:1069B000C4F10004203C35DA0C341BDC04F114046F
:1069C000C4F1200500FA05F320FA04F001FA05F2FB
:1069D00040EA020001F0004221F0004110EBD370C8
:1069E00021FA04F642EB06015EEA430E08BF20EAF4
:1069F000D37070BDC4F10C04C4F1200500FA04F397
:106A000020FA05F001FA04F240EA020001F0004128
:106A100010EBD37041F100015EEA430E08BF20EA9B
:106A2000D37070BDC4F1200500FA05F24EEA020EE3
:106A300020FA04F301FA05F243EA020321FA04F012
:106A400001F0004121FA04F220EA020000EBD370C9
:106A50005EEA430E08BF20EAD37070BD94F0000FC9
:106A60000FD101F00046400041EB010111F4801FFD
:106A700008BF013CF7D041EA060195F0000F18BFAE
:106A8000704703F00046520043EB030313F4801FEA
:106A900008BF013DF7D043EA0603704794EA0C0FA4
:106AA0000CEA135518BF95EA0C0F0CD050EA4106BA
:106AB00018BF52EA4306D1D181EA030101F0004137
:106AC0004FF0000070BD50EA410606BF104619465F
:106AD00052EA430619D094EA0C0F02D150EA01366B
:106AE00013D195EA0C0F05D152EA03361CBF1046AC
:106AF00019460AD181EA030101F0004141F0FE414B
:106B000041F470014FF0000070BD41F0FE4141F4CE
:106B1000780170BD70B54FF0FF0C4CF4E06C1CEACE
:106B200011541DBF1CEA135594EA0C0F95EA0C0F83
:106B300000F0A7F8A4EB050481EA030E52EA03353E
:106B40004FEA013100F088804FEA03334FF080555F
:106B500045EA131343EA12634FEA022245EA11158C
:106B600045EA10654FEA00260EF000419D4208BF3D
:106B7000964244F1FD0404F5407402D25B084FEAEA
:106B80003202B61A65EB03055B084FEA32024FF496
:106B900080104FF4002CB6EB020E75EB030E22BFF3
:106BA000B61A754640EA0C005B084FEA3202B6EBB3
:106BB000020E75EB030E22BFB61A754640EA5C0062
:106BC0005B084FEA3202B6EB020E75EB030E22BFF2
:106BD000B61A754640EA9C005B084FEA3202B6EBF3
:106BE000020E75EB030E22BFB61A754640EADC00B2
:106BF00055EA060E18D04FEA051545EA16754FEA14
:106C000006164FEAC30343EA52734FEAC2025FEA31
:106C10001C1CC0D111F4801F0BD141EA00014FF0C0
:106C200000004FF0004CB6E711F4801F04BF014391
:106C30000020B4F1FD0C88BFBCF5E06F3FF6AFAEAD
:106C4000B5EB030C04BFB6EB020C5FEA500C50F13D
:106C5000000041EB045170BD0EF0004E4EEA1131C0
:106C600014EB5C04C2BFD4EB0C0541EA045170BDC7
:106C700041F480114FF0000E013C90E645EA060E0B
:106C80008DE60CEA135594EA0C0F08BF95EA0C0F39
:106C90003FF43BAF94EA0C0F0AD150EA01347FF481
:106CA00034AF95EA0C0F7FF425AF104619462CE758
:106CB00095EA0C0F06D152EA03353FF4FDAE1046BB
:106CC000194622E750EA410618BF52EA43067FF40C
:106CD000C5AE50EA41047FF40DAF52EA43057FF49C
:106CE000EBAE12E74FEA410212F5001215D211D5B0
:106CF0006FF47873B3EB625212D94FEAC12343F0B9
:106D0000004343EA505311F0004F23FA02F018BF3A
:106D1000404270474FF00000704750EA013005D103
:106D200011F0004008BF6FF0004070474FF00000C6
:106D3000704700BF002301461A46184600F0F2B81B
:106D40000A44914200F1FF3300D1704710B511F8A9
:106D5000014B03F8014F9142F9D110BD884210B5A3
:106D600001EB020402D98442234607D8431EA14204
:106D700008D011F8012B03F8012FF8E7024401466F
:106D80008A4200D110BD13F8014D02F8014DF7E71A
:106D900002440346934200D1704703F8011BF9E710
:106DA00038B50D4B1D68AB6B04467BB91820FEF758
:106DB00089FA0A4A0A4BA863C0E90023094B836099
:106DC0000B23838101220023C0E90423AB6B002243
:106DD0001C615A6138BD00BFA8E403200E33CDAB5F
:106DE00034126DE6ECDE050010F8012B11F8013BC2
:106DF000012A28BF9A42F7D0D01A7047034611F8EB
:106E0000012B03F8012B002AF9D17047034613F830
:106E1000012B002AFBD1181A013870472DE9F047E1
:106E20003A4E86468C4660461CF8014BA55D15F02F
:106E30000805F8D12D2C33D19CF800404FF0010803
:106E400000F1020C002B5CD0102B0CD1302C0AD19D
:106E50009CF8000000F0DF0058284DD19CF801405C
:106E600010230CF1020C08F10047013F0026B7FB8C
:106E7000F3F9304603FB197AA4F13005092D18D82F
:106E80002C46A34224DD751C07D081451DD301D1BA
:106E9000A2451ADB00FB034001261CF8014BEBE77F
:106EA0002B2C08BF9CF80040A84608BF00F1020C3C
:106EB000C8E7A4F14105192D01D8373CE1E7A4F159
:106EC0006105192D04D8573CDBE74FF0FF36E4E7A6
:106ED000731C06D12223CEF80030384642B9BDE8F3
:106EE000F087B8F1000F00D04042002AF7D00EB171
:106EF0000CF1FF311160F2E73024002BB3D10823ED
:106F0000B1E7302CA4D00A23ADE700BFA2720D0078
:106F100013460A46014602480068FFF77FBF00BFDC
:106F2000A8E403202DE9F843DFF8B8800646D8F836
:106F300000001F460D46914600F056F8254B1C6890
:106F400034B9254C1C60254B13B11B68C4F888303C
:106F500063681F2B07DDD8F8000000F047F84FF0FA
:106F6000FF30BDE8F8834EB3D4F8880088B91C4BD5
:106F700023B9D8F8000000F038F8F0E74FF4847037
:106F8000FEF7A0F90028F4D00023C0E94033C4F88C
:106F90008800636840F8239001229A4000EB830147
:106FA000D0F800311343022EC0F80031C1F88070D0
:106FB00002BFD0F804311A43C0F804216368D8F83E
:106FC00000005A1C0233626044F8235000F00EF8AF
:106FD0000020C6E7E0E7032054E70320000000009C
:106FE000C5520D000CE50320704770477047000044
:106FF00021400D005D400D0085400D0089400D00D1
:10700000000000007B7D007B2274223A25642C2244
:1070100070223A25642C2273223A25642C2268229D
:107020003A25647D006672657175656E63790073DB
:107030006D6172746C69676874006C656400746873
:1070400065726D6F73746174007B2274223A2564DB
:107050002C226C69676874223A25732C226C656453
:10706000223A25732C226374223A256C647D007BBE
:10707000224C30223A25642C224C31223A25642CB1
:107080002262223A25642C2273223A25642C226D36
:10709000223A25642C224D223A25647D006F6E0031
:1070A0006175746F006272696768746E65737300EE
:1070B0006D696E006D6178007B2274223A25662C22
:1070C0002263223A25662C2268223A25662C226801
:1070D00069223A25662C226470223A25662C226B9E
:1070E000223A25667D004661696C656420746F20D4
:1070F000726561642066726F6D2044485420736528
:107100006E736F722100000000000000000000009C
:1071100073530D0069530D005F530D0055530D005F
:1071200049530D003D530D00695D0D00715D0D006B
:1071300031530D0029530D001F530D0015530D0041
:10714000A15D0D006170700025592D256D2D256400
:107150005425483A254D3A2553257A0061736374C6
:10716000696D6500000000000000000059590D0025
:1071700049590D004B590D000000000000000000AF
:10718000315A0D00995A0D006F5A0D00E1550D004E
:10719000615A0D00335A0D00435A0D00935A0D00E9
:1071A000535A0D002B5A0D00000000000000000093
:1071B0003D5B0D00AB5B0D00835B0D00E1550D00E9
:1071C000535B0D006F5B0D00615B0D007D5B0D007F
:1071D0003F5B0D00455B0D0000000000000000005B
:1071E000315C0D007B5C0D00535C0D00335C0D00C9
:1071F0005B5C0D00635C0D006B5C0D00735C0D004F
:1072000000000000000000000B5D0D00015D0D009E
:10721000F75C0D00AD5C0D00EB5C0D00DF5C0D005C
:10722000695D0D00715D0D00D35C0D00CB5C0D0040
:10723000C15C0D00B75C0D00A15D0D0000000000F9
:1072400000000000295D0D00335D0D003D5D0D0067
:10725000475D0D00515D0D005D5D0D00695D0D0028
:10726000715D0D00795D0D00855D0D008D5D0D007A
:10727000975D0D00A15D0D00302E300066616C73CE
:10728000650000000000000000000000B75E0D0077
:10729000BD5E0D00D35E0D00CB5E0D00B95E0D002E
:1072A00000002020202020202020202828282828F6
:1072B00020202020202020202020202020202020CE
:1072C0002020881010101010101010101010101026
:1072D0001010040404040404040404041010101026
:1072E00010101041414141414101010101010101E1
:1072F0000101010101010101010101010110101051
:1073000010101042424242424202020202020202B3
:107310000202020202020202020202020210101023
:10732000102000000000000000000000000000002D
:10733000000000000000000000000000000000004D
:10734000000000000000000000000000000000003D
:10735000000000000000000000000000000000002D
:10736000000000000000000000000000000000001D
:10737000000000000000000000000000000000000D
:1073800000000000000000000000000000000000FD
:1073900000000000000000000000000000000000ED
:1073A0000000000079450D000D4E0D007D530D00CD
:1073B000A5530D00D1550D0001570D0085570D0047
:1073C00005580D00155D0D00755E0D0000000000F4
:0473D00000000000B9
:1073D4005C710D00ACE4032000000000000000001C
:1073E4000000000000000000000000000000000099
:1073F4000000000000000000000000000000000089
:107404000000000000000000000000000000000078
:107414000000000000000000000000000000000068
:107424000000000000000000000000000000000058
:0C7434000000000000000000E5E703205D
:10744000FFFFFFFF00000102030405060708090A09
:107450000B0C0D0E0F101112131415161718191A04
:087460001B1C1D1E1F2028004B
:04746800785634120C
:04000003D0004020C9
:00000001FF
