:02000002D0002C
:1040000000400D00346E0D00000006000C0005019C
:084010000401BD0B00000000DB
:04401800186A0D0015
:1040200009480A49884208B505D0094A824202D0A7
:10403000121A02F0FFFB0748074A0021121A02F089
:1040400021FC014808BD00BF84E50320A46D0D00DC
:10405000ECE50320ECE50320F0E7032070B5074E04
:10406000074C01F0ADF9A41BA4080025A54200D11E
:1040700070BD56F8043B98470135F7E7746D0D00A5
:10408000986D0D0000F012B908B500F0E9F9BDE82F
:10409000084001F057B900F049BE00F047BE00F0FB
:1040A0004DBE00F04BBE0078B0FA80F0400970477A
:1040B000012303707047000038B500F11005044675
:1040C0000849284600F01BFF00230A220121C4E909
:1040D0000221237004496360284600F063FF2046F4
:1040E00038BD00BF4B6C0D002C6A0D0010B586B0BA
:1040F000C368019303780093D0E90123044607497C
:1041000002A800F08DFF02A904F1100000F042FFA8
:1041100002A800F0A9FE06B010BD00BF2F6A0D0076
:1041200038B50278044632B1012A12D02046BDE8E3
:104130003840FFF7DBBF4368816801338B4243603F
:10414000F4DB42600121072001F0F3FE012323701C
:10415000ECE743688268013393424360E6DB002565
:1041600045602946072001F0E4FE2570DEE738B5FA
:10417000046805467CB16368013B63605BB92368F2
:1041800020469B689847A368013BA3601BB923683E
:104190002046DB689847284638BD13B50B460446D1
:1041A0001A685B6809690092019313B15A68013279
:1041B0005A606A46204601F03DFC01A8FFF7D7FF90
:1041C000204602B010BD000070B50B468CB01A68D6
:1041D0005B68896802920446039313B15A680132FE
:1041E0005A6002AA06A801F0BFFD03A8FFF7BFFFAF
:1041F0001F4E06A801F0D0FD002833D0069B009387
:10420000079B0999019313B15A6801325A606A46B3
:1042100002A801F085FD01A8FFF7A9FF0498314627
:1042200002F05CFB054603A8FFF7A1FF002DE0D1DB
:1042300006A902A8FFF7B1FF02A801F06FFCE06039
:1042400003A8FFF794FF06A902A8FFF7A6FF02A89C
:1042500001F064FC0A235843A06003A8FFF787FF1E
:104260006560C6E707A8FFF782FF0CB070BD00BF0E
:104270004D6A0D0010B50446103000F0F5FD2046E3
:1042800010BD10B50446203000F0EEFD204610BDF4
:104290000EB403B503AB002153F8042B019300F0D7
:1042A00062FF02B05DF804EB03B0704708B501216E
:1042B000072001F02DFE012000F0E1FFFF22114652
:1042C000104600F0ECFF01F081F94FF4165101F0B7
:1042D00071F9024B00221A6008BD00BFF0E503200F
:1042E0000B68036013B15A6801325A6070470000CE
:1042F000F0B597B001F06AF903681B699847002888
:1043000040F3A180514908A800F0F9FD01F05EF9E1
:1043100003681B69984780B101F058F903685B692D
:104320009847C1B210A800F04FFE10A908A800F0ED
:1043300073FE10A800F098FDE8E70899019108467F
:1043400002F0DEFA0199424E424F434D024605A863
:1043500001F04AFD079C059B0C9306A90DA8FFF7E9
:10436000BFFF0CAA214610A801F0FEFC0DA8FFF724
:10437000FEFE10A801F010FD00285BD0139C109BDE
:10438000039311A904A8FFF7ABFF214603AA0CA8C9
:1043900001F0C6FC04A8FFF7EAFE0E98314602F0D1
:1043A0009DFA04460DA8FFF7E2FEB4B9149C109BD9
:1043B000039311A904A8FFF793FF214603AA0CA8B1
:1043C00001F038FB04A8FFF7D2FE24480CA900F046
:1043D000E3F90DA8FFF7CBFECBE7139C109B0393EB
:1043E00011A904A8FFF77CFF214603AA0CA801F03D
:1043F00097FC04A8FFF7BBFE0E98394602F06EFA50
:1044000004460DA8FFF7B3FE002CB2D1149C109BFC
:10441000039311A904A8FFF763FF214603AA0CA880
:1044200001F008FB04A8FFF7A2FE0CA92846FFF73D
:10443000CBFECEE711A8FFF79AFE06A8FFF797FE7E
:1044400008A800F011FD17B0F0BD00BF4B6C0D00C7
:10445000576A0D00626A0D0024E60320F4E503208C
:10446000F0B58DB000F06EFA224D0446FFF740FF24
:10447000214800F045F92148FFF752FE00F062FAAA
:1044800029680A2291FBF2F302FB1313064623BBB1
:104490002B6001F09BF8074600F0CEFE1849039010
:1044A00004A800F06CFD049B1649029308A800F0D4
:1044B00066FD361B08990091DDE90232124901962A
:1044C0003846FFF7E5FE08A800F0CEFC04A800F08F
:1044D000CBFC01F07BF800F01CFE2B6801332B6055
:1044E00000F030FA6434201A01D000F0BFFE0DB0A5
:1044F000F0BD00BFF0E50320F4E5032024E603202F
:1045000014E6032034E60320666A0D0010B50C4C57
:104510000021012000F066FB204600F01BF8204639
:10452000084C094A094901F075FD2046FFF7C4FD12
:104530002046054A0649BDE8104001F06BBD00BFAA
:10454000F4E5032024E60320ECE5032083420D007C
:1045500075420D0038B500F1200504460C49284687
:1045600000F0CDFC40F2011323808023636040F60D
:10457000C4114FF4FA73C4E903132846054900F047
:1045800011FD054BE361C4E90533204638BD00BF8A
:104590004B6C0D002C6A0D006179FEFF08B500F030
:1045A0009FFE28B1BDE808400121002000F08ABE2E
:1045B00008BD00000000000038B5134B99420446C6
:1045C00008460AD1656800F08BFE854216D0207936
:1045D0000121BDE8384000F075BE01F079FE08A366
:1045E000D3E9002301F0DEFE084B002202F004F8BC
:1045F00002F0EAF801216060C0B2EAE738BD00BF0E
:104600000000000000E06F406179FEFF00005940AB
:1046100010B50446132001F0A5FCA06010BD0000F9
:104620002DE9F0410446FFF7F3FF2569A068D4F8AF
:104630000C80A842B8BF28468045D4BFC5EB08000F
:10464000C5EB000001F044FE0646A8EB05000F464E
:1046500001F03EFE02460B463046394601F0CCFFE3
:1046600002460B4600200A4901F0E4FC06A3D3E908
:10467000002301F097FE02F0A7F801216060BDE879
:10468000F041C0B200F01EBE0000000000E06F402C
:104690000000F03F0000000070B588B0C3684678A5
:1046A0000578039303690293836801930446406885
:1046B00001F00EFE10A3D3E9002301F09DFF0C4B87
:1046C000002201F06FFE02F07FF833462A46009088
:1046D000084904A800F0A4FC04A904F1200000F09B
:1046E00059FC04A800F0C0FB08B070BDAFF3008017
:1046F000000059408C6A0D000000000000E06F408F
:1047000038B50578044655B1012D13D0174BE36138
:10471000C4E905332046BDE83840FFF7BDBFFFF7C9
:104720003DFF6369114A9342F0D0002BEED0012384
:104730002380EBE7437833B1012B0FD06369002B63
:10474000E4D12370E2E7C169FFF736FFA369074AA6
:104750009342F3D0002BF1D06570EFE7FFF760FFD5
:10476000A369002BEAD16370E8E700BF6179FEFF1F
:1047700037B5CD6851F8043B0093044601A8FFF714
:10478000AFFD6A462946204601F0CAFA01A8FFF7A4
:10479000EEFC204603B030BD2DE9F0418AB08D68B3
:1047A00051F8043B0093044601A8FFF799FD6A46BF
:1047B000294604A801F0D8FA01A8FFF7D8FC3C4E1E
:1047C0003C4FDFF8FC8004A801F0E6FA002869D02D
:1047D00004A96846FFF7CCFF3146029802F07EF844
:1047E000054601A8FFF7C3FC04A968464DB9FFF7C9
:1047F000D4FC684601F054F9606101A8FFF7B7FCEA
:10480000E1E7FFF7B5FF3946029802F067F8054681
:1048100001A8FFF7ACFC04A9684635B9FFF7BDFC59
:10482000684601F03DF9A061E7E7FFF7A1FF4146C7
:10483000029802F053F8054601A8FFF798FC04A976
:10484000684635B9FFF7A9FC684601F067F9E061F1
:10485000D3E7FFF78DFF1849029802F03FF80546AD
:1048600001A8FFF784FC04A9684635B9FFF795FC59
:10487000684601F053F92061BFE7FFF779FF0F4960
:10488000029802F02BF8054601A8FFF770FC002DF6
:1048900099D104A96846FFF780FC684601F03EF90B
:1048A000E060AAE705A8FFF762FC0AB0BDE8F08166
:1048B000BA6A0D00BD6A0D00CD6A0D00D16A0D0007
:1048C000C26A0D0008B5024B1B689B68019308BDC6
:1048D0006802030008B5024B1B68DB68019308BD42
:1048E0006802030008B5024B1B685B68019308BDB2
:1048F0002C02030008B5024B1B689B68019308BD9E
:104900002C02030008B5024B1B68DB68019308BD4D
:104910002C02030008B5024B1B681B69019308BDFC
:104920002C02030008B5024B1B681B6B019308BDEA
:104930002C02030008B5024B1B685B68019308BD9D
:104940001802030008B5024B1B685B69019308BDA0
:104950001802030008B5024B1B689B6D019308BD4C
:104960001802030008B5024B1B685B6E019308BD7B
:104970001802030008B5024B1B685B6C019308BD6D
:104980004802030008B5024B1B689B6C019308BDED
:104990004802030008B5024B1B685B69019308BD20
:1049A0006402030008B5024B1B681B68019308BD35
:1049B0003C02030008B5024B1B68DB68019308BD8D
:1049C0003C02030008B5024B1B681B69019308BD3C
:1049D0003C02030008B5024B1B685B69019308BDEC
:1049E0003C02030008B5024B1B689B69019308BD9C
:1049F0003C02030008B5024B1B68DB69019308BD4C
:104A00003C02030008B5024B1B681B6A019308BDFA
:104A10003C02030008B5024B1B689B6A019308BD6A
:104A20003C02030008B5024B1B681B6A019308BDDA
:104A30002802030008B5024B1B685B6A019308BD9E
:104A40002802030008B5024B1B689B6A019308BD4E
:104A50002802030008B5024B1B68DB6A019308BDFE
:104A60002802030008B5024B1B681B6B019308BDAD
:104A70002802030008B5024B1B685B6B019308BD5D
:104A80002802030008B5024B1B681B6C019308BD8C
:104A90002802030008B5024B1B68DB69019308BDBF
:104AA0003002030008B5024B1B681B6A019308BD66
:104AB0003002030008B5024B1B681B68019308BD58
:104AC0004C02030008B5024B1B685B68019308BDEC
:104AD0004C02030008B5024B1B681B69019308BD1B
:104AE0004C02030008B5024B1B685B69019308BDCB
:104AF0004C02030008B5024B1B689B69019308BD7B
:104B00004C02030008B5024B1B68DB69019308BD2A
:104B10004C02030008B5024B1B681B6A019308BDD9
:104B20004C02030008B5024B1B685B68019308BD8B
:104B30006002030008B5024B1B689B68019308BD27
:104B40006002030008B5024B1B68DB68019308BDD7
:104B50006002030008B5024B1B681B69019308BD86
:104B60006002030008B5024B1B689B69019308BDF6
:104B70006002030008B5024B1B68DB69019308BDA6
:104B80006002030008B5024B1B68DB6A019308BD95
:104B90006002030008B5024B1B689B6B019308BDC4
:104BA0006002030008B5024B1B68DB6B019308BD74
:104BB0006002030008B5024B1B681B68019308BD27
:104BC0002002030008B5024B1B685B68019308BD17
:104BD0002002030008B5024B1B685B69019308BD06
:104BE0002002030008B5024B1B68DB6A019308BD75
:104BF0002002030008B5024B1B689B6D019308BDA2
:104C00002002030008B5034B1B68D3F888300193DA
:104C100008BD00002002030008B5034B1B68D3F851
:104C20009430019308BD00002002030008B5024B38
:104C30001B685B68019308BD4002030008B5024B86
:104C40001B689B68019308BD4002030008B5024B36
:104C50001B68DB68019308BD4002030008B5024BE6
:104C60001B681B69019308BD4002030008B5024B95
:104C70001B685B69019308BD4002030008B5024B45
:104C80001B689B69019308BD4002030008B5024BF5
:104C90001B68DB69019308BD4002030008B5024BA5
:104CA0001B681B6A019308BD4002030008B5024B54
:104CB0001B681B6B019308BD4002030008B5024B43
:104CC0001B685B6B019308BD4002030008B5024BF3
:104CD0001B681B6C019308BD4002030008B5024B22
:104CE0001B685B6C019308BD4002030008B5024BD2
:104CF0001B689B68019308BD4402030008B5024B82
:104D00001B685B69019308BD4402030008B5024BB0
:104D10001B681B6B019308BD4402030008B5024BDE
:104D20001B68DB6B019308BD4402030008B5024B0E
:104D30001B681B68019308BD1C02030008B5024BE9
:104D40001B685B68019308BD1C02030008B5024B99
:104D50001B689B68019308BD1C02030008B5024B49
:104D60001B685B6A019308BD1C02030008B5024B77
:104D70001B685B6C019308BD1C02030000224068A5
:104D80001146FFF78BBF002240681146FFF796BF20
:104D900040680022FFF78ABF4068002281F00101CD
:104DA000FFF774BF002340681A461946FFF766BF35
:104DB000002340681A461946FFF758BF0022406892
:104DC0001146FFF74BBF002240681146FFF736BF80
:104DD000406800220221FFF739BF002340681A46CD
:104DE000FFF724BF024B03225A60024A1A60704741
:104DF00044E60320E06A0D0010B504460846217021
:104E0000FFF748FE00236360204610BD10B504463E
:104E1000006818B1FFF792FF0023236010BD10B5A2
:104E20000446FFF7F3FF204610BD000010B5094B04
:104E3000094C022200201A60084B2060A080A0715B
:104E4000A360FFF7BFFE2046054A0649BDE81040B3
:104E500001F0E0B858E603204CE603200000FFFF15
:104E6000ECE503201F4E0D0010B504460068FFF767
:104E700065FF204610BD10B50446006808B1FFF775
:104E80005DFF0023C4E90133236010BD38B504463B
:104E90000D4600680131FFF759FF10B1C4E9000564
:104EA000012038BD10B50368044623B143688B4226
:104EB00001D3012010BD2046FFF7E8FF0028F9D0FC
:104EC000A368002BF5D122681370F2E737B50D46C1
:104ED000114601920446FFF7E5FF019A28B92046E2
:104EE000FFF7C9FF204603B030BDA2602946206805
:104EF00001F0A0FC2268A3680021D154F2E700234E
:104F000013B5C0E9003304468360037341B108461A
:104F1000019101F0F5FC019902462046FFF7D6FF0A
:104F2000204602B010BD38B5054600680C4668B191
:104F30006A688B689A4207D3096801F0D9FCA368B4
:104F4000AB600023A36038BDFFF7F8FE23682B6039
:104F500063686B60A368AB600023C4E90033F1E7CA
:104F6000884210B5044605D00B682BB18A681946F3
:104F7000FFF7ACFF204610BDFFF77DFFFAE710B545
:104F800000230446C0E9003383600373FFF7E8FFA2
:104F9000204610BD884210B5044601D0FFF7C3FF7C
:104FA000204610BD13B5044659B10846019101F0E1
:104FB000A7FC019902462046FFF788FF204602B071
:104FC00010BDFFF758FFF9E713B500238DF8041063
:104FD000C0E900338360037301A904468DF80530EE
:104FE000FFF7E0FF204602B010BD70B505460E4643
:104FF00009B9002070BD6AB1846814442146FFF7E6
:1050000051FF0028F5D02868AB683146184401F0FC
:105010006FFCAC600120EDE78A680968FFF7E5BF27
:105020000EB470B587B00BAD044655F8042B019251
:105030002B46052104A80395FFF790FE0B49064671
:105040002046FFF75CFF31462046FFF72BFF206824
:1050500030B1019A03952B46711CFFF77FFEA060CB
:10506000204607B0BDE8704003B070474B6C0D00A0
:1050700010B50446006808B1FFF784FC204610BD57
:1050800010B58368044613B10322014698472046B1
:1050900010BD000010B5064C002320462360FFF72A
:1050A00069FC2046034A0449BDE8104000F0B2BF45
:1050B0005CE60320ECE5032071500D00F8B50646D0
:1050C0000D468F180024BD420CD0336815F8011B23
:1050D0009B6830469847031E01DB1C44F3E7002C15
:1050E00008BF1C462046F8BD13B50446084659B112
:1050F000019101F005FC23680199DB680246204616
:1051000002B0BDE81040184702B010BD03689B68AC
:10511000184738B50D210546FFF7F8FF0A21044668
:105120002846FFF7F3FF204438BD30B58BB000238D
:105130008DF82430012A98BF0A2209AC0D46B1FB34
:10514000F2F101FB125303F0FF03092B94BF30333C
:105150003733DBB2AA4204F8013DEFD92146FFF70D
:10516000C3FF0BB030BD2DE9F04186B000AF05465E
:105170000E46381D142114463B60FFF7EFFD13283F
:105180000ED8391D2846FFF7AFFF04461EB128464A
:10519000FFF7BFFF044420461837BD46BDE8F08145
:1051A00000F1080323F00703E846ADEB030D2246A8
:1051B000411C3B686846FFF7D1FD69462846FFF76A
:1051C00093FF0446C546E1E7002340681A461946A6
:1051D000FFF74CBD014B024A1A60704760E603209E
:1051E000146B0D0008B50020FFF790FD28B1FFF704
:1051F00085FD80F00100C0B208BD0120FCE710B5BC
:105200000020FFF7A7FB0446A0B9FFF7D3FC012855
:1052100010D12046FFF7EEFC60B9FFF7E3FF10B9AD
:10522000FFF764FDF9E7FFF7DDFFBDE81040002060
:10523000FFF790BB204610BD1FB5FFF7E0FF10221F
:105240000021684601F01EFB00216846FFF78AFB3B
:10525000009805B05DF804FB024B1A68024B1A6017
:10526000704700BF84E5032064E603200021FFF7B8
:10527000B1BC10B50446FFF703FF204610BD10B5C2
:105280000446FFF76FFC844208D01CB1BDE8104013
:10529000FFF750BCBDE81040FFF754BC10BD70B51F
:1052A00005460E461446FFF75DFC50B144EA062061
:1052B00040EA0540FFF736FCBDE87040E720FFF705
:1052C00059BC70BD10B50C46FFF744FCFFF74AFC13
:1052D00028B124B1BDE81040E720FFF74BBC10BD5A
:1052E000FFF750BC0348044A04490023836000F0E0
:1052F00091BE00BF68E60320ECE5032073520D0069
:10530000014B1860704700BF88E5032008B50B4BC0
:1053100043B100F05BF903681B699847002801DD81
:10532000AFF30080064B43B100F0CEF903681B6970
:105330009847002801DDAFF3008008BD00000000A1
:105340000000000008B5FFF7E1FFFFF7FBFA014B93
:10535000186008BDD4E703200248034A0349121A23
:1053600001F068BA00F4032004F40320A06D0D00DE
:1053700007B5002300931A466FF07701FFF74CFC46
:1053800003B05DF804FB000007B543880A2B08D082
:10539000502B0BD1094B1B684BB103B05DF804EBEC
:1053A0001847FFF7E5FF03B05DF804FB0023009307
:1053B0001A466FF07701FFF72FFCF4E77CE6032035
:1053C00038B5124C1248134D0021FFF7CFFC23686B
:1053D000AB42114B0CBF012200221A7002D0FFF722
:1053E000BBFF2560FFF7A6FA044601F053FA0B4B0A
:1053F00013B12046AFF3008000210848FFF78EFC70
:10540000BDE8384006480021FFF7FCBB00F403204C
:1054100001530D001E1C279A78E6032000000000AF
:1054200089530D00704710B51821044600F0F7FDB0
:10543000204610BDF0B5037D062B8DB00E4600F161
:1054400004074FF0000412D000F1080515F8011D03
:105450000A223046FFF769FEAF42044419D0002CFF
:10546000F4D02E213046FFF751FE0444EEE72F23FF
:105470006A4639460A208DF80040FFF78BFA6846E5
:1054800001F03EFA33680246DB68694630469847C9
:10549000044620460DB0F0BD10B5054B0446112260
:1054A00040F8043B002101F0EDF9204610BD00BF9B
:1054B0003C6B0D000346074A10B543F8042B01F17D
:1054C000100251F8044B43F8044B9142F9D10A7889
:1054D0001A7010BD3C6B0D0010B59DF8084044EAF1
:1054E000032343EA024242EA016104234160037557
:1054F00010BD000013B5054B0360CB7800938B788B
:105500004A780978FFF7E8FF02B010BD3C6B0D0048
:1055100041747047704708B50021007CFFF7EAFA34
:1055200040EAE07008BD08B50121007CFFF7E2FA0F
:1055300040EAE07008BD08B5007CFFF7D3FA20EA26
:10554000E07008BD08B5007CFFF7C4FA20EAE070FF
:1055500008BD13B50446007C0191FFF7C3FA00288B
:10556000019901DC607C20B1207CFFF7CBFA20EAB6
:10557000E07002B010BD007CFFF7CCBA10B514216A
:10558000044600F04CFD204610BD000010B54FF45D
:105590007A73044608460021C4E90113044B2360D2
:1055A0000123207463741146FFF784FA204610BD6E
:1055B000506B0D00007C0022FFF784BA10B5142256
:1055C0000446002101F05EF9204610BD10B5104CD4
:1055D00088B003A8FFF7F2FF2178BFF35B8F11F0CB
:1055E000010111D120460191FEF75DFD019958B1ED
:1055F00003AA0848FFF7CAFF2046FEF759FD064AEE
:105600000649044800F006FD024808B010BD00BF7E
:1056100080E6032084E60320ECE5032015550D0009
:1056200070474174704708B5007CFFF7F3F920EA32
:10563000E07008BD08B5007CFFF7C4F920EAE0700F
:1056400008BD08B5007CFFF7CDF940EAE07008BD61
:1056500008B5007CFFF7BEF940EAE07008BD007CA9
:10566000FFF7C8B937B5457C04462DB1207C03B09F
:10567000BDE83040FFF79EB9007C0191FFF7CAF901
:1056800000280199F2DC284603B030BD10B5142182
:10569000044600F0C4FC204610BD000010B54FF0D9
:1056A000000C0446084611464FF47A72C4E901C260
:1056B000044A22600122207462741A46FFF772F9CC
:1056C000204610BD806B0D0013B50E4C2178BFF342
:1056D0005B8F11F0010112D120460191FEF7E3FC2E
:1056E000019960B1084A094B0948FFF7D7FF2046E6
:1056F000FEF7DEFC074A0849054800F08BFC044829
:1057000002B010BD98E603209CE6032020E70320AA
:10571000A4E70320ECE5032021560D007047F8B5FF
:10572000064615460C468F18BC4206D0336814F85E
:10573000011B9B6830469847F6E72846F8BD007C79
:105740000022FFF76FB9007C0021FFF773B9007CDE
:105750000021FFF777B9007C0021FFF77BB9007CBF
:105760000021FFF77FB910B51421044600F057FC63
:10577000204610BD10B54FF47A7304460846002148
:10578000C4E90113034B236020741146FFF77AF933
:10579000204610BDB06B0D00002240681146FFF797
:1057A0005DBA002240681146FFF778BA00224068CF
:1057B0001146FFF783BA40680022FFF777BA4068C6
:1057C000002281F00101FFF761BA002340681A4608
:1057D0001946FFF753BA002240681146FFF72EBA68
:1057E000406800220221FFF731BA002340681A46C0
:1057F000FFF71CBA024B04225A60024A1A60704733
:10580000B8E70320D86B0D00002340681A46FFF765
:105810000DBA406800220221FFF718BA0022406842
:105820001146FFF70BBA002240681146FFF716BA7F
:10583000002340681A461946FFF718BA002340684B
:105840001A461946FFF71ABA40680021FFF73EBA18
:1058500040680021FFF742BA4068002281F0010150
:10586000FFF714BA40680022FFF720BA0022406810
:105870001146FFF723BA002240681146FFF70EBA1F
:105880002DE9F043002495B016460D460746FFF774
:1058900003FE214618220EA8009400F0F3FF4023D7
:1058A000CDE90C3421466B460CAA3046FFF712F8BE
:1058B000044600284CD1024601216868FFF7CEF962
:1058C0000221804622466868FFF7C8F9009E81469B
:1058D0002146002E3CD000293AD17368022B03D018
:1058E0000A2B11D0F669F4E7B8F1000F0AD07169FC
:1058F00006A8043107ADFFF7FDFD0FCD3C1D0FC419
:105900002B6823704146EDE7B9F1000F01D14946FC
:10591000E8E77469102201A800F0B4FF06238DF8AF
:10592000143001AD04F108031834186859682A4688
:1059300003C20833A3421546F7D101A906A807AD53
:10594000FFF7B8FD0FCD3C1D0FC42B682370DEE7B9
:105950000098FEF7B7FF384615B0BDE8F0830000A9
:10596000024B034A1A6000225A607047C0E70320C6
:10597000146C0D0000F11003012213F8101C012912
:10598000184608D153F8041C02EB4102013A03F116
:105990001003F2D17047022904BF53F8041C5218B7
:1059A000F4E770470020704710B51021044600F05E
:1059B00036FB204610BD08B5FFF7F6FF08BD10B551
:1059C000C4687CB1206808B1FEF76BFB237A1BB179
:1059D000606808B1FEF765FB20460C21BDE8104069
:1059E00000F01DBB10BD10B5036804469B689847C6
:1059F000A368013BA3602BB923682046DB68BDE8A0
:105A00001040184710BD38B50B6803604D684368F7
:105A10009D4204460CD015B16B6801336B60606821
:105A200028B14368013B43600BB9FFF7DCFF6560B9
:105A3000204638BD0B461146002210B5C0E90022B1
:105A4000044683600BB9204610BDFFF7DCFFFAE780
:105A50008368EBB11A78032A1AD8DFE802F004173A
:105A6000021B0520704702685B685268D05C2D28D5
:105A700012D0A0F13003092B0ED974280ED066285D
:105A80000CD0A0F16E035842584170470620704771
:105A900000207047042070470320704702207047A1
:105AA00010B50446FFF7D4FF03280DD004281ED0FC
:105AB00002282BD12268A36852685B68D05CA0F1F1
:105AC00074035842584110BDA36822685B6854684B
:105AD0001C440F49204600F001FF0028F3D00D4977
:105AE000204600F0FBFE003818BF0120EBE72268DB
:105AF000A36852685B68D05CD4180028E3D00649DC
:105B0000204600F0EBFE0028E3D1DCE70020DAE7D6
:105B10004A6C0D00486C0D004C6C0D0010B504462D
:105B2000FFF796FF02280ED0C31EDBB2012B14D85C
:105B30002268A36850685B68BDE810400A22002113
:105B4000184400F05FBF2268A36852685B68D05CAD
:105B5000A0F174035842584110BD0020FCE700003A
:105B60002DE9F04786B00746884602A800210024A8
:105B70009946102392460293FFF70CF8CDE90044B2
:105B800023464246394602A8FFF70CF8061E1EDDE2
:105B90001049300100F047FA054690B1214602A8AD
:105BA000FEF7F8FFCDE900642B464246394602A8CD
:105BB000FEF7F8FFA04207DDCAF800500120C9F83F
:105BC000006006B0BDE8F0872846FEF76AFA204676
:105BD000F7E700BF706C0D002DE9F84F4368866849
:105BE0000B4488460E4407461C4619464FF00D09E3
:105BF0004FF0090AB44263D0254615F8012B5C2A00
:105C00002BD1A14207D0A4EB010B18465A4600F055
:105C10001FFE03465B44B54239D06278752A2AD10B
:105C2000A21CB21A032A32DDA01D04F1050E4FF0AA
:105C3000000CAE4553D015F8011FA1F130025FFAF8
:105C400082FBBBF1090F05D9A1F16102052A07D832
:105C5000A1F1570242EA0C1CEBE728460446C9E7CB
:105C6000A1F14102052A12D8A1F13702F2E703F8A7
:105C700001CB0146F2E76E2A1CD00ED8622A13D05F
:105C800007D82F2A11D05C2A0FD0222A0DD000204D
:105C900023E0662AFBD10C2207E0722A0DD0742A79
:105CA000F5D183F800A001E008221A70A11C01338D
:105CB0000846D3E74FF00A02F7E783F80090F5E7CC
:105CC000A14206D0641A1846224600F0C1FD0346E0
:105CD0002344A3EB0803BB600120BDE8F88FBCF1AF
:105CE0007F0FC4D92146B9E7F8B50446154600EB45
:105CF00001160027B44210D02378032B08D129467F
:105D00002046FFF769FF48B1A368EF541034F1E76C
:105D1000002BFBD1A268AB54F8E70120F8BD0000CE
:105D200038B50023C0E9003304460E48C4E9020335
:105D3000A9B10B78032B06D08BB9136858684B6850
:105D4000C35C6E2B07D013684D6858688B68284475
:105D50005B1BA060E36011462046FFF754FE20461F
:105D600038BD00BF4B6C0D0038B500250B46C0E9AF
:105D70000055C0E90255C0E90455044611464BB12F
:105D80001A78012A06D103F11002DB6882604361B0
:105D9000FFF739FE204638BD10B54369044663B1AC
:105DA0008068E060013B1030A0602061636113B146
:105DB000FFF7E0FDA060012000E0184610BD0000E4
:105DC00038B500230446036010200D46FEF763F942
:105DD00028B10123C0E90133024B0360C560206094
:105DE000204638BD5C6C0D00F0B5044687B00E4609
:105DF0000C202749154600F014F9014618B100237C
:105E0000C0E90033037203A80291FFF7D9FF029A99
:105E100042B9C4E90022A26003A8FEF7A8F920460F
:105E200007B0F0BD00230193294601AB3046FFF7D0
:105E300097FE18B9C4E90000A060EDE71449029F7D
:105E4000681C00F0F0F8029B786058680028F1D0D8
:105E50002A46314600F0EEFC029B019918680122A7
:105E60001A725A68FFF740FF0028E3D0029B1968B6
:105E70000493039B059313B15A6801325A6004AA34
:105E80002046FFF7D7FD05A8FEF771F9C4E700BF6C
:105E9000706C0D00232813B502D9002002B010BD8C
:105EA000A0F10B03022B1AD8174C2178BFF35B8F9C
:105EB00011F001010BD120460191FEF7F4F8019990
:105EC00028B11248FEF798FF2046FEF7F1F80F4B75
:105ED0001878FEF7E7FD0028DFD10120DEE7012872
:105EE00009D800F06FF80021007CFEF7C3FD80F0B8
:105EF0000100C0B2D2E709380128EED8FFF7E4FB71
:105F0000007CFEF77FFDF2E7C8E70320CCE7032023
:105F1000232838B504460D460AD8FF2908D0FFF7D4
:105F2000B9FF28B129462046BDE83840FEF7E2BC5B
:105F300038BD38B504460D46FEF7E4FCFF2810D006
:105F4000062804D84D2323FA00F0C30709D42046BD
:105F5000FFF7A0FF28B129462046BDE83840FEF7EC
:105F6000D9BC38BD0D2810B504469CBF0E34A4B270
:105F70002046FFF78FFF50B103212046FEF7B2FC09
:105F8000032804D12046BDE81040FEF7CBBC00201A
:105F900010BD000038B5002320254380142304469B
:105FA0000380856005610649284600F03CF80449F5
:105FB0006060284600F037F8E060204638BD00BF3A
:105FC000706C0D0030B50F4D2978BFF35B8F11F069
:105FD000010487B013D12846FEF765F878B101A80F
:105FE000FFF7D8FF01AA21460748FFF7C3FB284661
:105FF000FEF75EF8054A0649034800F00BF8024830
:1060000007B030BDD8E70320DCE70320ECE5032030
:106010001D570D000B460146184600F0FDBBFEF76C
:106020003EB8FEF738B8FEF738B8000081F00041FE
:1060300002E000BF83F0004330B54FEA41044FEA6D
:10604000430594EA050F08BF90EA020F1FBF54EA08
:10605000000C55EA020C7FEA645C7FEA655C00F0A4
:10606000E2804FEA5454D4EB5555B8BF6D420CDD75
:106070002C4480EA020281EA030382EA000083EAF8
:10608000010180EA020281EA0303362D88BF30BD98
:1060900011F0004F4FEA01314FF4801C4CEA1131EE
:1060A00002D0404261EB410113F0004F4FEA03334D
:1060B0004CEA133302D0524263EB430394EA050FD8
:1060C00000F0A780A4F10104D5F1200E0DDB02FA47
:1060D0000EFC22FA05F2801841F1000103FA0EF2DB
:1060E000801843FA05F359410EE0A5F120050EF1A1
:1060F000200E012A03FA0EFC28BF4CF0020C43FAD2
:1061000005F3C01851EBE37101F0004507D54FF0DE
:10611000000EDCF1000C7EEB00006EEB0101B1F52E
:10612000801F1BD3B1F5001F0CD349085FEA300074
:106130004FEA3C0C04F101044FEA445212F5800F7F
:1061400080F09A80BCF1004F08BF5FEA500C50F11C
:10615000000041EB045141EA050130BD5FEA4C0CFF
:10616000404141EB0101013C28BFB1F5801FE9D25C
:1061700091F0000F04BF01460020B1FA81F308BF7F
:106180002033A3F10B03B3F120020CDA0C3208DD4B
:1061900002F1140CC2F10C0201FA0CF021FA02F126
:1061A0000CE002F11402D8BFC2F1200C01FA02F196
:1061B00020FA0CFCDCBF41EA0C019040E41AA2BFBB
:1061C00001EB0451294330BD6FEA04041F3C1CDA83
:1061D0000C340EDC04F11404C4F1200220FA04F0A3
:1061E00001FA02F340EA030021FA04F345EA03014D
:1061F00030BDC4F10C04C4F1200220FA02F001FA0F
:1062000004F340EA0300294630BD21FA04F0294690
:1062100030BD94F0000F83F4801306BF81F4801129
:106220000134013D4EE77FEA645C18BF7FEA655C9C
:1062300029D094EA050F08BF90EA020F05D054EA6E
:10624000000C04BF1946104630BD91EA030F1EBF73
:106250000021002030BD5FEA545C05D14000494177
:1062600028BF41F0004130BD14F580043CBF01F56A
:10627000801130BD01F0004545F0FE4141F4700150
:106280004FF0000030BD7FEA645C1ABF194610462B
:106290007FEA655C1CBF0B46024650EA013406BF2C
:1062A00052EA033591EA030F41F4002130BD00BFEB
:1062B00090F0000F04BF0021704730B54FF48064A8
:1062C00004F132044FF000054FF0000150E700BF29
:1062D00090F0000F04BF0021704730B54FF4806488
:1062E00004F1320410F0004548BF40424FF0000175
:1062F0003EE700BF42004FEAE2014FEA31014FEAB8
:1063000002701FBF12F07F4393F07F4F81F0605106
:10631000704732F07F4208BF704793F07F4F04BF51
:1063200041F40021704730B54FF4607401F000452E
:1063300021F000411CE700BF50EA010208BF70478E
:1063400030B54FF000050AE050EA010208BF70477F
:1063500030B511F0004502D5404261EB41014FF4E8
:10636000806404F132045FEA915C3FF4D8AE4FF0F0
:1063700003025FEADC0C18BF03325FEADC0C18BFD3
:10638000033202EBDC02C2F1200300FA03FC20FA24
:1063900002F001FA03FE40EA0E0021FA02F1144471
:1063A000BDE600BF70B54FF0FF0C4CF4E06C1CEA8A
:1063B00011541DBF1CEA135594EA0C0F95EA0C0FFB
:1063C00000F0DEF82C4481EA030621EA4C5123EA6E
:1063D0004C5350EA013518BF52EA033541F480119D
:1063E00043F4801338D0A0FB02CE4FF00005E1FB50
:1063F00002E506F00042E0FB03E54FF00006E1FB9A
:1064000003569CF0000F18BF4EF0010EA4F1FF04DC
:10641000B6F5007F64F5407404D25FEA4E0E6D411C
:1064200046EB060642EAC62141EA55514FEAC5202D
:1064300040EA5E504FEACE2EB4F1FD0C88BFBCF5A9
:10644000E06F1ED8BEF1004F08BF5FEA500E50F15A
:10645000000041EB045170BD06F0004646EA010120
:1064600040EA020081EA0301B4EB5C04C2BFD4EB52
:106470000C0541EA045170BD41F480114FF0000E4B
:10648000013C00F3AB8014F1360FDEBF002001F0B9
:10649000004170BDC4F10004203C35DA0C341BDC33
:1064A00004F11404C4F1200500FA05F320FA04F005
:1064B00001FA05F240EA020001F0004221F0004139
:1064C00010EBD37021FA04F642EB06015EEA430EAC
:1064D00008BF20EAD37070BDC4F10C04C4F12005DC
:1064E00000FA04F320FA05F001FA04F240EA02008F
:1064F00001F0004110EBD37041F100015EEA430E60
:1065000008BF20EAD37070BDC4F1200500FA05F27F
:106510004EEA020E20FA04F301FA05F243EA0203FE
:1065200021FA04F001F0004121FA04F220EA02000D
:1065300000EBD3705EEA430E08BF20EAD37070BD53
:1065400094F0000F0FD101F00046400041EB010133
:1065500011F4801F08BF013CF7D041EA060195F015
:10656000000F18BF704703F00046520043EB0303CF
:1065700013F4801F08BF013DF7D043EA06037047BC
:1065800094EA0C0F0CEA135518BF95EA0C0F0CD0C7
:1065900050EA410618BF52EA4306D1D181EA03010D
:1065A00001F000414FF0000070BD50EA410606BF07
:1065B0001046194652EA430619D094EA0C0F02D14C
:1065C00050EA013613D195EA0C0F05D152EA033691
:1065D0001CBF104619460AD181EA030101F00041AF
:1065E00041F0FE4141F470014FF0000070BD41F0F8
:1065F000FE4141F4780170BD70B54FF0FF0C4CF4D2
:10660000E06C1CEA11541DBF1CEA135594EA0C0FF0
:1066100095EA0C0F00F0A7F8A4EB050481EA030E3D
:1066200052EA03354FEA013100F088804FEA033324
:106630004FF0805545EA131343EA12634FEA0222F2
:1066400045EA111545EA10654FEA00260EF00041B3
:106650009D4208BF964244F1FD0404F5407402D205
:106660005B084FEA3202B61A65EB03055B084FEA96
:1066700032024FF480104FF4002CB6EB020E75EB93
:10668000030E22BFB61A754640EA0C005B084FEABB
:106690003202B6EB020E75EB030E22BFB61A754638
:1066A00040EA5C005B084FEA3202B6EB020E75EB83
:1066B000030E22BFB61A754640EA9C005B084FEAFB
:1066C0003202B6EB020E75EB030E22BFB61A754608
:1066D00040EADC0055EA060E18D04FEA051545EAF7
:1066E00016754FEA06164FEAC30343EA52734FEAA0
:1066F000C2025FEA1C1CC0D111F4801F0BD141EA19
:1067000000014FF000004FF0004CB6E711F4801F7D
:1067100004BF01430020B4F1FD0C88BFBCF5E06F5D
:106720003FF6AFAEB5EB030C04BFB6EB020C5FEA6D
:10673000500C50F1000041EB045170BD0EF0004EC2
:106740004EEA113114EB5C04C2BFD4EB0C0541EAF4
:10675000045170BD41F480114FF0000E013C90E6F1
:1067600045EA060E8DE60CEA135594EA0C0F08BFB5
:1067700095EA0C0F3FF43BAF94EA0C0F0AD150EAB4
:1067800001347FF434AF95EA0C0F7FF425AF104647
:1067900019462CE795EA0C0F06D152EA03353FF46F
:1067A000FDAE1046194622E750EA410618BF52EAEC
:1067B00043067FF4C5AE50EA41047FF40DAF52EAC0
:1067C00043057FF4EBAE12E74FEA410212F50012E7
:1067D00015D211D56FF47873B3EB625212D94FEA28
:1067E000C12343F0004343EA505311F0004F23FA12
:1067F00002F018BF404270474FF00000704750EA67
:10680000013005D111F0004008BF6FF00040704723
:106810004FF00000704700BF10B5054C13462CB177
:106820000A4601460220AFF3008010BD2046FCE777
:10683000000000000A44914200F1FF3300D170478C
:1068400010B511F8014B03F8014F9142F9D110BD79
:10685000884210B501EB020402D98442234607D8CE
:10686000431EA14208D011F8012B03F8012FF8E7CD
:10687000024401468A4200D110BD13F8014D02F8CE
:10688000014DF7E702440346934200D1704703F8F5
:10689000011BF9E738B50D4B1D68AB6B04467BB99E
:1068A0001820FEF743FA0A4A0A4BA863C0E90023FE
:1068B000094B83600B23838101220023C0E9042359
:1068C000AB6B00221C615A6138BD00BF88E5032014
:1068D0000E33CDAB34126DE6ECDE050010F8012B63
:1068E00011F8013B012A28BF9A42F7D0D01A70470D
:1068F000034611F8012B03F8012B002AF9D1704748
:10690000034613F8012B002AFBD1181A01387047EF
:106910002DE9F0473A4E86468C4660461CF8014BFE
:10692000A55D15F00805F8D12D2C33D19CF8004059
:106930004FF0010800F1020C002B5CD0102B0CD1A1
:10694000302C0AD19CF8000000F0DF0058284DD10F
:106950009CF8014010230CF1020C08F10047013FA4
:106960000026B7FBF3F9304603FB197AA4F1300592
:10697000092D18D82C46A34224DD751C07D081456B
:106980001DD301D1A2451ADB00FB034001261CF8F0
:10699000014BEBE72B2C08BF9CF80040A84608BF32
:1069A00000F1020CC8E7A4F14105192D01D8373CCC
:1069B000E1E7A4F16105192D04D8573CDBE74FF05E
:1069C000FF36E4E7731C06D12223CEF800303846A8
:1069D00042B9BDE8F087B8F1000F00D04042002A6C
:1069E000F7D00EB10CF1FF311160F2E73024002B2B
:1069F000B3D10823B1E7302CA4D00A23ADE700BF00
:106A0000726C0D0013460A46014602480068FFF703
:106A10007FBF00BF88E5032021400D005D400D00D1
:106A200085400D0089400D00000000007B7D007B4B
:106A30002274223A25642C2270223A25642C227377
:106A4000223A25642C2268223A25647D006672650C
:106A50007175656E637900736D6172746C696768D6
:106A600074006C6564007B2274223A25642C226CCD
:106A700069676874223A25732C226C6564223A2572
:106A8000732C226374223A256C647D007B224C3087
:106A9000223A25642C224C31223A25642C2262228F
:106AA0003A25642C2273223A25642C226D223A2541
:106AB000642C224D223A25647D006F6E006175744E
:106AC0006F006272696768746E657373006D696EDA
:106AD000006D617800000000000000000000000070
:106AE000DB4D0D00D14D0D00C74D0D00BD4D0D000E
:106AF000B14D0D00A54D0D0049580D0051580D0028
:106B0000994D0D00914D0D00874D0D007D4D0D00EF
:106B100081580D006170700025592D256D2D25645B
:106B20005425483A254D3A2553257A0061736374FC
:106B3000696D6500000000000000000035540D0084
:106B400025540D0027540D00000000000000000037
:106B500015550D007D550D0053550D00BD500D0010
:106B600045550D0017550D0027550D0077550D00A3
:106B700037550D0011550D00000000000000000009
:106B800021560D008D560D0065560D00BD500D00AF
:106B900035560D0051560D0043560D005F560D0041
:106BA00023560D0027560D000000000000000000D5
:106BB0001D570D0067570D003F570D001F570D0063
:106BC00047570D004F570D0057570D005F570D00E9
:106BD0000000000000000000EB570D00E1570D0021
:106BE000D7570D0099570D00C9510D00CB570D0017
:106BF00049580D0051580D00BF570D00B7570D00F3
:106C0000AD570D00A3570D0081580D000000000086
:106C10000000000009580D0013580D001D580D000C
:106C200027580D0031580D003D580D0049580D00F2
:106C300051580D0059580D0065580D006D580D0044
:106C400077580D0081580D00302E300066616C734E
:106C5000650000000000000000000000A3590D00C6
:106C6000A9590D00BF590D00B7590D00A5590D00C8
:106C7000000020202020202020202028282828282C
:106C80002020202020202020202020202020202004
:106C9000202088101010101010101010101010105C
:106CA000101004040404040404040404101010105C
:106CB0001010104141414141410101010101010117
:106CC0000101010101010101010101010110101087
:106CD00010101042424242424202020202020202EA
:106CE000020202020202020202020202021010105A
:106CF0001020000000000000000000000000000064
:106D00000000000000000000000000000000000083
:106D10000000000000000000000000000000000073
:106D20000000000000000000000000000000000063
:106D30000000000000000000000000000000000053
:106D40000000000000000000000000000000000043
:106D50000000000000000000000000000000000033
:106D60000000000000000000000000000000000023
:106D7000000000000D450D00E54D0D002D4E0D00ED
:106D800095500D00D5510D0059520D00E5520D00E2
:106D9000F5570D0061590D000000000000000000D3
:046DA00000000000EF
:106DA4002C6B0D008CE503200000000000000000A7
:106DB40000000000000000000000000000000000CF
:106DC40000000000000000000000000000000000BF
:106DD40000000000000000000000000000000000AF
:106DE400000000000000000000000000000000009F
:106DF400000000000000000000000000000000008F
:086E0400000000000000000086
:106E0C00FFFFFFFF00000102030405060708090A43
:106E1C000B0C0D0E0F101112131415161718191A3E
:086E2C001B1C1D1E1F20280085
:046E34007856341246
:04000003D0004020C9
:00000001FF
